:020000040000FA
:060000000A128A110C280F
:10000800FE00030EF1000A08F2000A128A11182AEB
:100018000A128A110F2883120313AF01B001B1012C
:10002800B201B301B40183010A128A111B280A1212
:100038008A119A210A128A11831203133208AC001A
:10004800AD012C08A8002D08A9000A128A11342233
:100058000A128A1183120313AE002E08B700320861
:10006800AC00AD012C08A8002D08A9000A128A11BD
:10007800F2210A128A1183120313AE002E08B60069
:100088003208AC00AD012C08A0002D08A1000A120E
:100098008A11C8210A128A1183120313AE002E088E
:1000A800B5003030AC002C08B7073030AC002C0855
:1000B800B6073030AC002C08B5078C1E64286528BC
:1000C800D3280A128A116C220A128A118312031386
:1000D800AC002C08B10073303106031D7428752854
:1000E8008B2837080A128A1160220A128A11831291
:1000F800031336080A128A1160220A128A1183121F
:10010800031335080A128A1160220A128A11303044
:10011800831203133102031C92289328D3283A3000
:100128003102031898289928D3283108AC003008E0
:10013800333E84002C08831380000130AC002C0867
:10014800B00703303002031CAA28AB28D328B0011B
:100158006430AC002C08F3003308D03E0A128A1130
:100168004B220A128A1183120313AD002D08AF0027
:100178000A30AC002C08F3003408D03E0A128A1169
:100188004B220A128A1183120313AD002D08AF0700
:100198003508D03EAC002C08AF072F088800B10105
:1001A80020280A128A110C2883120313A501A11F03
:1001B800DE28DF28E628A009A109A00A0319A10A58
:1001C800A501A50AA31FE928EA28F328A209A3097B
:1001D800A20A0319A30A0130FA007A08A506A601A3
:1001E800A701200821040319FA28FB283229A401B1
:1001F800A40A092901300310A00DA10DFF3E031D1B
:10020800FF280130FA007A08A407A11F0C290D293C
:10021800FE2801300310A60DA70DFF3E031D0E2971
:1002280021082302031D1A2920082202031C1D2964
:100238001E2925292008A2022108031CA303A302C2
:10024800261401300310A10CA00CFF3E031D262923
:100258000130A402031D312932290D29250803196B
:10026800362937293C29A609A709A60A0319A70A86
:100278002708A1002608A0000800F901F61F452953
:1002880046294D29F509F609F50A0319F60AF9016F
:10029800F90AF41F502951295629F309F409F30AD8
:1002A8000319F40A7308740403195B295C298B2960
:1002B800F801F80A6A2901300310F30DF40DFF3E26
:1002C800031D60290130F7007708F807F41F6D292E
:1002D8006E295F2974087602031D74297308750254
:1002E800031C772978297E297308F5027408031CF2
:1002F800F603F60201300310F40CF30CFF3E031D65
:100308007F290130F802031D8A298B296E29790873
:1003180003198F2990299529F509F609F50A031972
:10032800F60A7608F4007508F30008008316031728
:10033800880189018316031385010330860088012B
:1003480083120313850186018801831603130F178F
:100358008F160F160F148B170B178B150B101614FF
:10036800961418121815831603178715CF3083169D
:10037800031399009A018312031398171813181678
:100388008316031398160800831203132108F60036
:100398002008F5006430F3000030F4000A128A11D6
:1003A80041210A128A11740883120313A3007308E7
:1003B800A2000A30F3000030F4002308F6002208F7
:1003C800F5000A128A1141210A128A117308FA00EB
:1003D8007A0883120313A400240808000A30831241
:1003E8000313A0000030A1002908F6002808F50032
:1003F8006430F3000030F4000A128A1141210A1215
:100408008A11740883120313A3007308A2000A1246
:100418008A11D8200A128A11831203132008AA000D
:100428002A08AB002B0808000B1C1B2A1C2A2D2AA3
:1004380083120313061C212A222A262A0130F000DF
:100448007008B207861C292A2A2A2C2A0130B202EF
:100458000B1072088A00710E8300FE0E7E0E0900D2
:10046800643083120313A0000030A1002908A30000
:100478002808A2000A128A11D8200A128A118312A7
:1004880003132008AA002A08AB002B080800F6006E
:10049800F501761C502A512A552A7308F40074086D
:1004A800F5070310F30D0310F60C7608031D5D2AFB
:1004B8005E2A4D2A75080800F30083160313981C5A
:1004C800662A672A612A73088312031399000800B1
:0804D800831203131A08080047
:04400E00D420FF3F7C
:00000001FF
