:020000040000FA
:060000000A128A110C280F
:10000800FE00030EF1000A08F2000A128A11852D7B
:100018000A128A110F28F801F901FA018312031351
:10002800EC01ED0183160313A501A601A701A801A0
:1000380083010A128A11BC2DFF0000308A007F0854
:10004800820725280A128A11E22D83120313B300AE
:100058004829253032060319322833285928330A0B
:1000680084008313000803193A283B284A283208D9
:10007800AB002B08F300330A840000080A128A1127
:1000880020200A128A11831203132C283208AB008D
:1000980033088400000884002B0880000130AB007E
:1000A800330884002B0880072C28AE010130A907EB
:1000B800FF30290784000A128A1100230A128A11C4
:1000C800B200AB00AC012C08003A03196C2848298F
:1000D8002B08003A03195C29643A031977280D3A6A
:1000E8000319772848292A08840083130008AB00DD
:1000F800023080072B0884000008B000840A00083A
:10010800B100B11F8828892892280330AB002B083A
:10011800AE04B009B109B00A0319B10AB201B20AB2
:100128003208AB002B07013E84000A128A11002313
:100138000A128A11AC000A128A1100230A128A11C3
:10014800AD002D083102031DAB282C08300203181E
:10015800AE28AF28B028BA280130AB002B08B20768
:1001680005303206031DB928BA2894282E08033909
:100178000319BF28C028E328330A84008313000822
:100188000319C728C828D5282D30AB002B08F30041
:10019800330A840000080A128A1120200A128A11E0
:1001A800E3282D30AB0033088400000884002B08B6
:1001B80080000130AB00330884002B0880078312CD
:1001C80003133208AB002B08AF003D290A30A30007
:1001D8000030A4002F08AB002B07013E84000A1250
:1001E8008A1100230A128A11F3000A128A110023C5
:1001F8000A128A11F4003108F6003008F5000A12D4
:100208008A1123240A128A11740883120313A60080
:100218007308A5000A128A11A6240A128A118312E9
:1002280003132308303EAC002C08B200330A8400C4
:10023800831300080319212922292F293208AB002A
:100248002B08F300330A840000080A128A112020C0
:100258000A128A113D293208AB00330884000008CD
:1002680084002B0880000130AB00330884002B0881
:100278008007FF3083120313AB002B08AF072F0A48
:10028800031D47294829EA28013083120313A907C7
:10029800FF30290784000A128A1100230A128A11E2
:1002A800AB002B08B2003208031D5B295C292D28FE
:1002B800A901AA01080029300A128A11A1250A12E7
:1002C8008A1172300A128A11A1250A128A110B307A
:1002D80083160313A2002630A1005D30A000A00BF6
:1002E8007329A10B7329A20B73297A0883160313A8
:1002F800A000A101200883120313B400831603137E
:10030800210883120313B5005A300A128A11A12555
:100318000A128A1129300A128A11A1250A128A1191
:100328000B300A128A11A1250A128A1183120313AB
:100338008C1E9F29A0299A291A08D03E83160313D8
:10034800A000200883120313ED0033301A020318AB
:10035800AE29AF299A2987300A128A11A1250A12D3
:100368008A11831203138C1EBA29BB29B5291A08CE
:10037800D03E83160313A000200883120313EC0059
:1003880002306D06031DC929CA29D02936301A0240
:100398000318CF29D029B5295D300A128A11A12561
:1003A8000A128A11831203138C1EDB29DC29D62931
:1003B8001A08D03E83160313A0002008F900023063
:1003C800831203136D06031DEA29EB29F72905306B
:1003D8006C06031DF029F129F72936301A02031893
:1003E800F629F729D6296D0883160313A000A10161
:1003F800200883120313BD008316031321088312F8
:100408000313BE006C0883160313A200A30122087D
:1004180083120313BF0083160313230883120313E5
:10042800C0000A128A1169240A128A11831203135E
:100438003D0883160313A4002408F8007808A000D8
:10044800A101200883120313BD008316031321089A
:1004580083120313BE00790883160313A200A301B5
:10046800220883120313BF00831603132308831281
:100478000313C0000A128A1169240A128A1183120E
:1004880003133E0883160313A600831203133D08C3
:1004980083160313A500033083160313A2008A30C2
:1004A800A1005530A000A00B572AA10B572AA20B78
:1004B800572A83160313260883120313B5008316DD
:1004C8000313250883120313B40044300A128A1157
:0804D800A1250A128A11080097
:1006000003308A000408840A82070034013400346D
:100610000A34003464340034E834033410342734AA
:1006200049346E34673472346534733461347234EF
:100630002034433465346E34743465346E3461343C
:100640003A342034523461346E3467346F34283491
:1006500030342D34323429340D3400340D342D34FB
:100660002D342D342D342D342D342D342D342D3482
:100670002D342D342D342D342D342D342D342D3472
:100680002D342D342D342D342D342D342D340D3482
:10069000003445346C3420346E3475346D34653434
:1006A00072346F34203465346C34653467346934A3
:1006B00064346F342034653473343A342034253450
:1006C0006434003449346E346734723465347334BE
:1006D00061347234203455346E3469346434613496
:1006E0006434653473343A3420340D340034563471
:1006F00061346C346F3472342034643465346C3457
:10070000203443346F346E347434613464346F3461
:1007100072343A342034003449346E3467347234DD
:100720006534733461347234203444346534633452
:1007300065346E34613473343A3420340D3400340B
:1007400083120313A900A82B0130A4002408A907D1
:10075000290884002030831300060319B02BB12B25
:10076000A42B29088400093000060319B82BB92BE3
:10077000A42BA701A801A601290884002D3000069A
:10078000031DC32BC42BCD2B0130A4002408A607C6
:100790000130A4002408A907FF2B290884002B306E
:1007A0000006031DD42BD52BFF2B0130A4002408F9
:1007B000A907FF2B83120313290884002808F400DB
:1007C0002708F3000A30F5000030F6000A128A11FB
:1007D00010250A128A11831300087307831203136A
:1007E000A4000030031801307407A5002408D03E8F
:1007F000A70025080318013EFF3EA800D52B2908B5
:10080000840000080A128A11D0250A128A110318DE
:100810000A2C0B2CDA2B8312031326080319112C34
:10082000122C1E2C2709A4002809A500A40A0319CC
:10083000A50A2408A2002508A300222C2808A3004A
:100840002708A200080083120313A101A201730864
:10085000740403192C2C2D2C642CA001A00A3B2C11
:1008600001300310F30DF40DFF3E031D312C013058
:10087000F7007708A007F41F3E2C3F2C302C0130E6
:100880000310A10DA20DFF3E031D402C740876023B
:10089000031D4C2C73087502031C4F2C502C572C35
:1008A0007308F5027408031CF603F60221140130E4
:1008B0000310F40CF30CFF3E031D582C0130A00272
:1008C000031D632C642C3F2C2208F4002108F30044
:1008D00008005A3083120313C1004108B4003E08D7
:1008E000B6003D08B50056300A128A1164250A1276
:1008F0008A115A3083120313C1004108B400400822
:10090000B6003F08B50042300A128A1164250A1267
:100910008A11423083120313C1004108F30056309C
:100920000A128A113B250A128A1156300A128A11BC
:10093000A0230A128A11831203132308EB00220852
:10094000EA006B08BE006A08BD00080083120313AA
:10095000230824040319AD2CAE2CDD2CA801A80A11
:10096000BC2C01300310A30DA40DFF3E031DB22CBF
:100970000130A7002708A807A41FBF2CC02CB12C4A
:1009800024082602031DC62C23082502031CC92C9B
:10099000CA2CD02C2308A5022408031CA603A602F7
:1009A00001300310A40CA30CFF3E031DD12C013019
:1009B000A802031DDC2CDD2CC02C2608A400250871
:1009C000A300080083160317880189018316031307
:1009D0008501033086008801831203138501860197
:1009E0008801831603130F178F160F160F148B171A
:1009F0000B178B150B101614961418121815831656
:100A000003178715CF308316031399009A018312B9
:100A10000313981718131816831603139816080053
:100A200083120313A001A101731C172D182D202D73
:100A3000750883120313A0070318A10A7608A107FB
:100A400001300310F50DF60DFF3E031D212D013081
:100A50000310F40CF30CFF3E031D282D73087404DF
:100A6000031D332D342D142D831203132108F4009C
:100A70002008F3000800F5007508F4007408F6007B
:100A8000452D0130F4007408F607760884008313BE
:100A90000008031D4C2D4D2D412D562D0130F40025
:100AA0007408F6070130F4007408F3077308840033
:100AB0000008F40076088400740880000008031D14
:100AC000622D632D4E2D080083120313B9003908DF
:100AD000B7003708BB00BC013530B7003708BA0093
:100AE0003408B7003708A9003A30B8003808AA001F
:100AF0003B300A128A1129200A128A118312031329
:100B00003B0884008313800108000B1C882D892D6D
:100B10009A2D83120313061C8E2D8F2D932D0130D9
:100B2000F0007008FA07861C962D972D992D01303C
:100B3000FA020B1072088A00710E8300FE0E7E0E00
:100B4000090083120313B900BA010130B600360858
:100B5000BB003430B6003608B8003908B600360895
:100B6000A9003830B7003708AA003A300A128A11B3
:100B700029200A128A1108000A128A11E2240A1294
:100B80008A118316031325088312031388000A129F
:100B90008A115F210A128A11C12D0A128A110C28AA
:100BA000F400F3013A3074020318D72DD82DE02D4C
:100BB00030307402031CDD2DDE2DE02DF301F30A2D
:100BC000730C0800831203130C1EE72DE82DE22D91
:060BD00073089900080003
:04400E00D420FF3F7C
:00000001FF
