:020000040000FA
:060000000A128A110C280F
:10000800FE00030EF1000A08F2000A168A116A2C93
:100018000A128A110F288313A0308400CD300A16E3
:100028008A119E230A128A1183010A128A15302B1B
:1000380083160313DD005008F6004F08F5004E083C
:10004800F4004D08F3000A168A1124260A128A11B0
:10005800740883160313D4007308D300DE01DF018C
:10006800DB01DC010130E0000030E1005008F6005F
:100078004F08F5004E08F4004D08F3000030FA0070
:100088000030F9000030F8000030F7000A168A1135
:10009800A0260A128A11031852285328C128BF30F3
:1000A80083120313D4008030D3000030D200003014
:1000B800D10083160313500883120313D800831644
:1000C80003134F0883120313D700831603134E0834
:1000D80083120313D600831603134D0883120313E8
:1000E800D5000A128A117E240A128A118312031378
:1000F800540883160313D00083120313530883167E
:100108000313CF0083120313520883160313CE0080
:1001180083120313510883160313CD002D30831265
:100128000313EB00831603135D0884008312031383
:100138006B0883138000013083160313DB07031851
:10014800DC0A0030DC07C1280A30F3000030F40074
:100158005408F6005308F5000A168A11BB250A123E
:100168008A11740883160313D4007308D30001306E
:10017800DE070318DF0A0030DF078316031353086E
:100188005404031DC828C928A828112A5E035F043F
:10019800031DCF28D028D5280130E0000030E10029
:1001A80017290230D5000030D60001298316031321
:1001B800610883120313A6008316031360088312D1
:1001C8000313A5000A30A7000030A8000A168A11F8
:1001D8001A240A128A11831203132608831603139A
:1001E800E10083120313250883160313E00001308E
:1001F800D5070318D60A0030D6075F08803A83125D
:100208000313EB00831603135608803A8312031373
:100218006B02031D13298316031355085E02031886
:1002280016291729DA288316031360088312031383
:10023800A90083160313610883120313AA00003070
:10024800AA1BFF30AB00AC0001300A168A11442704
:100258000A128A11831203132C08BA002B08B9005A
:100268002A08B8002908B700831603135008831218
:100278000313BE00831603134F0883120313BD0034
:10028800831603134E0883120313BC00831603134B
:100298004D0883120313BB000A128A1553210A1250
:1002A8008A11831203133A0883160313DA008312A0
:1002B8000313390883160313D9008312031338086C
:1002C80083160313D8008312031337088316031306
:1002D800D700610883120313A8008316031360086C
:1002E80083120313A700831603135A08F60059084C
:1002F800F5005808F4005708F3000A168A11242656
:100308000A128A11740883120313A6007308A50041
:100318000A168A111A240A128A118312031325084D
:10032800A9002608AA000030AA1BFF30AB00AC00C9
:1003380001300A168A1144270A128A1183120313FC
:100348002C08BA002B08B9002A08B8002908B700F9
:1003580083160313500883120313BE008316031376
:100368004F0883120313BD00831603134E0883122C
:100378000313BC00831603134D0883120313BB0039
:100388000A168A11F6230A128A11831203133A08ED
:1003980083160313D000831203133908831603133B
:1003A800CF0083120313380883160313CE00831279
:1003B8000313370883160313CD005A08F6005908AB
:1003C800F5005808F4005708F3000A168A11242685
:1003D8000A128A117308303E83120313EB00831646
:1003E80003135B085D0783120313EC006C08840099
:1003F8006B0883138000013083160313DB0703188F
:10040800DC0A0030DC07FF30DE070318DF0AFF30A4
:10041800DF070130E0000030E1005E085F04031DE3
:10042800162A172ACA282E3083120313EB008316C4
:1004380003135B085D0783120313EC006C08840048
:100448006B0883138000013083160313DB0703183E
:10045800DC0A0030DC070130D5000030D6005B2A0A
:1004680083160313610883120313A600831603136C
:10047800600883120313A5000A30A7000030A80003
:100488000A168A111A240A128A11831203132608DB
:1004980083160313E100831203132508831603133D
:1004A800E0000130D5070318D60A0030D6075208F5
:1004B800803A83120313EB00831603135608803A1D
:1004C800831203136B02031D6D2A83160313550849
:1004D80051020318702A712A342A831603136008FC
:1004E80083120313A90083160313610883120313ED
:1004F800AA000030AA1BFF30AB00AC0001300A167E
:100508008A1144270A128A11831203132C08D40073
:100518002B08D3002A08D2002908D1008316031318
:100528005008F6004F08F5004E08F4004D08F30097
:100538000A168A1124260A128A11730883120313D1
:10054800A9007408AA000030AA1BFF30AB00AC0059
:1005580001300A168A1144270A128A1183120313DA
:100568002C08BA002B08B9002A08B8002908B700D7
:1005780083160313500883120313BE008316031354
:100588004F0883120313BD00831603134E0883120A
:100598000313BC00831603134D0883120313BB0017
:1005A8000A168A11F6230A128A11831203133A08CB
:1005B800D8003908D7003808D6003708D5000A12FD
:1005C8008A117E240A128A1183120313540883168F
:1005D8000313DA0083120313530883160313D90095
:1005E80083120313520883160313D80083120313CC
:1005F800510883160313D7005A08D0005908CF00B2
:100608005808CE005708CD005008F6004F08F500EE
:100618004E08F4004D08F3000A168A1124260A121F
:100628008A11013083160313E0000030E1005208FC
:10063800DF005108DE00672C5E035F04031D252BD5
:10064800262B2B2B0130E0000030E1006D2B02300F
:10065800D5000030D600572B831603136108831288
:100668000313A60083160313600883120313A5005F
:100678000A30A7000030A8000A168A111A240A12A4
:100688008A1183120313260883160313E1008312C9
:100698000313250883160313E0000130D507031858
:1006A800D60A0030D6075F08803A83120313EB009E
:1006B800831603135608803A831203136B02031D33
:1006C800692B8316031355085E0203186C2B6D2BD8
:1006D800302B83160313600883120313A9008316B3
:1006E8000313610883120313AA000030AA1BFF300A
:1006F800AB00AC0001300A168A1144270A128A118D
:10070800831203132C08BA002B08B9002A08B80072
:100718002908B70083160313500883120313BE0079
:10072800831603134F0883120313BD0083160313A4
:100738004E0883120313BC00831603134D0883125B
:100748000313BB000A128A1553210A128A11831255
:1007580003133A0883160313DA00831203133908C4
:1007680083160313D900831203133808831603135F
:10077800D80083120313370883160313D7006108C0
:1007880083120313A800831603136008831203134C
:10079800A700831603135A08F6005908F5005808ED
:1007A800F4005708F3000A168A1124260A128A113F
:1007B800740883120313A6007308A5000A168A1189
:1007C8001A240A128A11831203132508A90026087D
:1007D800AA000030AA1BFF30AB00AC0001300A169B
:1007E8008A1144270A128A11831203132C08BA00AB
:1007F8002B08B9002A08B8002908B7008316031384
:10080800500883120313BE00831603134F08831284
:100818000313BD00831603134E0883120313BC0091
:10082800831603134D0883120313BB000A168A119B
:10083800F6230A128A11831203133A088316031344
:10084800D00083120313390883160313CF008312D1
:100858000313380883160313CE00831203133708D3
:1008680083160313CD005A08F6005908F5005808F6
:10087800F4005708F3000A168A1124260A128A116E
:100888007308303E83120313EB00831603135B08CF
:100898005D0783120313EC006C0884006B08831354
:1008A8008000013083160313DB070318DC0A0030CD
:1008B800DC07FF30DE070318DF0AFF30DF070130EF
:1008C800E0000030E1005E085F04031D6C2C6D2C15
:1008D800202B0A3083120313EB00831603135B08E3
:1008E8005D0783120313EC006C0884006B08831304
:1008F800800008008312031354088039D90059086E
:10090800DE005408D9005907DA005A08E400D31F5A
:100918008E2C8F2C902C641464080319942C952C1D
:10092800A42C640A031D992C9A2CA22C0030D40004
:100938000030D3000030D2000030D100D317AC2CE7
:100948000030D4000030D3000030D2000030D10095
:1009580058088039D9005908DE065808D9005907BF
:10096800DA005A08E300D71FBA2CBB2CBC2C63143E
:1009780063080319C02CC12CD02C630A031DC52C95
:10098800C62CCE2C0030D8000030D7000030D6005E
:100998000030D500D717D82C0030D8000030D70049
:1009A8000030D6000030D50063080319DC2CDD2C9C
:1009B800E22C6408031DE12CE22CEB2C0030D4005F
:1009C8000030D3000030D2000030D100DE2F5108B3
:1009D800D9005908F30057080A168A1141240A1247
:1009E8008A11740883120313EA007308E90069087E
:1009F800D900DA01DB01DC015C08E2005B08E100F8
:100A08005A08E0005908DF006A08D900DA01DB015A
:100A1800DC015C08E8005B08E7005A08E6005908B2
:100A2800E5005208D9005908F30056080A168A1139
:100A380041240A128A11740883120313EA00730806
:100A4800E9006908D900DA01DB01DC015908DF0790
:100A58005A0803110318013E0319332DE0075B08F8
:100A680003110318013E03193A2DE1075C0803112D
:100A78000318013E0319412DE2076A08D900DA017B
:100A8800DB01DC015908E5075A0803110318013E88
:100A980003194F2DE6075B0803110318013E0319DC
:100AA800562DE7075C0803110318013E03195D2D55
:100AB800E8075308D9005908F30055080A168A119F
:100AC80041240A128A11740883120313EA00730876
:100AD800E9006908D900DA01DB01DC015908DF0700
:100AE8005A0803110318013E03197B2DE0075B0820
:100AF80003110318013E0319822DE1075C08031155
:100B08000318013E0319892DE2076A08D900DA01A2
:100B1800DB01DC015908E5075A0803110318013EF7
:100B28000319972DE6075B0803110318013E031903
:100B38009E2DE7075C0803110318013E0319A52D34
:100B4800E8070830D9000310DF0DE00DE10DE20DD4
:100B5800D90BA72D5208D9005908F30055080A16D1
:100B68008A1141240A128A11740883120313EA00B5
:100B78007308E9006908D9006A08DA00DB01DC01BA
:100B88005908DF075A0803110318013E0319CD2D30
:100B9800E0075B0803110318013E0319D42DE10790
:100BA8005C0803110318013E0319DB2DE207510805
:100BB800D9005908F30056080A168A1141240A1266
:100BC8008A11740883120313EA007308E90069089C
:100BD800D9006A08DA00DB01DC015908DF075A0886
:100BE80003110318013E0319FA2DE0075B080311EE
:100BF8000318013E0319012EE1075C0803110318CD
:100C0800013E0319082EE2070830D9000310DF0D52
:100C1800E00DE10DE20DD90B0A2E5108D900590853
:100C2800F30055080A168A1141240A128A11740819
:100C380083120313EA007308E9006908D9006A08F7
:100C4800DA00DB01DC015908DF075A080311031831
:100C5800013E0319302EE0075B0803110318013E1B
:100C68000319372EE1075C0803110318013E031925
:100C78003E2EE2075208D9005908F30057080A1611
:100C88008A1141240A128A11740883120313EA0094
:100C98007308E9006908D9006A08DA00DB01DC0199
:100CA8005908E5075A0803110318013E03195D2E78
:100CB800E6075B0803110318013E0319642EE707D2
:100CC8005C0803110318013E03196B2EE80753084B
:100CD800D9005908F30056080A168A1141240A1245
:100CE8008A11740883120313EA007308E90069087B
:100CF800D9006A08DA00DB01DC015908E5075A085F
:100D080003110318013E03198A2EE6075B08031135
:100D18000318013E0319912EE7075C080311031815
:100D2800013E0319982EE8075308D9005908F30023
:100D380057080A168A1141240A128A117408831264
:100D48000313EA007308E9006908D9006A08DA00A1
:100D5800DB01DC0108300310D90DDA0DDB0DDC0DE9
:100D6800FF3E031DAF2E5908E5075A080311031863
:100D7800013E0319C02EE6075B0803110318013E64
:100D88000319C72EE7075C0803110318013E03196E
:100D9800CE2EE8075F08D9006008DA006108DB009A
:100DA8006208DC0018300310DC0CDB0CDA0CD90C00
:100DB800FF3E031DD72E5908E5075A0803110318EB
:100DC800013E0319E82EE6075B0803110318013EEC
:100DD8000319EF2EE7075C0803110318013E0319F6
:100DE800F62EE8070830D9000310DF0DE00DE10DFD
:100DF800E20DD90BF82E64086307D900DA01DA0D81
:100E08005908823EE9005A080318013EFF3EEA00ED
:100E18002A2F0130D9000310E50DE60DE70DE80D86
:100E2800D90B0F2FE21F192F1A2F1B2F6514013012
:100E3800D9000310DF0DE00DE10DE20DD90B1D2FD8
:100E4800FF30E9070318EA0AFF30EA07E71F2D2FEA
:100E58002E2F0D2FE301E21F322F332F4F2FFF309C
:100E68005F05D900FF306005DA00FF306105DB005F
:100E78007F306205DC005C085B045A0459040319DE
:100E8800462F472F4A2FE301E30A4F2F651C4D2FAA
:100E98004E2F4F2F472F63080319532F542F852F99
:100EA8000130E507003003180130E6070030031869
:100EB8000130E707003003180130E807681C652F88
:100EC800662F852F6508D9006608DA006708DB00F9
:100ED8006808DC000130DD005C0DDC0CDB0CDA0C92
:100EE800D90CDD0B702F5C08E8005B08E7005A0896
:100EF800E6005908E5000130E9070318EA0A00305E
:100F0800EA076A08803AFF0080307F02031D8E2FAF
:100F1800FF306902031C912F922F9D2F7F3083127F
:100F28000313E8008030E7000030E6000030E500F9
:100F3800D22F831203136A08803AFF0080307F02A1
:100F4800031DA82F013069020318AB2FAC2FB82F4F
:100F5800003083120313E8000030E7000030E60099
:100F68000030E500DE01D22F831203136908D9008F
:100F78005908E400FF30E505FF30E6057F30E70556
:100F88000030E805641CC92FCA2FCB2FE717640867
:100F9800D9000310590CDA005A08E8005E08D90095
:100FA8005908E8046808D4006708D3006608D20026
:100FB8006508D1000800F6008312031307107608AD
:100FC8000A128A11F9270A128A1183120313871445
:100FD8000630F5003030F400F40BF02FF50BF02F4D
:100FE80000008312031387100800F30073088312AC
:060FF8000313860008004F
:10100000FF1B0A2883137F1883170008840A03191B
:10101000FF0A080008308A000408840A82070034A6
:101020000D342D342D342D342D342D342D342D34D8
:101030002D342D342D342D342D342D342D342D34A8
:101040000D3400340D34533465346E3473346F34DE
:101050007234203431343A3420340D3400340D34B9
:10106000533465346E3473346F3472342034323414
:101070003A3420340D3400340D3443346F346E343C
:101080007434613464346F3472343A3420340D343F
:101090000034533431343A340034533432343A3433
:0E10A0000034533433343A34003456340034C0
:1010BA00023083120313A5000430A400B930A30040
:1010CA00A30B6528A40B6528A50B65286C2813308B
:1010DA00F4008030F5000A168A1167250A128A156B
:1010EA00023083120313A5000430A400B930A30010
:1010FA00A30B7D28A40B7D28A50B7D288428C3304B
:10110A00F4000030F5000A168A1167250A128A15BA
:10111A00023083120313A5000430A400B930A300DF
:10112A00A30B9528A40B9528A50B95289C2801307C
:10113A00F4008030F5000A168A1167250A128A150A
:10114A00023083120313A5000430A400B930A300AF
:10115A00A30BAD28A40BAD28A50BAD28B4282030CD
:10116A00F4008030F5000A168A1167250A128A15DA
:10117A00023083120313A5000430A400B930A3007F
:10118A00A30BC528A40BC528A50BC528CC28B930A4
:10119A00F4000030F5000A168A1167250A128A152A
:1011AA00023083120313A5000430A400B930A3004F
:1011BA00A30BDD28A40BDD28A50BDD28E4280130CC
:1011CA00F4008030F5000A168A1167250A128A157A
:1011DA00023083120313A5000430A400B930A3001F
:1011EA00A30BF528A40BF528A50BF528FC282D3010
:1011FA00F4008030F5000A168A1167250A128A154A
:10120A00023083120313A5000430A400B930A300EE
:10121A00A30B0D29A40B0D29A50B0D291429AF30F9
:10122A00F4000030F5000A168A1167250A128A1599
:10123A00023083120313A5000430A400B930A300BE
:10124A00A30B2529A40B2529A50B25292C29013017
:10125A00F4008030F5000A168A1167250A128A15E9
:10126A002B30831203131A06031D3C293D294729F3
:10127A000130A300230883160313AC078312031358
:10128A009A0152292D301A06031D4C294D2952293B
:10129A00013083160313AC02432908008312031397
:1012AA003E088039BF003F08C8003E08BF003F071C
:1012BA00C0004008CF00BD1F6329642965294F1467
:1012CA004F08031969296A297A294F0A031D6E29C9
:1012DA006F2977290030BE000030BD000030BC0005
:1012EA000030BB00BD17BE0182290030BE000030AD
:1012FA00BD000030BC000030BB003A088039BF0096
:10130A003F08C8063A08BF003F07C0004008D0009F
:10131A00B91F902991299229501450080319962926
:10132A009729A729500A031D9B299C29A429003023
:10133A00BA000030B9000030B8000030B700B91761
:10134A00BA01AF290030BA000030B9000030B80045
:10135A000030B7003A08390438043704031DB629A7
:10136A00B729D0290030BE000030BD000030BC00D3
:10137A000030BB008030BD047F30BE044808BF0087
:10138A003F08BE043E08BA003D08B9003C08B80050
:10139A003B08B7002F2B4F08031DD429D529DE2976
:1013AA000030BA000030B9000030B8000030B70091
:1013BA002F2B4F08BF00C0014008C20050083F024F
:1013CA00C100031CC20341087F3EC900420803183A
:1013DA00013E003ECA003E08C7003D08C6003C0860
:1013EA00C5003B08C4000030BE000030BD0000301C
:1013FA00BC000030BB000030CE000030CD00003011
:10140A00CC000030CB00D001542A500803190E2A10
:10141A000F2A2F2A0130BF000310C40DC50DC60DB7
:10142A00C70DBF0B112A0130BF000310BB0DBC0D45
:10143A00BD0DBE0DBF0B1A2ACE1F242A252A262A25
:10144A003B140130BF000310CB0DCC0DCD0DCE0DDA
:10145A00BF0B282A3A084702031D3D2A39084602CB
:10146A00031D3D2A38084502031D3D2A3708440258
:10147A00031C402A412A502A4E173708C40238084A
:10148A00031C380FC5023908031C390FC6023A0873
:10149A00031C3A0FC7020130BF003F08D0071A30B9
:1014AA005002031C592A5A2A0A2A470846044504A4
:1014BA0044040319612A622A812A4B14812A0130C1
:1014CA00BF000310BB0DBC0DBD0DBE0DBF0B662AC0
:1014DA00CE1F702A712A722A3B140130BF000310F2
:1014EA00CB0DCC0DCD0DCE0DBF0B742AFF30C90725
:1014FA000318CA0AFF30CA07BD1F842A852A642A2C
:10150A00D001CE1F892A8A2AA62AFF304B05BF009E
:10151A00FF304C05C000FF304D05C1007F304E053D
:10152A00C2004208410440043F0403199D2A9E2A2E
:10153A00A12AD001D00AA62A3B1CA42AA52AA62A97
:10154A009E2A50080319AA2AAB2ADC2A0130BB07B3
:10155A00003003180130BC07003003180130BD0702
:10156A00003003180130BE073E1CBC2ABD2ADC2A03
:10157A003B08BF003C08C0003D08C1003E08C2004D
:10158A000130C300420DC20CC10CC00CBF0CC30B0E
:10159A00C72A4208BE004108BD004008BC003F08F7
:1015AA00BB000130C9070318CA0A0030CA074A0833
:1015BA00803AFF0080307F02031DE52AFF3049028E
:1015CA00031CE82AE92AF72AFF3083120313C90009
:1015DA000030CA000030BE000030BD000030BC0040
:1015EA000030BB00831203134A08803AFF008030A0
:1015FA007F02031D022B013049020318052B062B1B
:10160A00132B83120313C901CA010030BE00003034
:10161A00BD000030BC000030BB00C80183120313B8
:10162A004908BF003F08CF004F1C1C2B1D2B1F2B46
:10163A00BD17232B7F30BF003F08BD054F08BF00F1
:10164A0003103F0CC0004008BE004808BF003F0816
:10165A00BE04C72908000A168A1120250A128A150B
:10166A000A168A1195240A128A150A168A11B023B3
:10167A000A128A15831203139F14F701F70A01301D
:10168A000A168A11D2230A128A153A30F6008030D5
:10169A00F7000A168A11DA240A128A150830831604
:1016AA000313E2006208F70001300A168A11D223F6
:1016BA000A128A153E30F6008030F7000A168A119F
:1016CA00DA240A128A150E3083160313E20062081E
:1016DA00F70001300A168A11D2230A128A154230FB
:1016EA00F6008030F7000A168A11DA240A128A15DF
:1016FA000A128A155D200A128A15831203139F188B
:10170A00872B882BA82B1F0C83160313E200620C6D
:10171A000F39003A031D922B932B9A2B8312031332
:10172A001F08C33904389F009E2BC330831203134A
:10173A009F05843083160313E200E20BA22B0000FC
:10174A00831203139F14F701F70A02300A168A114B
:10175A00D2230A128A15C330F6000030F7000A169F
:10176A008A11DA240A128A15053083160313E20055
:10177A006208F70002300A168A11D2230A128A1561
:10178A004630F6008030F7000A168A11DA240A1267
:10179A008A15073083160313E2006208F700023045
:1017AA000A168A11D2230A128A15B930F6000030B5
:1017BA00F7000A168A11DA240A128A150B308316E0
:1017CA000313E2006208F70002300A168A11D223D4
:1017DA000A128A154630F6008030F7000A168A1176
:1017EA00DA240A128A150E3083160313E2006208FD
:1017FA00F70002300A168A11D2230A128A15AF306C
:10180A00F6000030F7000A168A11DA240A128A153D
:10181A00003083160313AB000030AA000030A90081
:10182A000030A8000030A7000030A6000030A50054
:10183A000030A400403083120313D400A030D30038
:10184A000030D2000030D1004330BA007F30B900F6
:10185A000030B8000030B700831603132E08E200E8
:10186A00E301E401E501650883120313AC00831662
:10187A000313640883120313AB008316031363086C
:10188A0083120313AA008316031362088312031335
:10189A00A90001300A168A1144270A128A158312EE
:1018AA0003132C08BE002B08BD002A08BC00290817
:1018BA00BB000A128A1553210A128A1583120313CE
:1018CA003A08D8003908D7003808D6003708D500B2
:1018DA000A128A117E240A128A15831203135408E3
:1018EA0083160313AB0083120313530883160313DF
:1018FA00AA0083120313520883160313A900831242
:10190A000313510883160313A8002B08D0002A08D2
:10191A00CF002908CE002808CD000230D1000030BF
:10192A00D200C3300A128A111C200A128A154030CA
:10193A0083120313D400A030D3000030D200003049
:10194A00D1004330BA007F30B9000030B80000300F
:10195A00B700831603132D08E200E301E401E50151
:10196A00650883120313AC008316031364088312F9
:10197A000313AB0083160313630883120313AA002D
:10198A0083160313620883120313A90001300A168F
:10199A008A1144270A128A15831203132C08BE00DF
:1019AA002B08BD002A08BC002908BB000A128A15A8
:1019BA0053210A128A15831203133A08D8003908E8
:1019CA00D7003808D6003708D5000A128A117E24B3
:1019DA000A128A1583120313540883160313A700E5
:1019EA0083120313530883160313A60083120313E7
:1019FA00520883160313A500831203135108831692
:101A0A000313A4002708D0002608CF002508CE001B
:101A1A002408CD000230D1000030D200B9300A12B9
:101A2A008A111C200A128A15831603132C08E20055
:101A3A00E301E401E501650883120313AC00831690
:101A4A000313640883120313AB008316031363089A
:101A5A0083120313AA008316031362088312031363
:101A6A00A90000300A168A1144270A128A1583121D
:101A7A0003132C0883160313E900831203132B089C
:101A8A0083160313E800831203132A088316031329
:101A9A00E70083120313290883160313E600690873
:101AAA00D0006808CF006708CE006608CD00023073
:101ABA00D1000030D200AF300A128A111C200A125B
:101ACA008A15063083160313E4001330E300AD30A1
:101ADA00E200E20B6E2DE30B6E2DE40B6E2D422B12
:101AEA000A128A110C287608803983120313A0007F
:101AFA002008A8007608A0002007A1002108AA0053
:101B0A00F51F882D892D8A2D2A142A0803198E2D4E
:101B1A008F2D9F2D2A0A031D932D942D9C2D003065
:101B2A00F6000030F5000030F4000030F300F5173D
:101B3A00F601A72D0030F6000030F5000030F40061
:101B4A000030F3007A088039A0002008A90029088B
:101B5A0028060319B12DB22DB32D28177A08A00033
:101B6A002007A1002108A900F91FBC2DBD2DBE2DFB
:101B7A00291429080319C22DC32DD32D290A031D9F
:101B8A00C72DC82DD02D0030FA000030F9000030E2
:101B9A00F8000030F700F917FA01DB2D0030FA00DF
:101BAA000030F9000030F8000030F7002A08290256
:101BBA000318E02DE12D252E281FE42DE52DE92D12
:101BCA008030A0002008A8062A08A0002008AB0040
:101BDA002908A0002008AA002B08A0002008A900B4
:101BEA007308A0002008AB007708A0002008F300C3
:101BFA002B08A0002008F7007408A0002008AB00FA
:101C0A007808A0002008F4002B08A0002008F8009B
:101C1A007508A0002008AB007908A0002008F5008C
:101C2A002B08A0002008F9007608A0002008AB00C5
:101C3A007A08A0002008F6002B08A0002008FA0065
:101C4A00AB012908A000A1012108A3002A0820024B
:101C5A00A200031CA3032308803AFF0080307F02FE
:101C6A00031D392E1A302202031C3C2E3D2E7A2ED9
:101C7A007608750474047304031D442E462E01303D
:101C8A00472E003083120313A0002008AB00003057
:101C9A00F6000030F5000030F4000030F3002908A7
:101CAA00A0002008AA00822E2B1C5C2E5D2E662E18
:101CBA002B08A0000310200C0138A1002108AB005A
:101CCA00682E0310AB0C731C6B2E6C2E6D2EAB178B
:101CDA000130A000760DF60CF50CF40CF30CA00BF9
:101CEA006F2E0130A0002008AA07831203132908C7
:101CFA002A02031C812E822E592E281B852E862EFF
:101D0A00D12E2A08031D8A2E8B2E942E0030F6001F
:101D1A000030F5000030F4000030F300FF2F7708A0
:101D2A00F307780803110318013E03199D2EF407DF
:101D3A00790803110318013E0319A42EF5077A083E
:101D4A0003110318013E0319AB2EF607761CAE2EBB
:101D5A00AF2E852F2B1CB22EB32EBC2E2B08A00023
:101D6A000310200C0138A1002108AB00BE2E03107D
:101D7A00AB0C731CC12EC22EC32EAB170130A000B0
:101D8A00760DF60CF50CF40CF30CA00BC52E0130F5
:101D9A00A0002008AA07852F7608803AFF007A0853
:101DAA00803A7F02031DE32E79087502031DE32E94
:101DBA0078087402031DE32E770873020318E62ECF
:101DCA00E72E3F2FFF30A000FF30A100FF30A20016
:101DDA00FF30A3007708A4007808A5007908A600B8
:101DEA007A08A7007308A4027408031C740FFE2E55
:101DFA00FF2EA5027508031C750F042F052FA602D6
:101E0A007608031C760F0A2F0B2FA7022408A007B7
:101E1A0025080318250F122F132FA10726080318C8
:101E2A00260F182F192FA20727080318270AA30716
:101E3A002308F6002208F5002108F4002008F30020
:101E4A008030A0002008A806AB09AB0A2B08031DA6
:101E5A002F2F302F4D2F0130F30700300318013098
:101E6A00F407003003180130F50700300318013079
:101E7A00F6074D2F7708F3027808031C780FF4024F
:101E8A007908031C790FF5027A08031C7A0FF60207
:101E9A007608750474047304031D542F552F812F7B
:101EAA002B08031D592F5A2F812F0030F6000030BE
:101EBA00F5000030F4000030F300FF2F0130A000DD
:101ECA000310F30DF40DF50DF60DA00B652FAB1FE6
:101EDA006F2F702F712F73142B1C742F752F782F5F
:101EEA000314AB0D7A2F0310AB0D2A0803197E2FAA
:101EFA007F2F812F0130AA02F51F842F852F632F90
:101F0A00A901AB1F892F8A2F982F2B087F39031914
:101F1A008F2F902F932FA901A90A982F731C962F00
:101F2A00972F982F902F290803199C2F9D2FD12F77
:101F3A000130F307003003180130F40700300318AA
:101F4A000130F507003003180130F607761CAE2F72
:101F5A00AF2FD12F7308A0007408A1007508A20042
:101F6A007608A3000130A400230DA30CA20CA10C37
:101F7A00A00CA40BB92F2308F6002208F5002108AB
:101F8A00F4002008F3002A0A0319CC2FCD2FD12FF1
:101F9A000130A0002008AA072A0A0319D52FD62F34
:101FAA00DB2F2A08031DDA2FDB2FE92F0030F6007A
:101FBA000030F5000030F4000030F3002A08031D59
:101FCA00E72FE82FE92FA8012A1CEC2FED2FEF2F7E
:101FDA00F517F32F7F30A0002008F5052A08A00086
:101FEA000310200CA1002108F600A81FFD2FFE2FC8
:061FFA00FF2FF61708009E
:10273C0064008001840A04060319003404069F2BEC
:10274C00F300831203130C1EAC2BAD2BA72B7308B9
:10275C009900080000300A128A11DF270A168A1124
:10276C0001300A128A11DF270A168A110800F500B7
:10277C0083120313071475080A128A11F9270A1613
:10278C008A118312031387140330F400F40BCC2B3F
:10279C008312031387100800F9007903031DD72B4C
:1027AC00D82BE42B77087F3EF8007808FA007A08DB
:1027BC000A128A11DF270A168A11F52B02307906C4
:1027CC00031DE92BEA2BF52B7708BF3EF8007808A0
:1027DC00FA007A080A128A11DF270A168A110800F1
:1027EC00803083120313BA063E08F6003D08F5004C
:1027FC003C08F4003B08F3003A08FA003908F900E9
:10280C003808F8003708F7000A128A1578250A16D6
:10281C008A11760883120313BA007508B90074087C
:10282C00B8007308B7000800F901FA01831203130A
:10283C00251C212C222C282C2708F9070318FA0A0E
:10284C002808FA0701300310A70DA80DFF3E031D41
:10285C00292C01300310A60CA50CFF3E031D302CB7
:10286C0025082604031D3B2C3C2C1C2C7A08A600A6
:10287C007908A500080083120313A400A001A1018C
:10288C007308F500F6017508A2007608A300241C55
:10289C00502C512C572C2208A0070318A10A2308EE
:1028AC00A10701300310A20DA30DFF3E031D582CF0
:1028BC000310A40C2408031D642C652C4D2C21083A
:1028CC00F4002008F3000800831203130C1F6F2C74
:1028DC00702C8E2C1F0CF000700C0F39003A031D5D
:1028EC00782C792C802C1E08F000700883160313AA
:1028FC00AE008C2C1E08F000700883160313AD007C
:10290C000130F000700883120313880783120C1334
:10291C0072088A00710E8300FE0E7E0E09000030D4
:10292C000A128A11F9270A168A111A30F800F8309F
:10293C00F700F70B9F2CF80B9F2C000030300A127D
:10294C008A11DF270A168A110730F8007D30F7004C
:10295C00F70BAE2CF80BAE2C30300A128A11DF2795
:10296C000A168A110F30F8004730F700F70BBC2C11
:10297C00F80BBC2CC12C30300A128A11DF270A1636
:10298C008A1138300A128A11DF270A168A110C3084
:10299C000A128A11DF270A168A1106300A128A11C6
:1029AC00DF270A168A11080083120313A001A10164
:1029BC00032D20087607F9007708F8000318F80AA9
:1029CC00A01FE92CF8037808FA007A088312031385
:1029DC00FF00790884000A128A1500200A168A1151
:1029EC000A168A11BD230A168A11013083120313A9
:1029FC00A0070318A10A0030A10720087607F900E8
:102A0C007708F8000318F80AA01F0D2DF8037808B2
:102A1C00FA007A0883120313FF00790884000A1263
:102A2C008A1500200A168A11003A031D1E2D1F2D2F
:102A3C00DF2C0800033083160317880089018316E6
:102A4C0003138601071087100330850083120313CC
:102A5C00850186018701831603130F178F160F1636
:102A6C000F148B170B170C17831203138C1283166E
:102A7C0003139F131F129F12831203139F17C3304C
:102A8C009F058530F300F30B492D831203131F149C
:102A9C008530F300F30B502D831603131812181501
:102AAC00831603178715CF308316031399009A01E9
:102ABC0083120313981718131816831603139816FA
:102ACC0008007630F600760883120313A000A02DC0
:102ADC00253022060319732D742D7B2D22080A161E
:102AEC008A11A6230A168A11A02D832D22080A16F4
:102AFC008A11A6230A168A11A02D7508F7007408EE
:102B0C00F600F40A0319F50A7708FF00760884002A
:102B1C000A128A1500200A168A11A200F800F9017F
:102B2C007908003A03199B2D7C2D7808003A03197B
:102B3C00BA2D7C2D7508F7007408F600F40A0319F9
:102B4C00F50A770883120313FF00760884000A1233
:102B5C008A1500200A168A11F8007808A2002208AB
:102B6C00031DB92DBA2D6E2D080083120313A1017C
:102B7C00F41FC12DC22DC92DF309F409F30A031951
:102B8C00F40AA101A10AF61FCC2DCD2DD62DF509E5
:102B9C00F609F50A0319F60A0130F7007708A106C1
:102BAC00A201A301730874040319DD2DDE2D152E6B
:102BBC00A001A00AEC2D01300310F30DF40DFF3E23
:102BCC00031DE22D0130F7007708A007F41FEF2D4D
:102BDC00F02DE12D01300310A20DA30DFF3E031DBE
:102BEC00F12D74087602031DFD2D73087502031C6C
:102BFC00002E012E082E7308F5027408031CF60330
:102C0C00F602221401300310F40CF30CFF3E031DEA
:102C1C00092E0130A002031D142E152EF02D2108B3
:102C2C000319192E1A2E1F2EA209A309A20A031981
:102C3C00A30A2308F4002208F30008000310750D02
:102C4C00760D83120313A0002008F8007808031DEA
:102C5C00302E312E3A2E0030F6000030F5000030C8
:102C6C00F4000030F3009F2E7308A0007408A1003C
:102C7C007508A2007608A3001F300310A30CA20C49
:102C8C00A10CA00CFF3E031D432E2008A400240819
:102C9C00F700F517FF30F305FF30F405FF30F505AD
:102CAC000030F6059630F802F81F5D2E5E2E782E59
:102CBC007808803A973E0318642E652E662E312EC6
:102CCC0001300310F60CF50CF40CF30CFF3E031D55
:102CDC00672E0130A0002008F807031D762E772EF2
:102CEC00662E8F2E20307802031C7D2E7E2E8A2E8F
:102CFC00312E0130A0000310F30DF40DF50DF60D7F
:102D0C00A00B812E0130F8027808031D8E2E8F2E19
:102D1C007F2E77080319932E942E9F2EF309F40916
:102D2C00F509F609F30A0319F40A0319F50A03194C
:102D3C00F60A08000030730583120313A00000305C
:102D4C007405A10080307505A2007F307605A300C4
:102D5C002308220421042004031DB52EB62EBE2EFA
:102D6C000030F6000030F5000030F4000030F300C5
:102D7C0000307705A00000307805A100803079057F
:102D8C00A2007F307A05A30023082204210420042A
:102D9C00031DD12ED22EDA2E0030FA000030F900AD
:102DAC000030F8000030F700F61FDD2EDE2E022F6B
:102DBC000030A0000030A1000030A2008030A30041
:102DCC007308A0027408031C740FED2EEE2EA102E2
:102DDC007508031C750FF32EF42EA2027608031C43
:102DEC00760FF92EFA2EA3022308F6002208F5001E
:102DFC002108F4002008F300FA1F052F062F2A2FB4
:102E0C000030A0000030A1000030A2008030A300F0
:102E1C007708A0027808031C780F152F162FA10233
:102E2C007908031C790F1B2F1C2FA2027A08031C94
:102E3C007A0F212F222FA3022308FA002208F9006F
:102E4C002108F8002008F7008030F6068030FA06DA
:102E5C007A087602031D3C2F79087502031D3C2F5E
:102E6C0078087402031D3C2F7708730203183F2F58
:102E7C00402F422F0310432F031408008312031317
:102E8C00B100310803194B2F4C2F602FAC1F4F2F63
:102E9C00502F602F2909B3002A09B4002B09B50063
:102EAC002C09B600B30A0319B40A0319B50A03199D
:102EBC00B60A682F2C08B6002B08B5002A08B400F7
:102ECC002908B3002C082B042A042904031D6F2F96
:102EDC00702F792F0030AC000030AB000030AA000E
:102EEC000030A900FF2F9630AD002D08B2008B2FBB
:102EFC000130AD002D08B20701300310B60CB50C33
:102F0C00B40CB30CFF3E031D832FFE303605031D9E
:102F1C00902F912F7E2FAD2F0130AD002D08B207D1
:102F2C000130B307003003180130B4070030031828
:102F3C000130B507003003180130B607013003101B
:102F4C00B60CB50CB40CB30CFF3E031DA52FFF3013
:102F5C003605031DB22FB32F922FBF2F0130B202B3
:102F6C000130AD000310B30DB40DB50DB60DAD0BA6
:102F7C00B82FB51BC22FC32FC92F02303202031832
:102F8C00C82FC92FB42F3218CC2FCD2FD52FFF30EF
:102F9C00B305FF30B4057F30B505FF30B60503101F
:102FAC00B20C3208AD00AE01AF01B0011830031005
:102FBC00AD0DAE0DAF0DB00DFF3E031DDD2F2D0879
:102FCC00B3042E08B4042F08B5043008B604310835
:102FDC000319F12FF22FF72FAC1FF52FF62FF72F28
:102FEC00B6173608AC003508AB003408AA00330815
:042FFC00A900080020
:04400E00D420FF3F7C
:00000001FF
