:020000040000FA
:060000000A128A110E280D
:10000800FE00030EF3000408F4000A08F5000A12C3
:100018008A1128280A128A11112883133030FD000A
:100028000130FE002C30FF00203084000A128A11B3
:100038001D210A128A11F601F701F801F901FA01E6
:1000480083010A128A11D6280B1D2B282C284C282C
:1000580083120313061186110B11D93081007A031C
:10006800031D3728382842280611861577080A12F2
:100078008A113C210A128A11FA014C2886110615A8
:1000880076080A128A113C210A128A11FA01FA0A20
:100098000B1C4F285028652883120313061C55286B
:1000A80056285C280130F2007208F90779088700A1
:1000B800861C5F28602864280130F90279088700C7
:1000C8000B10831203130C1F6A286B287D281F0C42
:1000D800F200720C0F39003A031D732874287A282D
:1000E8001E080A128A1146210A128A118312031362
:1000F8000C1375088A0074088400730E8300FE0EC2
:100108007E0E090001308316031788008901033029
:100118008316031386008701880101308500890151
:1001280083120313850186018701880189018316DB
:1001380003130F178F160F160F148B170B178B1629
:100148008B150C170B110B10831203130C1383164A
:1001580003131614961481118112011581140114C8
:10016800D930831203138100831603139F131F12C0
:100178009F12831203139F17C3309F058430831285
:100188000313B000B00BC6280000831203131F141A
:10019800843083120313B000B00BD0280000FA019A
:1001A800F90108000A128A1186200A128A1183129C
:1001B80003139F149F18E128E228EC288430831247
:1001C8000313B300B30BE6280000831203139F1434
:1001D80078080A128A1103210A128A11780879020A
:1001E8000318F728F828FC28831203130914DE28BB
:1001F800831203130910DE280A128A110E288312AB
:100208000313B20032080F39B0003008F700320883
:10021800B00004300310B00CFF3E031D0E29300857
:100228000F39B1003108F60008007E088A007F08FF
:1002380082000A128A1119210A128A118000840A7E
:1002480004087D0603190034FF0A0319FE0A1D2954
:100258003F3406345B344F3466346D347D340734B0
:100268007F34673477347C3439345E34793471348C
:10027800F0007008203E84008313000883120313E3
:1002880088000800F1007108F0007008F800080004
:04400E00C430FF3F7C
:00000001FF
