:020000040000FA
:100000000A128A11FA2F00308A000408840A820733
:1000100000340D342D342D342D342D342D342D3425
:100020002D342D342D342D342D342D342D342D34C8
:100030002D340D3400340D34533465346E34733440
:100040006F347234203431343A3420340D34003477
:100050000D34533465346E3473346F347234203459
:0A00600032343A3420340D340034F9
:100D6C00F00070088312031393000800831603131A
:100D7C00141CC12EC22EBC2E08000A128A11BC26CD
:100D8C000A128A118312031313080800F00083124D
:100D9C0003130C1ED22ED32ECD2E700899000800F2
:100DAC00F300831603138712731DDD2EDE2EE22E45
:100DBC00720894008715E62E70087204940087114F
:100DCC00730871048312031394000800F40070304C
:100DDC00F1007108F200F82E73080A128A11CC2661
:100DEC000A128A110130F407FF30740784000A12CA
:100DFC008A1103200A128A11F1007108F30073089A
:100E0C00031D092F0A2FF22E0800831603178801E1
:100E1C0089018316031307118601880183120313BA
:100E2C00860188010715F001F101F20120300A1248
:100E3C008A11D6260A128A11831603130F178F16DE
:100E4C000F160F1418121815831603178715CF30A9
:100E5C008316031399009A0183120313981718131E
:100E6C00181683160313981608000A128A110B27FA
:100E7C000A128A118312031307110330F9009730F9
:100E8C00F800F80B472FF90B472F4C2F01300A12A3
:100E9C008A11B6260A128A110A128A11C3260A125C
:100EAC008A118312031386000330F9009730F8007F
:100EBC00F80B5E2FF90B5E2F632F831203130715AC
:100ECC0007110330F9009730F800F80B6B2FF90B72
:100EDC006B2F702F02300A128A11B6260A128A1151
:100EEC000A128A11C3260A128A118312031388006C
:100EFC000330F9009730F800F80B822FF90B822F92
:100F0C00872F8312031307150A128A1193270A12CB
:100F1C008A11402F0A128A1100280230F70004307F
:100F2C00F600BA30F500F50B992FF60B992FF70B4D
:100F3C00992F000013300A128A11EC260A128A111A
:100F4C000230F7000430F600BA30F500F50BAC2F88
:100F5C00F60BAC2FF70BAC2F00000230F70004306F
:100F6C00F600BA30F500F50BB92FF60BB92FF70BCD
:100F7C00B92F000001300A128A11EC260A128A11CC
:100F8C000230F7000430F600BA30F500F50BCC2F28
:100F9C00F60BCC2FF70BCC2F000020300A128A1145
:100FAC00EC260A128A110230F7000430F600BA302F
:100FBC00F500F50BDF2FF60BDF2FF70BDF2F000003
:100FCC000230F7000430F600BA30F500F50BEC2FC8
:100FDC00F60BEC2FF70BEC2F000001300A128A11E4
:100FEC00EC260A128A110800FA01FB0183010A128D
:040FFC008A113B2FEC
:04400E00D420FF3F7C
:00000001FF
