:020000040000FA
:100000000A128A11FA2F00308A000408840A820733
:1000100000340D342D342D342D342D342D342D3425
:100020002D342D342D342D342D342D342D342D34C8
:100030002D340D3400340D34533465346E34733440
:100040006F347234203431343A3420340D34003477
:100050000D34533465346E3473346F347234203459
:0A00600032343A3420340D340034F9
:100D5600F000700883120313930008008316031330
:100D6600141CB62EB72EB12E08000A128A11B1260F
:100D76000A128A118312031313080800F000831263
:100D860003130C1EC72EC82EC22E70089900080029
:100D9600F300831603138712731DD22ED32ED72E7C
:100DA600720894008715DB2E700872049400871170
:100DB600730871048312031394000800F400703062
:100DC600F1007108F200ED2E73080A128A11C1268D
:100DD6000A128A110130F407FF30740784000A12E0
:100DE6008A1103200A128A11F1007108F3007308B0
:100DF600031DFE2EFF2EE72E08008316031788011B
:100E060089018316031307118711071287128601BA
:100E1600880183120313860188010715F001F10189
:100E2600F20120300A128A11CB260A128A11831681
:100E360003130F178F160F160F1418121815831693
:100E460003178715CF308316031399009A0183126F
:100E56000313981718131816831603139816080009
:100E66000A128A1100270A128A110A128A11932776
:100E76000A128A118312031307110330F9009730FF
:100E8600F800F80B442FF90B442F492F01300A12B2
:100E96008A11AB260A128A110A128A11B8260A1278
:100EA6008A11F8007808FB007B088312031386007A
:100EB6000330F9009730F800F80B5F2FF90B5F2F1E
:100EC600642F83120313071507110330F9009730B7
:100ED600F800F80B6C2FF90B6C2F712F02300A12E9
:100EE6008A11AB260A128A110A128A11B8260A1228
:100EF6008A11F8007808FA007A088312031388002A
:100F06000330F9009730F800F80B872FF90B872F7D
:100F16008C2F831203130715382F0A128A11002803
:100F26000230F7000430F600BA30F500F50B992FC1
:100F3600F60B992FF70B992F000013300A128A111E
:100F4600E1260A128A110230F7000430F600BA30A0
:100F5600F500F50BAC2FF60BAC2FF70BAC2F000002
:100F66000230F7000430F600BA30F500F50BB92F61
:100F7600F60BB92FF70BB92F000001300A128A11B0
:100F8600E1260A128A110230F7000430F600BA3060
:100F9600F500F50BCC2FF60BCC2FF70BCC2F000062
:100FA60020300A128A11E1260A128A110230F7004D
:100FB6000430F600BA30F500F50BDF2FF60BDF2F05
:100FC600F70BDF2F00000230F7000430F600BA30CE
:100FD600F500F50BEC2FF60BEC2FF70BEC2F0000C2
:100FE60001300A128A11E1260A128A110800FA0152
:0A0FF600FB0183010A128A11332F58
:04400E00D420FF3F7C
:00000001FF
