:020000040000FA
:100000000A128A11EF2F64008001840A0406031982
:10001000003404060428F000831203130C1E112878
:1000200012280C287008990008000230FC000430E7
:10003000FB00BA30FA00FA0B1B28FB0B1B28FC0B49
:100040001B2800001330F1008030F2000A168A11DC
:1000500047270A128A110230FC000430FB00BA3034
:10006000FA00FA0B3128FB0B3128FC0B3128000079
:10007000B230F1000030F2000A168A1147270A1246
:100080008A110230FC000430FB00BA30FA00FA0B8F
:100090004728FB0B4728FC0B472800000130F100E4
:1000A0008030F2000A168A1147270A128A1102309C
:1000B000FC000430FB00BA30FA00FA0B5D28FB0BA1
:1000C0005D28FC0B5D2800002030F1008030F2003C
:1000D0000A168A1147270A128A110230FC000430DE
:1000E000FB00BA30FA00FA0B7328FB0B7328FC0BE9
:1000F00073280000A830F1000030F2000A168A11BF
:1001000047270A128A110230FC000430FB00BA3083
:10011000FA00FA0B8928FB0B8928FC0B89280000C0
:100120000130F1008030F2000A168A1147270A12C6
:100130008A110800831203134F088039D400540831
:10014000D9004F08D4005407D5005508DF00CE1F52
:10015000AA28AB28AC285F145F080319B028B1287F
:10016000C0285F0A031DB528B628BE280030CF007E
:100170000030CE000030CD000030CC00CE17C828B3
:100180000030CF000030CE000030CD000030CC0079
:1001900053088039D4005408D9065308D4005407B2
:1001A000D5005508DE00D21FD628D728D8285E14DF
:1001B0005E080319DC28DD28EC285E0A031DE1280F
:1001C000E228EA280030D3000030D2000030D1000D
:1001D0000030D000D217F4280030D3000030D20015
:1001E0000030D1000030D0005E080319F828F9284B
:1001F000FE285F08031DFD28FE2807290030CF00D8
:100200000030CE000030CD000030CC00FA2B4C087E
:10021000D4005408F00052080A168A11C9260A129E
:100220008A11710883120313E5007008E400640862
:10023000D400D501D601D7015708DD005608DC00EF
:100240005508DB005408DA006508D400D501D60152
:10025000D7015708E3005608E2005508E1005408AA
:10026000E0004D08D4005408F00051080A168A1125
:10027000C9260A128A11710883120313E500700857
:10028000E4006408D400D501D601D7015408DA0788
:10029000550803110318013E03194F29DB075608BF
:1002A00003110318013E03195629DC0757080311EF
:1002B0000318013E03195D29DD076508D400D50147
:1002C000D601D7015408E007550803110318013E71
:1002D00003196B29E107560803110318013E03199E
:1002E0007229E207570803110318013E03197929FF
:1002F000E3074E08D4005408F00050080A168A118B
:10030000C9260A128A11710883120313E5007008C6
:10031000E4006408D400D501D601D7015408DA07F7
:10032000550803110318013E03199729DB075608E6
:1003300003110318013E03199E29DC075708031116
:100340000318013E0319A529DD076508D400D5016E
:10035000D601D7015408E007550803110318013EE0
:100360000319B329E107560803110318013E0319C5
:10037000BA29E207570803110318013E0319C129DE
:10038000E3070830D4000310DA0DDB0DDC0DDD0DC2
:10039000D40BC3294D08D4005408F00050080A16A5
:1003A0008A11C9260A128A11710883120313E50003
:1003B0007008E4006408D4006508D500D601D701B0
:1003C0005408DA07550803110318013E0319E929F7
:1003D000DB07560803110318013E0319F029DC0757
:1003E000570803110318013E0319F729DD074C08CC
:1003F000D4005408F00051080A168A11C9260A12BE
:100400008A11710883120313E5007008E400640880
:10041000D4006508D500D601D7015408DA0755087D
:1004200003110318013E0319162ADB0756080311AE
:100430000318013E03191D2ADC075708031103188E
:10044000013E0319242ADD070830D4000310DA0D19
:10045000DB0DDC0DDD0DD40B262A4C08D40054082E
:10046000F00050080A168A11C9260A128A1171086A
:1004700083120313E5007008E4006408D4006508E3
:10048000D500D601D7015408DA075508031103181F
:10049000013E03194C2ADB07560803110318013EDD
:1004A0000319532ADC07570803110318013E0319E7
:1004B0005A2ADD074D08D4005408F00052080A16E5
:1004C0008A11C9260A128A11710883120313E500E2
:1004D0007008E4006408D4006508D500D601D7018F
:1004E0005408E007550803110318013E0319792A3F
:1004F000E107560803110318013E0319802AE20799
:10050000570803110318013E0319872AE3074E0811
:10051000D4005408F00051080A168A11C9260A129C
:100520008A11710883120313E5007008E40064085F
:10053000D4006508D500D601D7015408E007550856
:1005400003110318013E0319A62AE10756080311F7
:100550000318013E0319AD2AE207570803110318D7
:10056000013E0319B42AE3074E08D4005408F000F2
:1005700052080A168A11C9260A128A1171088312B2
:100580000313E5007008E4006408D4006508D50092
:10059000D601D70108300310D40DD50DD60DD70DD7
:1005A000FF3E031DCB2A5408E0075508031103182A
:1005B000013E0319DC2AE107560803110318013E26
:1005C0000319E32AE207570803110318013E031930
:1005D000EA2AE3075A08D4005B08D5005C08D60075
:1005E0005D08D70018300310D70CD60CD50CD40CEE
:1005F000FF3E031DF32A5408E007550803110318B2
:10060000013E0319042BE107560803110318013EAC
:1006100003190B2BE207570803110318013E0319B6
:10062000122BE3070830D4000310DA0DDB0DDC0DCC
:10063000DD0DD40B142B5F085E07D400D501D50D5A
:100640005408823EE40055080318013EFF3EE500D1
:10065000462B0130D4000310E00DE10DE20DE30D57
:10066000D40B2B2BDD1F352B362B372B6014013091
:10067000D4000310DA0DDB0DDC0DDD0DD40B392BAE
:10068000FF30E4070318E50AFF30E507E21F492BB6
:100690004A2B292BDE01DD1F4E2B4F2B6B2BFF30FE
:1006A0005A05D400FF305B05D500FF305C05D6004D
:1006B0007F305D05D70057085604550454040319CC
:1006C000622B632B662BDE01DE0A6B2B601C692B11
:1006D0006A2B6B2B632B5E0803196F2B702BA12BDE
:1006E0000130E007003003180130E1070030031843
:1006F0000130E207003003180130E307631C812B4F
:10070000822BA12B6008D4006108D5006208D600B6
:100710006308D7000130D800570DD70CD60CD50C84
:10072000D40CD80B8C2B5708E3005608E200550870
:10073000E1005408E0000130E4070318E50A003046
:10074000E5076508803AFF0080307F02031DAA2B71
:10075000FF306402031CAD2BAE2BB92B7F3083120C
:100760000313E3008030E2000030E1000030E000DD
:10077000EE2B831203136508803AFF0080307F025E
:10078000031DC42B013064020318C72BC82BD42BC4
:10079000003083120313E3000030E2000030E10078
:1007A0000030E000D901EE2B831203136408D4005B
:1007B0005408DF00FF30E005FF30E1057F30E2053F
:1007C0000030E3055F1CE52BE62BE72BE2175F0803
:1007D000D4000310540CD5005508E3005908D40088
:1007E0005408E3046308CF006208CE006108CD001E
:1007F0006008CC00080083160313C00083120313A3
:100800006908F3006808F2006708F1006608F00064
:100810000A128A1521200A128A11710883160313FD
:10082000BD007008BC00C701C801C501C601013088
:10083000C9000030CA00831203136908F300680876
:10084000F2006708F1006608F0000030F7000030A1
:10085000F6000030F5000030F4000A128A159B20E3
:100860000A128A110318352C362C842CBF308312BF
:100870000313CF008030CE000030CD000030CC001C
:100880006908D3006808D2006708D1006608D00064
:100890000A128A119A200A128A11831203134F082E
:1008A000E9004E08E8004D08E7004C08E6002D304E
:1008B000EC008316031340088400831203136C08B2
:1008C00083138000013083160313C5070318C60A7B
:1008D0000030C607842C0A30F0000030F1003D08DB
:1008E000F3003C08F2000A168A1199270A128A11AD
:1008F000710883160313BD007008BC000130C707E0
:100900000318C80A0030C807831603133C083D04C7
:10091000031D8B2C8C2C6B2CA82D47034804031D26
:10092000922C932C982C0130C9000030CA00DA2C8C
:100930000230BE000030BF00C42C831603134A08E7
:1009400083120313A10083160313490883120313B0
:10095000A0000A30A2000030A3000A168A11F02677
:100960000A128A1183120313210883160313CA0083
:1009700083120313200883160313C9000130BE0736
:100980000318BF0A0030BF074808803A83120313D8
:10099000EC00831603133F08803A831203136C02A2
:1009A000031DD62C831603133E0847020318D92CC7
:1009B000DA2C9D2C83160313490883120313A40019
:1009C000831603134A0883120313A5000030A51BE6
:1009D000FF30A600A70001300A128A153D210A1235
:1009E0008A11831203132708B5002608B4002508CE
:1009F000B3002408B2006908B9006808B8006708A5
:100A0000B7006608B6000A128A158B230A128A11EB
:100A100083120313350883160313C40083120313D0
:100A2000340883160313C300831203133308831699
:100A30000313C20083120313320883160313C10089
:100A40004A0883120313A300831603134908831271
:100A50000313A200831603134408F3004308F200B3
:100A60004208F1004108F0000A128A1521200A12FA
:100A70008A11710883120313A1007008A0000A16DE
:100A80008A11F0260A128A11831203132008A40087
:100A90002108A5000030A51BFF30A600A7000130EB
:100AA0000A128A153D210A128A118312031327089C
:100AB000B5002608B4002508B3002408B200690870
:100AC000B9006808B8006708B7006608B6000A16DB
:100AD0008A11A5260A128A11831203133508E90028
:100AE0003408E8003308E7003208E60083160313F1
:100AF0004408F3004308F2004208F1004108F00006
:100B00000A128A1521200A128A117008303E8312B7
:100B10000313EC00831603134508400783120313E5
:100B2000ED006D0884006C0883138000013083168B
:100B30000313C5070318C60A0030C607FF30C707EE
:100B40000318C80AFF30C8070130C9000030CA00C6
:100B500047084804031DAD2DAE2D8D2C2E30831279
:100B60000313EC0083160313450840078312031395
:100B7000ED006D0884006C0883138000013083163B
:100B80000313C5070318C60A0030C6070130BE00AC
:100B90000030BF00F22D831603134A08831203139B
:100BA000A10083160313490883120313A0000A301F
:100BB000A2000030A3000A168A11F0260A128A1138
:100BC00083120313210883160313CA00831203132D
:100BD000200883160313C9000130BE070318BF0A9B
:100BE0000030BF07831203136B08803AEC008316B2
:100BF00003133F08803A831203136C02031D062E71
:100C0000831603133E08831203136A020318092E86
:100C10000A2ECB2D83160313490883120313A40055
:100C2000831603134A0883120313A5000030A51B83
:100C3000FF30A600A70001300A128A153D210A12D2
:100C40008A11831203132708CF002608CE00250837
:100C5000CD002408CC006908F3006808F20067089A
:100C6000F1006608F0000A128A1521200A128A1182
:100C7000700883120313A4007108A5000030A51B9F
:100C8000FF30A600A70001300A128A153D210A1282
:100C90008A11831203132708B5002608B40025081B
:100CA000B3002408B2006908B9006808B8006708F2
:100CB000B7006608B6000A168A11A5260A128A111C
:100CC000831203133508D3003408D2003308D1004F
:100CD0003208D0000A128A119A200A128A1183124D
:100CE00003134F0883160313C400831203134E0823
:100CF00083160313C300831203134D0883160313D3
:100D0000C200831203134C0883160313C100440866
:100D100083120313E900831603134308831203139A
:100D2000E80083160313420883120313E7008316B7
:100D30000313410883120313E6006908F3006808EF
:100D4000F2006708F1006608F0000A128A152120F7
:100D50000A128A11013083160313C9000030CA0039
:100D6000831203136B0883160313C8008312031343
:100D70006A0883160313C700D82F47034804031DCE
:100D8000C22EC32EC82E0130C9000030CA000A2F5F
:100D90000230BE000030BF00F42E831603134A0851
:100DA00083120313A100831603134908831203134C
:100DB000A0000A30A2000030A3000A168A11F02613
:100DC0000A128A1183120313210883160313CA001F
:100DD00083120313200883160313C9000130BE07D2
:100DE0000318BF0A0030BF074808803A8312031374
:100DF000EC00831603133F08803A831203136C023E
:100E0000031D062F831603133E0847020318092FFC
:100E10000A2FCD2E83160313490883120313A4004F
:100E2000831603134A0883120313A5000030A51B81
:100E3000FF30A600A70001300A128A153D210A12D0
:100E40008A11831203132708B5002608B400250869
:100E5000B3002408B2006908B9006808B800670840
:100E6000B7006608B6000A128A158B230A128A1187
:100E700083120313350883160313C400831203136C
:100E8000340883160313C300831203133308831635
:100E90000313C20083120313320883160313C10025
:100EA0004A0883120313A30083160313490883120D
:100EB0000313A200831603134408F3004308F2004F
:100EC0004208F1004108F0000A128A1521200A1296
:100ED0008A11710883120313A1007008A0000A167A
:100EE0008A11F0260A128A11831203132008A40023
:100EF0002108A5000030A51BFF30A600A700013087
:100F00000A128A153D210A128A1183120313270837
:100F1000B5002608B4002508B3002408B20069080B
:100F2000B9006808B8006708B7006608B6000A1676
:100F30008A11A5260A128A11831203133508E900C3
:100F40003408E8003308E7003208E600831603138C
:100F50004408F3004308F2004208F1004108F000A1
:100F60000A128A1521200A128A117008303E831253
:100F70000313EC0083160313450840078312031381
:100F8000ED006D0884006C08831380000130831627
:100F90000313C5070318C60A0030C607FF30C7078A
:100FA0000318C80AFF30C8070130C9000030CA0062
:100FB00047084804031DDD2FDE2FBD2E0A308312A3
:100FC0000313EC0083160313450840078312031331
:100FD000ED006D0884006C08831380000800FD019B
:100FE00083120313EE018313A0308400BC300A1275
:100FF0008A1103200A128A1183010A128A15F9291B
:101004000A168A119E260A128A15831203131308DC
:101014000800F300831603138712731D1228132884
:1010240017287208940087151B287008720494000E
:1010340087117308710483120313940008000310CA
:10104400720D730DF4007408FA007A08031D2B283E
:101054002C2835280030F3000030F2000030F10075
:101064000030F0009A287008F4007108F500720846
:10107400F6007308F7001F300310F70CF60CF50C9C
:10108400F40CFF3E031D3E287408F8007808F900AC
:10109400F217FF30F005FF30F105FF30F2050030A4
:1010A400F3059630FA02FA1F5828592873287A084B
:1010B400803A973E03185F28602861282C28013065
:1010C4000310F30CF20CF10CF00CFF3E031D62282C
:1010D4000130F4007408FA07031D7128722861288E
:1010E4008A2820307A02031C7828792885282C281D
:1010F4000130F4000310F00DF10DF20DF30DF40BBB
:101104007C280130FA027A08031D89288A287A2863
:10111400790803198E288F289A28F009F109F20911
:10112400F309F00A0319F10A0319F20A0319F30A7D
:10113400080000307005F80000307105F9008030B7
:101144007205FA007F307305FB007B087A0479048A
:101154007804031DAE28AF28B7280030F300003010
:10116400F2000030F1000030F00000307405F800A7
:1011740000307505F90080307605FA007F30770578
:10118400FB007B087A0479047804031DCA28CB2861
:10119400D3280030F7000030F6000030F5000030AE
:1011A400F400F31FD628D728FB280030F8000030BD
:1011B400F9000030FA008030FB007008F802710872
:1011C400031C710FE628E728F9027208031C720F4A
:1011D400EC28ED28FA027308031C730FF228F32895
:1011E400FB027B08F3007A08F2007908F100780822
:1011F400F000F71FFE28FF2823290030F8000030F4
:10120400F9000030FA008030FB007408F802750819
:10121400031C750F0E290F29F9027608031C760F9B
:1012240014291529FA027708031C770F1A291B2998
:10123400FB027B08F7007A08F6007908F5007808C5
:10124400F4008030F3068030F70677087302031D3C
:10125400352976087202031D352975087102031DAC
:101264003529740870020318382939293B290310D9
:101274003C290314080083120313AC002C0803193F
:10128400442945295929A71F4829492959292409A5
:10129400AE002509AF002609B0002709B100AE0A47
:1012A4000319AF0A0319B00A0319B10A61292708FF
:1012B400B1002608B0002508AF002408AE002708B6
:1012C400260425042404031D682969297229003091
:1012D400A7000030A6000030A5000030A400F829C3
:1012E4009630A8002808AD0084290130A8002808F9
:1012F400AD0701300310B10CB00CAF0CAE0CFF3EC7
:10130400031D7C29FE303105031D89298A2977298B
:10131400A6290130A8002808AD070130AE07003027
:1013240003180130AF07003003180130B007003054
:1013340003180130B10701300310B10CB00CAF0C2D
:10134400AE0CFF3E031D9E29FF303105031DAB2962
:10135400AC298B29B8290130AD020130A800031053
:10136400AE0DAF0DB00DB10DA80BB129B01BBB294B
:10137400BC29C22902302D020318C129C229AD2972
:101384002D18C529C629CE29FF30AE05FF30AF057B
:101394007F30B005FF30B1050310AD0C2D08A80057
:1013A400A901AA01AB0118300310A80DA90DAA0DBB
:1013B400AB0DFF3E031DD6292808AE042908AF044F
:1013C4002A08B0042B08B1042C080319EA29EB29D4
:1013D400F029A71FEE29EF29F029B1173108A7003A
:1013E4003008A6002F08A5002E08A40008000A163D
:1013F4008A1117270A128A1583120313071103305F
:1014040083160313CC009730CB00CB0B072ACC0BED
:10141400072A01300A168A1198260A128A150A1216
:101424008A1502200A128A158312031386000608FD
:1014340083160313CB004B08FD00033083160313FC
:10144400CC009730CB00CB0B252ACC0B252A83125A
:10145400031307150711033083160313CC009730C9
:10146400CB00CB0B332ACC0B332A02300A168A1159
:1014740098260A128A150A128A1502200A128A1557
:10148400831203138800080883160313CB004B0848
:1014940083120313EE00033083160313CC0097303A
:1014A400CB00CB0B532ACC0B532A831203130715FF
:1014B400003083160313A7000030A6000030A500F7
:1014C4000030A4000030A3000030A2000030A100CE
:1014D4000030A000403083120313CF00A030CE00B0
:1014E4000030CD000030CC004330B5007F30B40074
:1014F4000030B3000030B2007D0883160313CB0024
:10150400CC01CD01CE014E0883120313A70083162C
:1015140003134D0883120313A600831603134C0808
:1015240083120313A500831603134B0883120313BA
:10153400A40001300A128A153D210A128A15831269
:1015440003132708B9002608B8002508B7002408A3
:10155400B6000A128A158B230A128A158312031302
:101564003508D3003408D2003308D1003208D00043
:101574000A128A119A200A128A15831203134F0839
:1015840083160313A700831203134E088316031351
:10159400A600831203134D0883160313A5008312B8
:1015A40003134C0883160313A400270883120313A0
:1015B400E90083160313260883120313E800831635
:1015C4000313250883120313E70083160313240867
:1015D40083120313E6000230EA000030EB00B2305D
:1015E4000A128A11FB230A128A154030831203134C
:1015F400CF00A030CE000030CD000030CC0043300E
:10160400B5007F30B4000030B3000030B2006E0883
:1016140083160313CB00CC01CD01CE014E088312F7
:101624000313A700831603134D0883120313A600A4
:10163400831603134C0883120313A50083160313A4
:101644004B0883120313A40001300A128A153D21AA
:101654000A128A15831203132708B9002608B80052
:101664002508B7002408B6000A128A158B230A122B
:101674008A15831203133508D3003408D2003308C3
:10168400D1003208D0000A128A119A200A128A154F
:10169400831203134F0883160313A3008312031347
:1016A4004E0883160313A200831203134D088316F6
:1016B4000313A100831203134C0883160313A00021
:1016C400230883120313E9008316031322088312E9
:1016D4000313E80083160313210883120313E7009E
:1016E40083160313200883120313E6000230EA0072
:1016F4000030EB00A8300A128A11FB230A128A1563
:101704000A128A1115200A128A15FE290A128A1150
:1017140000288312031339088039BA003A08C30039
:101724003908BA003A07BB003B08CA00B81F9B2B14
:101734009C2B9D2B4A144A080319A12BA22BB22BD4
:101744004A0A031DA62BA72BAF2B0030B90000308B
:10175400B8000030B7000030B600B817B901BA2B92
:101764000030B9000030B8000030B7000030B600D7
:1017740035088039BA003A08C3063508BA003A0772
:10178400BB003B08CB00B41FC82BC92BCA2B4B147E
:101794004B080319CE2BCF2BDF2B4B0A031DD32B66
:1017A400D42BDC2B0030B5000030B4000030B30083
:1017B4000030B200B417B501E72B0030B50000309B
:1017C400B4000030B3000030B200350834043304F0
:1017D4003204031DEE2BEF2B082C0030B90000302F
:1017E400B8000030B7000030B6008030B8047F3055
:1017F400B9044308BA003A08B9043908B5003808EE
:10180400B4003708B3003608B200672D4A08031D38
:101814000C2C0D2C162C0030B5000030B400003018
:10182400B3000030B200672D4A08BA00BB013B0880
:10183400BD004B083A02BC00031CBD033C087F3EBC
:10184400C4003D080318013E003EC5003908C2002B
:101854003808C1003708C0003608BF000030B9009E
:101864000030B8000030B7000030B6000030C900C6
:101874000030C8000030C7000030C600CB018C2CFB
:101884004B080319462C472C672C0130BA0003106F
:10189400BF0DC00DC10DC20DBA0B492C0130BA00E9
:1018A4000310B60DB70DB80DB90DBA0B522CC91FE4
:1018B4005C2C5D2C5E2C36140130BA000310C60D6E
:1018C400C70DC80DC90DBA0B602C35084202031DA3
:1018D400752C34084102031D752C33084002031D86
:1018E400752C32083F02031C782C792C882C49175C
:1018F4003208BF023308031C330FC0023408031C30
:10190400340FC1023508031C350FC2020130BA007E
:101914003A08CB071A304B02031C912C922C422C10
:101924004208410440043F040319992C9A2CB92C11
:101934004614B92C0130BA000310B60DB70DB80D1A
:10194400B90DBA0B9E2CC91FA82CA92CAA2C36148D
:101954000130BA000310C60DC70DC80DC90DBA0B6E
:10196400AC2CFF30C4070318C50AFF30C507B81FE5
:10197400BC2CBD2C9C2CCB01C91FC12CC22CDE2C31
:10198400FF304605BA00FF304705BB00FF3048056D
:10199400BC007F304905BD003D083C043B043A04CB
:1019A4000319D52CD62CD92CCB01CB0ADE2C361C12
:1019B400DC2CDD2CDE2CD62C4B080319E22CE32C7A
:1019C400142D0130B607003003180130B70700307A
:1019D40003180130B807003003180130B907391C67
:1019E400F42CF52C142D3608BA003708BB0038083F
:1019F400BC003908BD000130BE003D0DBD0CBC0C5F
:101A0400BB0CBA0CBE0BFF2C3D08B9003C08B80057
:101A14003B08B7003A08B6000130C4070318C50AEA
:101A24000030C5074508803AFF0080307F02031D5F
:101A34001D2DFF304402031C202D212D2F2DFF309E
:101A440083120313C4000030C5000030B900003015
:101A5400B8000030B7000030B60083120313450805
:101A6400803AFF0080307F02031D3A2D013044028A
:101A740003183D2D3E2D4B2D83120313C401C501C4
:101A84000030B9000030B8000030B7000030B600B4
:101A9400C301831203134408BA003A08CA004A1C5B
:101AA400542D552D572DB8175B2D7F30BA003A08A9
:101AB400B8054A08BA0003103A0CBB003B08B90049
:101AC4004308BA003A08B904FF2B080073088039A8
:101AD40083120313A0002008F8007308A000200755
:101AE400A1002108FA00F21F782D792D7A2D7A149D
:101AF4007A0803197E2D7F2D8F2D7A0A031D832DDD
:101B0400842D8C2D0030F3000030F2000030F10001
:101B14000030F000F217F301972D0030F30000308D
:101B2400F2000030F1000030F00077088039A000A6
:101B34002008F900790878060319A12DA22DA32DF8
:101B440078177708A0002007A1002108F900F61FE4
:101B5400AC2DAD2DAE2D791479080319B22DB32D0A
:101B6400C32D790A031DB72DB82DC02D0030F70001
:101B74000030F6000030F5000030F400F617F701ED
:101B8400CB2D0030F7000030F6000030F5000030B7
:101B9400F4007A0879020318D02DD12D152E781F60
:101BA400D42DD52DD92D8030A0002008F8067A0830
:101BB400A0002008FB007908A0002008FA007B0898
:101BC400A0002008F9007008A0002008FB00740899
:101BD400A0002008F0007B08A0002008F400710891
:101BE400A0002008FB007508A0002008F1007B0875
:101BF400A0002008F5007208A0002008FB00760869
:101C0400A0002008F2007B08A0002008F60073085A
:101C1400A0002008FB007708A0002008F3007B0840
:101C2400A0002008F700FB017908A000A101210809
:101C3400A3007A082002A200031CA3032308803A0D
:101C4400FF0080307F02031D292E1A302202031C5C
:101C54002C2E2D2E6E2E7308720471047004031D35
:101C6400342E362E0130372E003083120313A00099
:101C74002008FB000030F3000030F2000030F100D7
:101C84000030F0007908A0002008FA00742E7B1CB4
:101C94004C2E4D2E582E7B0883120313A0000310E4
:101CA400200C0138A1002108FB005A2E0310FB0C64
:101CB400701C5D2E5E2E5F2EFB1701308312031302
:101CC400A000730DF30CF20CF10CF00CA00B632EBE
:101CD4000130A0002008FA0779087A02031C732E49
:101CE400742E492E781B772E782EC72E7A08031D62
:101CF4007C2E7D2E862E0030F3000030F200003062
:101D0400F1000030F000FF2F7408F007750803118C
:101D14000318013E03198F2EF107760803110318E7
:101D2400013E0319962EF207770803110318013EAA
:101D340003199D2EF307731CA02EA12E7F2F7B1C4D
:101D4400A42EA52EB02E7B0883120313A00003102B
:101D5400200C0138A1002108FB00B22E0310FB0C5B
:101D6400701CB52EB62EB72EFB1701308312031349
:101D7400A000730DF30CF20CF10CF00CA00BBB2EB5
:101D84000130A0002008FA077F2F7308803AFF0073
:101D94007708803A7F02031DD92E76087202031D4C
:101DA400D92E75087102031DD92E74087002031808
:101DB400DC2EDD2E372FFF3083120313A000FF30FB
:101DC400A100FF30A200FF30A3007408A40075082E
:101DD400A5007608A6007708A7007008A402710879
:101DE400031C710FF62EF72EA5027208031C720F46
:101DF400FC2EFD2EA6027308031C730F022F032F63
:101E0400A7022408A00725080318250F0A2F0B2F63
:101E1400A10726080318260F102F112FA207270841
:101E24000318270AA3072308F3002208F200210855
:101E3400F1002008F0008030A0002008F806FB091B
:101E4400FB0A7B08031D272F282F452F0130F0079D
:101E5400003003180130F107003003180130F20795
:101E6400003003180130F307452F7408F002750899
:101E7400031C750FF1027608031C760FF202770833
:101E8400031C770FF3027308720471047004031DBA
:101E94004C2F4D2F7B2F7B08031D512F522F7B2F4F
:101EA4000030F3000030F2000030F1000030F000A8
:101EB400FF2F013083120313A0000310F00DF10D66
:101EC400F20DF30DA00B5F2FFB1F692F6A2F6B2FF1
:101ED40070147B1C6E2F6F2F722F0314FB0D742F45
:101EE4000310FB0D7A080319782F792F7B2F01300B
:101EF400FA02F21F7E2F7F2F5B2FF901FB1F832F26
:101F0400842F922F7B087F390319892F8A2F8D2FD5
:101F1400F901F90A922F701C902F912F922F8A2F7A
:101F240079080319962F972FCD2F0130F007003031
:101F340003180130F107003003180130F2070030B4
:101F440003180130F307731CA82FA92FCD2F700895
:101F540083120313A0007108A1007208A200730881
:101F6400A3000130A400230DA30CA20CA10CA00C0F
:101F7400A40BB52F2308F3002208F2002108F10076
:101F84002008F0007A0A0319C82FC92FCD2F013079
:101F9400A0002008FA077A0A0319D12FD22FD72FCD
:101FA4007A08031DD62FD72FE52F0030F300003019
:101FB400F2000030F1000030F0007A08031DE32F36
:101FC400E42FE52FF8017A1CE82FE92FEB2FF21705
:101FD400F12F7F3083120313A0002008F2057A0842
:101FE40083120313A0000310200CA1002108F300A6
:101FF400F81FFD2FFE2FFF2FF3170800FF1B0A28E1
:1020040083137F1883170008840A0319FF0A080042
:1020140010308A000408840A820700340D342D34F9
:102024002D342D342D342D342D342D342D342D34A4
:102034002D342D342D342D342D342D340D340034E1
:102044000D34533465346E3473346F347234203445
:1020540031343A3420340D3400340D34533465347F
:102064006E3473346F347234203432343A3420345E
:042074000D340034F3
:102D3000F000700883120313930008008316031336
:102D4000141CA32EA42E9E2E080080308312031381
:102D5000B5063908F3003808F2003708F1003608E4
:102D6000F0003508F7003408F6003308F5003208A3
:102D7000F4000A128A1568250A168A11730883124C
:102D80000313B5007208B4007108B3007008B200F4
:102D90000800F800F401F5017008F200F301720870
:102DA000F6007308F700781CD62ED72EDD2E760895
:102DB000F4070318F50A7708F50701300310F60D3C
:102DC000F70DFF3E031DDE2E0310F80C7808031DDF
:102DD000EA2EEB2ED32E7508F1007408F0000800DF
:102DE000FB01FC0183120313201CF72EF82EFE2E8C
:102DF0002208FB070318FC0A2308FC070130031014
:102E0000A20DA30DFF3E031DFF2E01300310A10CE8
:102E1000A00CFF3E031D062F20082104031D112FC7
:102E2000122FF22E7C08A1007B08A0000800831658
:102E3000031788018901831603130711860188018E
:102E400083120313860188010715F001F101F201D5
:102E500020300A128A150B200A168A1183160313D2
:102E60000F178F160F160F14181218158316031745
:102E70008715CF308316031399009A018312031329
:102E80009817181318168316031398160800733032
:102E9000F3007308F7007E2F253079060319512FB0
:102EA000522F592F79080A128A110B200A168A11FB
:102EB0007E2F612F79080A128A110B200A168A11B7
:102EC0007E2F7208F4007108F300F10A0319F20A68
:102ED0007408FF00730884000A168A1100200A167D
:102EE0008A11F900F500F6017608003A0319792FE6
:102EF0005A2F7508003A0319982F5A2F7208F400B8
:102F00007108F300F10A0319F20A7408831203131B
:102F1000FF00730884000A168A1100200A168A111D
:102F2000F5007508F9007908031D972F982F4C2F8D
:102F30000800F601F11F9D2F9E2FA52FF009F10922
:102F4000F00A0319F10AF601F60AF31FA82FA92FB8
:102F5000B22FF209F309F20A0319F30A0130F4005F
:102F60007408F606F701F801700871040319B92F07
:102F7000BA2FF12FF501F50AC82F01300310F00D1B
:102F8000F10DFF3E031DBE2F0130F4007408F5075C
:102F9000F11FCB2FCC2FBD2F01300310F70DF80DF3
:102FA000FF3E031DCD2F71087302031DD92F70083A
:102FB0007202031CDC2FDD2FE42F7008F20271086F
:102FC000031CF303F302771401300310F10CF00C2F
:102FD000FF3E031DE52F0130F502031DF02FF12FF9
:102FE000CC2F76080319F52FF62FFB2FF709F809D8
:102FF000F70A0319F80A7808F1007708F0000800CA
:04400E00D420FF3F7C
:00000001FF
