:020000040000FA
:060000000A128A110C280F
:10000800FE00030EF1000A08F2000A128A111728EE
:100018000A128A110F28F601F701F801F901830184
:100028000A128A11D628831203138C1D1C281D2836
:1000380075281412141B212822282628941F2528E5
:1000480026282D281308F0007008F90014139413BB
:10005800141683160313941A3228332851281419B6
:10006800362837285128831203131308F000700824
:10007800F9008C11141683160313141C4428452800
:100088003F28831203131308F0007008F600A63007
:10009800F000F00B4D2800007228941A54285528B7
:1000A8007228141D5828592872288312031313081C
:1000B800F0007008F90083160313141077088312F0
:1000C800031393001416A630F000F00B6928000003
:1000D800831603131418712872286C2883120313CB
:1000E8008C110C1F782879287E281E08F0007008CB
:1000F800F7000C1372088A00710E8300FE0E7E0E44
:10010800090001308316031788008901013083161E
:100118000313850086018801831203138601880171
:1001280050300A128A11BC200A128A11831603134E
:100138000F178F160F160F149F131F129F1283127B
:1001480003139F17C3309F058530F400F40BAA28CA
:10015800831203131F148530F400F40BB1288B1796
:100168000B17831603130C17831203138C12080042
:10017800F3007308831603139300363083120313B6
:100188009400803083160313940001309100871582
:1001980007168B170B17831203138C11831603137F
:1001A8008C1508000A128A1185200A128A118312F6
:1001B80003139F18E028E128DB288530F500F50BAC
:1001C800E328831203139F14DB280A128A110C28D0
:04400E00D620FF3F7A
:00000001FF
