:020000040000FA
:060000000A128A11FC2F18
:100D60000A128A11CC260A128A118316031311144F
:100D700008000A128A11CC260A128A11831603135C
:100D8000111508000A128A11CC260A128A1170085D
:100D90008312031393000800831603131419D12E32
:100DA000D22ECC2E11081F39031DD72ED82ECC2EB3
:100DB000080083160317880189018316031386012F
:100DC000880183120313860188010030A3000130DB
:100DD000A2008630A100A030A0000A128A115E276E
:100DE0000A128A11831603130F178F160F160F148A
:100DF00008000A128A11CC260A128A1183160313DC
:100E000091150A128A11CC260A128A118312031331
:100E10001308F200F3017208F4007308F5000A12D7
:100E20008A11CC260A128A1170037104031D192F2E
:100E30001A2F1E2F831603139112212F83160313CB
:100E4000911611167508F1007408F00008000A12D6
:100E50008A11D9260A128A110A128A11B0260A1298
:100E60008A115130F0000030F1000A128A11C226B6
:100E70000A128A110030F000F1000A128A11F926D4
:100E80000A128A1170088312031388000A128A1149
:100E9000B9260A128A11033083120313AA000830FC
:100EA000A9007630A800A80B532FA90B532FAA0B2B
:100EB000532F00002C2F0A128A1100282830831289
:100EC0000313940083160313910183120313200864
:100ED000A4002108A5002208A6002308A7000230CC
:100EE0000310A40DA50DA60DA70DFF3E031D702F29
:100EF0002708F3002608F2002508F1002408F00076
:100F00000030F7007A30F6001230F5000030F400BF
:100F10000A128A1196270A128A117008FF3E831658
:100F20000313930094018715071608000030FC0096
:100F30000030FB000030FA000030F9007308720442
:100F4000710470040319A52FA62FF32FFD01FD0ACC
:100F5000B62F0130F8000310F00DF10DF20DF30D76
:100F6000F80BAB2F0130F8007808FD07F31FB92FFD
:100F7000BA2FA92F0130F8000310F90DFA0DFB0D5F
:100F8000FC0DF80BBC2F73087702031DD12F7208DC
:100F90007602031DD12F71087502031DD12F700831
:100FA0007402031CD42FD52FE42F7008F4027108AB
:100FB000031C710FF5027208031C720FF60273080E
:100FC000031C730FF702791401300310F30CF20CB9
:100FD000F10CF00CFF3E031DE52F0130FD02031D57
:100FE000F22FF32FBA2F7C08F3007B08F2007A0867
:100FF000F1007908F000080083010A128A11272FF6
:04400E00D620FF3F7A
:00000001FF
