:020000040000FA
:060000000A128A11EF2F25
:10000C00F30083120313071073080A168A1186244F
:10001C000A128A118312031387140630F20030304F
:10002C00F100F10B1728F20B1728000083120313B1
:10003C00871008000310720D730DF4007408FA0099
:10004C007A08031D2A282B2834280030F3000030AE
:10005C00F2000030F1000030F00099287008F40034
:10006C007108F5007208F6007308F7001F300310D2
:10007C00F70CF60CF50CF40CFF3E031D3D28740830
:10008C00F8007808F900F217FF30F005FF30F105A1
:10009C00FF30F2050030F3059630FA02FA1F5728AC
:1000AC00582872287A08803A973E03185E285F28F1
:1000BC0060282B2801300310F30CF20CF10CF00C1F
:1000CC00FF3E031D61280130F4007408FA07031D7C
:1000DC00702871286028892820307A02031C772820
:1000EC00782884282B280130F4000310F00DF10D32
:1000FC00F20DF30DF40B7B280130FA027A08031D84
:10010C00882889287928790803198D288E28992818
:10011C00F009F109F209F309F00A0319F10A0319BC
:10012C00F20A0319F30A0800831203134F088039EB
:10013C00D4005408D9004F08D4005407D5005508F2
:10014C00DF00CE1FAA28AB28AC285F145F08031968
:10015C00B028B128C0285F0A031DB528B628BE28D0
:10016C000030CF000030CE000030CD000030CC008D
:10017C00CE17C8280030CF000030CE000030CD00A4
:10018C000030CC0053088039D4005408D9065308E9
:10019C00D4005407D5005508DE00D21FD628D72826
:1001AC00D8285E145E080319DC28DD28EC285E0ACA
:1001BC00031DE128E228EA280030D3000030D200E9
:1001CC000030D1000030D000D217F4280030D3001A
:1001DC000030D2000030D1000030D0005E0803198E
:1001EC00F828F928FE285F08031DFD28FE2807299A
:1001FC000030CF000030CE000030CD000030CC00FD
:10020C00FA2B4C08D4005408F00052080A168A1134
:10021C003C250A128A11710883120313E500700839
:10022C00E4006408D400D501D601D7015708DD00DD
:10023C005608DC005508DB005408DA006508D400C9
:10024C00D501D601D7015708E3005608E20055083E
:10025C00E1005408E0004D08D4005408F0005108A7
:10026C000A168A113C250A128A117108831203138B
:10027C00E5007008E4006408D400D501D601D7016C
:10028C005408DA07550803110318013E03194F29C6
:10029C00DB07560803110318013E03195629DC0726
:1002AC00570803110318013E03195D29DD07650882
:1002BC00D400D501D601D7015408E0075508031125
:1002CC000318013E03196B29E107560803110318A3
:1002DC00013E03197229E207570803110318013E66
:1002EC0003197929E3074E08D4005408F00050088C
:1002FC000A168A113C250A128A11710883120313FB
:10030C00E5007008E4006408D400D501D601D701DB
:10031C005408DA07550803110318013E03199729ED
:10032C00DB07560803110318013E03199E29DC074D
:10033C00570803110318013E0319A529DD076508A9
:10034C00D400D501D601D7015408E0075508031194
:10035C000318013E0319B329E107560803110318CA
:10036C00013E0319BA29E207570803110318013E8D
:10037C000319C129E3070830D4000310DA0DDB0D93
:10038C00DC0DDD0DD40BC3294D08D4005408F0004E
:10039C0050080A168A113C250A128A117108831218
:1003AC000313E5007008E4006408D4006508D50068
:1003BC00D601D7015408DA07550803110318013E7A
:1003CC000319E929DB07560803110318013E031929
:1003DC00F029DC07570803110318013E0319F7290C
:1003EC00DD074C08D4005408F00051080A168A1195
:1003FC003C250A128A11710883120313E500700858
:10040C00E4006408D4006508D500D601D70154086F
:10041C00DA07550803110318013E0319162ADB07E6
:10042C00560803110318013E03191D2ADC0757084F
:10043C0003110318013E0319242ADD070830D400E8
:10044C000310DA0DDB0DDC0DDD0DD40B262A4C0868
:10045C00D4005408F00050080A168A113C250A12E0
:10046C008A11710883120313E5007008E400640814
:10047C00D4006508D500D601D7015408DA07550811
:10048C0003110318013E03194C2ADB07560803110C
:10049C000318013E0319532ADC07570803110318EC
:1004AC00013E03195A2ADD074D08D4005408F00008
:1004BC0052080A168A113C250A128A1171088312F5
:1004CC000313E5007008E4006408D4006508D50047
:1004DC00D601D7015408E007550803110318013E53
:1004EC000319792AE107560803110318013E031971
:1004FC00802AE207570803110318013E0319872AC3
:10050C00E3074E08D4005408F00051080A168A116B
:10051C003C250A128A11710883120313E500700836
:10052C00E4006408D4006508D500D601D70154084E
:10053C00E007550803110318013E0319A62AE10729
:10054C00560803110318013E0319AD2AE207570898
:10055C0003110318013E0319B42AE3074E08D40013
:10056C005408F00052080A168A113C250A128A1106
:10057C00710883120313E5007008E4006408D400CA
:10058C006508D500D601D70108300310D40DD50D60
:10059C00D60DD70DFF3E031DCB2A5408E007550896
:1005AC0003110318013E0319DC2AE1075608031155
:1005BC000318013E0319E32AE20757080311031835
:1005CC00013E0319EA2AE3075A08D4005B08D50058
:1005DC005C08D6005D08D70018300310D70CD60C79
:1005EC00D50CD40CFF3E031DF32A5408E007550824
:1005FC0003110318013E0319042BE10756080311DC
:10060C000318013E03190B2BE207570803110318BB
:10061C00013E0319122BE3070830D4000310DA0D46
:10062C00DB0DDC0DDD0DD40B142B5F085E07D40045
:10063C00D501D50D5408823EE40055080318013E3F
:10064C00FF3EE500462B0130D4000310E00DE10D18
:10065C00E20DE30DD40B2B2BDD1F352B362B372B5B
:10066C0060140130D4000310DA0DDB0DDC0DDD0D50
:10067C00D40B392BFF30E4070318E50AFF30E507EC
:10068C00E21F492B4A2B292BDE01DD1F4E2B4F2B52
:10069C006B2BFF305A05D400FF305B05D500FF30C3
:1006AC005C05D6007F305D05D7005708560455040D
:1006BC0054040319622B632B662BDE01DE0A6B2BB1
:1006CC00601C692B6A2B6B2B632B5E0803196F2B39
:1006DC00702BA12B0130E007003003180130E1072B
:1006EC00003003180130E207003003180130E30733
:1006FC00631C812B822BA12B6008D4006108D500D0
:10070C006208D6006308D7000130D800570DD70C0B
:10071C00D60CD50CD40CD80B8C2B5708E3005608F0
:10072C00E2005508E1005408E0000130E40703182A
:10073C00E50A0030E5076508803AFF0080307F024B
:10074C00031DAA2BFF306402031CAD2BAE2BB92B5F
:10075C007F3083120313E3008030E2000030E100AD
:10076C000030E000EE2B831203136508803AFF0083
:10077C0080307F02031DC42B013064020318C72B89
:10078C00C82BD42B003083120313E3000030E2009B
:10079C000030E1000030E000D901EE2B831203138E
:1007AC006408D4005408DF00FF30E005FF30E10599
:1007BC007F30E2050030E3055F1CE52BE62BE72BD1
:1007CC00E2175F08D4000310540CD5005508E30061
:1007DC005908D4005408E3046308CF006208CE0023
:1007EC006108CD006008CC00080083160313DA0002
:1007FC00831203136908F3006808F2006708F1001C
:10080C006608F0000A128A1120200A128A11710857
:10081C0083160313D1007008D000DB01DC01D80172
:10082C00D9010130DD000030DE00831203136908AA
:10083C00F3006808F2006708F1006608F000003069
:10084C00F7000030F6000030F5000030F4000A121A
:10085C008A150E200A128A110318352C362C842C7A
:10086C00BF3083120313CF008030CE000030CD0098
:10087C000030CC006908D3006808D2006708D100AA
:10088C006608D0000A128A119A200A128A11831261
:10089C0003134F08E9004E08E8004D08E7004C0828
:1008AC00E6002D30EC00831603135A0884008312E3
:1008BC0003136C0883138000013083160313D807CD
:1008CC000318D90A0030D907842C0A30F000003004
:1008DC00F1005108F3005008F2000A168A11DD26C7
:1008EC000A128A11710883160313D1007008D00004
:1008FC000130DB070318DC0A0030DC078316031316
:10090C0050085104031D8B2C8C2C6B2CA82D5B03D5
:10091C005C04031D922C932C982C0130DD000030CC
:10092C00DE00DA2C0230D2000030D300C42C831647
:10093C0003135E0883120313A100831603135D08CF
:10094C0083120313A0000A30A2000030A3000A1681
:10095C008A1163250A128A11831203132108831644
:10096C000313DE0083120313200883160313DD0028
:10097C000130D2070318D30A0030D3075C08803A41
:10098C0083120313EC00831603135308803A83126B
:10099C0003136C02031DD62C8316031352085B023F
:1009AC000318D92CDA2C9D2C831603135D088312A3
:1009BC000313A400831603135E0883120313A5000C
:1009CC000030A51BFF30A600A70001300A168A11C3
:1009DC0044270A128A11831203132708B50026082C
:1009EC00B4002508B3002408B2006908B9006808EF
:1009FC00B8006708B7006608B6000A128A15B0205E
:100A0C000A128A1183120313350883160313D700B5
:100A1C0083120313340883160313D60083120313B3
:100A2C00330883160313D50083120313320883167D
:100A3C000313D4005E0883120313A300831603135D
:100A4C005D0883120313A200831603135708F300E7
:100A5C005608F2005508F1005408F0000A128A11E9
:100A6C0020200A128A11710883120313A100700846
:100A7C00A0000A168A1163250A128A118312031325
:100A8C002008A4002108A5000030A51BFF30A600FB
:100A9C00A70001300A168A1144270A128A11831200
:100AAC0003132708B5002608B4002508B300240852
:100ABC00B2006908B9006808B8006708B700660892
:100ACC00B6000A168A1118250A128A11831203130A
:100ADC003508E9003408E8003308E7003208E6007E
:100AEC00831603135708F3005608F2005508F1005B
:100AFC005408F0000A128A1120200A128A11700878
:100B0C00303E83120313EC008316031358085A0764
:100B1C0083120313ED006D0884006C0883138000AE
:100B2C00013083160313D8070318D90A0030D907EC
:100B3C00FF30DB070318DC0AFF30DC070130DD0077
:100B4C000030DE005B085C04031DAD2DAE2D8D2C3A
:100B5C002E3083120313EC008316031358085A0724
:100B6C0083120313ED006D0884006C08831380005E
:100B7C00013083160313D8070318D90A0030D9079C
:100B8C000130D2000030D300F22D831603135E081F
:100B9C0083120313A100831603135D08831203133E
:100BAC00A0000A30A2000030A3000A168A116325A7
:100BBC000A128A1183120313210883160313DE0011
:100BCC0083120313200883160313DD000130D207B0
:100BDC000318D30A0030D307831203136B08803A2F
:100BEC00EC00831603135308803A831203136C0230
:100BFC00031D062E831603135208831203136A0275
:100C0C000318092E0A2ECB2D831603135D088312AD
:100C1C000313A400831603135E0883120313A500A9
:100C2C000030A51BFF30A600A70001300A168A1160
:100C3C0044270A128A11831203132708CF002608AF
:100C4C00CE002508CD002408CC006908F300680804
:100C5C00F2006708F1006608F0000A128A112020E1
:100C6C000A128A11700883120313A4007108A500DC
:100C7C000030A51BFF30A600A70001300A168A1110
:100C8C0044270A128A11831203132708B500260879
:100C9C00B4002508B3002408B2006908B90068083C
:100CAC00B8006708B7006608B6000A168A1118253E
:100CBC000A128A11831203133508D3003408D200A8
:100CCC003308D1003208D0000A128A119A200A1275
:100CDC008A11831203134F0883160313D700831250
:100CEC0003134E0883160313D600831203134D0807
:100CFC0083160313D500831203134C0883160313B6
:100D0C00D400570883120313E90083160313560803
:100D1C0083120313E800831603135508831203137D
:100D2C00E70083160313540883120313E6006908C3
:100D3C00F3006808F2006708F1006608F0000A1278
:100D4C008A1120200A128A11013083160313DD0048
:100D5C000030DE00831203136B0883160313DC00D0
:100D6C00831203136A0883160313DB00D82F5B036B
:100D7C005C04031DC22EC32EC82E0130DD000030D2
:100D8C00DE000A2F0230D2000030D300F42E83167E
:100D9C0003135E0883120313A100831603135D086B
:100DAC0083120313A0000A30A2000030A3000A161D
:100DBC008A1163250A128A118312031321088316E0
:100DCC000313DE0083120313200883160313DD00C4
:100DDC000130D2070318D30A0030D3075C08803ADD
:100DEC0083120313EC00831603135308803A831207
:100DFC0003136C02031D062F8316031352085B02A8
:100E0C000318092F0A2FCD2E831603135D088312A6
:100E1C000313A400831603135E0883120313A500A7
:100E2C000030A51BFF30A600A70001300A168A115E
:100E3C0044270A128A11831203132708B5002608C7
:100E4C00B4002508B3002408B2006908B90068088A
:100E5C00B8006708B7006608B6000A128A15B020F9
:100E6C000A128A1183120313350883160313D70051
:100E7C0083120313340883160313D600831203134F
:100E8C00330883160313D500831203133208831619
:100E9C000313D4005E0883120313A30083160313F9
:100EAC005D0883120313A200831603135708F30083
:100EBC005608F2005508F1005408F0000A128A1185
:100ECC0020200A128A11710883120313A1007008E2
:100EDC00A0000A168A1163250A128A1183120313C1
:100EEC002008A4002108A5000030A51BFF30A60097
:100EFC00A70001300A168A1144270A128A1183129C
:100F0C0003132708B5002608B4002508B3002408ED
:100F1C00B2006908B9006808B8006708B70066082D
:100F2C00B6000A168A1118250A128A1183120313A5
:100F3C003508E9003408E8003308E7003208E60019
:100F4C00831603135708F3005608F2005508F100F6
:100F5C005408F0000A128A1120200A128A11700813
:100F6C00303E83120313EC008316031358085A0700
:100F7C0083120313ED006D0884006C08831380004A
:100F8C00013083160313D8070318D90A0030D90788
:100F9C00FF30DB070318DC0AFF30DC070130DD0013
:100FAC000030DE005B085C04031DDD2FDE2FBD2E40
:100FBC000A3083120313EC008316031358085A07E4
:100FCC0083120313ED006D0884006C0883138000FA
:100FDC00080083120313EE01EF018313A030840089
:100FEC00D0300A168A118C240A128A1183010A1233
:040FFC008A15252D00
:1010020000300A128A1106200A128A1501300A12C9
:101012008A1106200A128A15080000307005F800AD
:1010220000307105F90080307205FA007F307305D7
:10103200FB007B087A0479047804031D2128222806
:101042002A280030F3000030F2000030F1000030B6
:10105200F00000307405F80000307505F9008030AA
:101062007605FA007F307705FB007B087A04790465
:101072007804031D3D283E2846280030F700003042
:10108200F6000030F5000030F400F31F49284A282A
:101092006E280030F8000030F9000030FA0080308D
:1010A200FB007008F8027108031C710F59285A28B6
:1010B200F9027208031C720F5F286028FA02730893
:1010C200031C730F65286628FB027B08F3007A086D
:1010D200F2007908F1007808F000F71F71287228F1
:1010E20096280030F8000030F9000030FA00803015
:1010F200FB007408F8027508031C750F812882280A
:10110200F9027608031C760F87288828FA027708E6
:10111200031C770F8D288E28FB027B08F7007A08C4
:10112200F6007908F5007808F4008030F306803084
:10113200F70677087302031DA82876087202031DBA
:10114200A82875087102031DA828740870020318E4
:10115200AB28AC28AE280310AF2803140800831272
:10116200031339088039BA003A08C3003908BA00B3
:101172003A07BB003B08CA00B81FC028C128C228D2
:101182004A144A080319C628C728D7284A0A031D41
:10119200CB28CC28D4280030B9000030B800003069
:1011A200B7000030B600B817B901DF280030B90027
:1011B2000030B8000030B7000030B6003508803982
:1011C200BA003A08C3063508BA003A07BB003B0822
:1011D200CB00B41FED28EE28EF284B144B0803195F
:1011E200F328F42804294B0A031DF828F9280129B9
:1011F2000030B5000030B4000030B3000030B2005F
:10120200B417B5010C290030B5000030B40000302D
:10121200B3000030B2003508340433043204031D35
:10122200132914292D290030B9000030B8000030EC
:10123200B7000030B6008030B8047F30B9044308EC
:10124200BA003A08B9043908B5003808B4003708BA
:10125200B3003608B2008C2A4A08031D312932290C
:101262003B290030B5000030B4000030B30000303C
:10127200B2008C2A4A08BA00BB013B08BD004B08E9
:101282003A02BC00031CBD033C087F3EC4003D087B
:101292000318013E003EC5003908C2003808C100EB
:1012A2003708C0003608BF000030B9000030B8006F
:1012B2000030B7000030B6000030C9000030C8006E
:1012C2000030C7000030C600CB01B1294B0803191A
:1012D2006B296C298C290130BA000310BF0DC00D97
:1012E200C10DC20DBA0B6E290130BA000310B60D42
:1012F200B70DB80DB90DBA0B7729C91F81298229FB
:10130200832936140130BA000310C60DC70DC80D6B
:10131200C90DBA0B852935084202031D9A293408E2
:101322004102031D9A2933084002031D9A293208FB
:101332003F02031C9D299E29AD2949173208BF028D
:101342003308031C330FC0023408031C340FC102DC
:101352003508031C350FC2020130BA003A08CB0728
:101362001A304B02031CB629B729672942084104E7
:1013720040043F040319BE29BF29DE294614DE2991
:101382000130BA000310B60DB70DB80DB90DBA0B86
:10139200C329C91FCD29CE29CF2936140130BA005D
:1013A2000310C60DC70DC80DC90DBA0BD129FF30E8
:1013B200C4070318C50AFF30C507B81FE129E2298F
:1013C200C129CB01C91FE629E729032AFF304605B7
:1013D200BA00FF304705BB00FF304805BC007F3034
:1013E2004905BD003D083C043B043A040319FA29AF
:1013F200FB29FE29CB01CB0A032A361C012A022A29
:10140200032AFB294B080319072A082A392A013023
:10141200B607003003180130B70700300318013057
:10142200B807003003180130B907391C192A1A2AE3
:10143200392A3608BA003708BB003808BC00390818
:10144200BD000130BE003D0DBD0CBC0CBB0CBA0C86
:10145200BE0B242A3D08B9003C08B8003B08B7007F
:101462003A08B6000130C4070318C50A0030C507A0
:101472004508803AFF0080307F02031D422AFF3078
:101482004402031C452A462A542AFF3083120313BE
:10149200C4000030C5000030B9000030B800003090
:1014A200B7000030B600831203134508803AFF00EC
:1014B20080307F02031D5F2A013044020318622A32
:1014C200632A702A83120313C401C5010030B900D4
:1014D2000030B8000030B7000030B600C3018312FC
:1014E20003134408BA003A08CA004A1C792A7A2A25
:1014F2007C2AB817802A7F30BA003A08B8054A0811
:10150200BA0003103A0CBB003B08B9004308BA000A
:101512003A08B90424290800730880398312031396
:10152200A0002008F8007308A0002007A1002108ED
:10153200FA00F21F9D2A9E2A9F2A7A147A0803191A
:10154200A32AA42AB42A7A0A031DA82AA92AB12AFC
:101552000030F3000030F2000030F1000030F00003
:10156200F217F301BC2A0030F3000030F200003021
:10157200F1000030F00077088039A0002008F9005F
:10158200790878060319C62AC72AC82A781777085D
:10159200A0002007A1002108F900F61FD12AD22AB3
:1015A200D32A791479080319D72AD82AE82A790A7A
:1015B200031DDC2ADD2AE52A0030F7000030F600A0
:1015C2000030F5000030F400F617F701F02A003081
:1015D200F7000030F6000030F5000030F4007A0821
:1015E20079020318F52AF62A3A2B781FF92AFA2AE1
:1015F200FE2A8030A0002008F8067A08A000200801
:10160200FB007908A0002008FA007B08A00020084F
:10161200F9007008A0002008FB007408A000200850
:10162200F0007B08A0002008F4007108A000200848
:10163200FB007508A0002008F1007B08A00020082C
:10164200F5007208A0002008FB007608A000200820
:10165200F2007B08A0002008F6007308A000200812
:10166200FB007708A0002008F3007B08A0002008F8
:10167200F700FB017908A000A1012108A3007A0864
:101682002002A200031CA3032308803AFF0080303B
:101692007F02031D4E2B1A302202031C512B522BA8
:1016A200932B7308720471047004031D592B5B2B76
:1016B20001305C2B003083120313A0002008FB00D2
:1016C2000030F3000030F2000030F1000030F00092
:1016D2007908A0002008FA00992B7B1C712B722B31
:1016E2007D2B7B0883120313A0000310200C01380A
:1016F200A1002108FB007F2B0310FB0C701C822B26
:10170200832B842BFB17013083120313A000730D6C
:10171200F30CF20CF10CF00CA00B882B0130A000A2
:101722002008FA0779087A02031C982B992B6E2B52
:10173200781B9C2B9D2BEC2B7A08031DA12BA22B33
:10174200AB2B0030F3000030F2000030F10000302B
:10175200F000242D7408F007750803110318013EE8
:101762000319B42BF107760803110318013E03197C
:10177200BB2BF207770803110318013E0319C22B92
:10178200F307731CC52BC62BA42C7B1CC92BCA2B9D
:10179200D52B7B0883120313A0000310200C013801
:1017A200A1002108FB00D72B0310FB0C701CDA2BC5
:1017B200DB2BDC2BFB17013083120313A000730D0C
:1017C200F30CF20CF10CF00CA00BE02B0130A0009A
:1017D2002008FA07A42C7308803AFF007708803AA1
:1017E2007F02031DFE2B76087202031DFE2B750875
:1017F2007102031DFE2B740870020318012C022CC7
:101802005C2CFF3083120313A000FF30A100FF30D5
:10181200A200FF30A3007408A4007508A500760892
:10182200A6007708A7007008A4027108031C710FB4
:101832001B2C1C2CA5027208031C720F212C222CBB
:10184200A6027308031C730F272C282CA702240856
:10185200A00725080318250F2F2C302CA1072608D6
:101862000318260F352C362CA20727080318270A3F
:10187200A3072308F3002208F2002108F100200840
:10188200F0008030A0002008F806FB09FB0A7B0864
:10189200031D4C2C4D2C6A2C0130F007003003182C
:1018A2000130F107003003180130F207003003184D
:1018B2000130F3076A2C7408F0027508031C750FD7
:1018C200F1027608031C760FF2027708031C770FE9
:1018D200F3027308720471047004031D712C722CDC
:1018E200A02C7B08031D762C772CA02C0030F30053
:1018F2000030F2000030F1000030F000242D013001
:1019020083120313A0000310F00DF10DF20DF30D7D
:10191200A00B842CFB1F8E2C8F2C902C70147B1C04
:10192200932C942C972C0314FB0D992C0310FB0D74
:101932007A0803199D2C9E2CA02C0130FA02F21F6A
:10194200A32CA42C802CF901FB1FA82CA92CB72CAA
:101952007B087F390319AE2CAF2CB22CF901F90A9E
:10196200B72C701CB52CB62CB72CAF2C79080319E8
:10197200BB2CBC2CF22C0130F007003003180130D4
:10198200F107003003180130F2070030031801306C
:10199200F307731CCD2CCE2CF22C70088312031388
:1019A200A0007108A1007208A2007308A300013010
:1019B200A400230DA30CA20CA10CA00CA40BDA2CE6
:1019C2002308F3002208F2002108F1002008F000A9
:1019D2007A0A0319ED2CEE2CF22C0130A00020081B
:1019E200FA077A0A0319F62CF72CFC2C7A08031D45
:1019F200FB2CFC2C0A2D0030F3000030F2000030EA
:101A0200F1000030F0007A08031D082D092D0A2D7F
:101A1200F8017A1C0D2D0E2D102DF217162D7F3088
:101A220083120313A0002008F2057A08831203131D
:101A3200A0000310200CA1002108F300F81F222DA2
:101A4200232D242DF31708000A168A11D2240A1214
:101A52008A150A168A1132260A128A150A128A155C
:101A620001200A128A15F401F40A01300A168A11B9
:101A7200F4240A128A150130F3008030F4000A16A9
:101A82008A11F0250A128A15083083160313DF0023
:101A92005F08F40001300A168A11F4240A128A152A
:101AA2000530F3008030F4000A168A11F0250A127C
:101AB2008A150E3083160313DF005F08F40001302D
:101AC2000A168A11F4240A128A150930F3008030AA
:101AD200F4000A168A11F0250A128A150A168A11CA
:101AE20094240A128A155130F0000030F1000A16CF
:101AF2008A11A6240A128A150030F000F1000A1693
:101B02008A118A250A128A15700883160313DF00C8
:101B12005F08B1000A168A119D240A128A15033041
:101B220083160313E1000830E0007630DF00DF0B9C
:101B3200982DE00B982DE10B982D00000A168A11C2
:101B420094240A128A159A30F0000030F1000A1625
:101B52008A11A6240A128A150030F000F1000A1632
:101B62008A11A6240A128A15023083160313E10091
:101B72000430E000B930DF00DF0BBD2DE00BBD2DDE
:101B8200E10BBD2DC42D0A168A119D240A128A1555
:101B92000A168A1194240A128A1502308316031334
:101BA200E1000430E000B930DF00DF0BD62DE00B9E
:101BB200D62DE10BD62DDD2D9B30F0000030F1004B
:101BC2000A168A11A6240A128A15023083160313F2
:101BD200E1000430E000B930DF00DF0BEE2DE00B56
:101BE200EE2DE10BEE2DF52D0030F000F1000A167E
:101BF2008A118A250A128A15700883160313DF00D8
:101C02005F08B0000A168A119D240A128A15033051
:101C120083160313E1000830E0007630DF00DF0BAB
:101C2200102EE00B102EE10B102E00000A168A1166
:101C320094240A128A156130F0000030F1000A166D
:101C42008A11A6240A128A150030F000F1000A1641
:101C52008A118A250A128A15700883160313DF0077
:101C62005F08AF000A168A119D240A128A150330F2
:101C720083160313E1000830E0007630DF00DF0B4B
:101C8200402EE00B402EE10B402E0000F401F40A3E
:101C920002300A168A11F4240A128A15C630F30099
:101CA2000030F4000A168A11F0250A128A1505304E
:101CB20083160313DF005F08F40002300A168A114C
:101CC200F4240A128A151030F3008030F4000A1648
:101CD2008A11F0250A128A15073083160313DF00D2
:101CE2005F08F40002300A168A11F4240A128A15D7
:101CF200BC30F3000030F4000A168A11F0250A12F3
:101D02008A150B3083160313DF005F08F4000230DC
:101D12000A168A11F4240A128A150330F30080305D
:101D2200F4000A168A11F0250A128A150E3083165B
:101D32000313DF005F08F40002300A168A11F4244C
:101D42000A128A15B230F3000030F4000A168A1122
:101D5200F0250A128A15003083160313AB000030F7
:101D6200AA000030A9000030A8000030A70000300F
:101D7200A6000030A5000030A400403083120313F7
:101D8200CF00A030CE000030CD000030CC00433078
:101D9200B5007F30B4000030B3000030B2008316CB
:101DA20003133108DF00E001E101E201620883125E
:101DB2000313A70083160313610883120313A600FB
:101DC20083160313600883120313A50083160313FB
:101DD2005F0883120313A40001300A168A114427F4
:101DE2000A128A15831203132708B9002608B800BD
:101DF2002508B7002408B6000A128A15B0200A1274
:101E02008A15831203133508D3003408D20033082D
:101E1200D1003208D0000A128A119A200A128A15B9
:101E2200831203134F0883160313AB0083120313A9
:101E32004E0883160313AA00831203134D08831658
:101E42000313A900831203134C0883160313A8007B
:101E52002B0883120313E900831603132A08831243
:101E62000313E80083160313290883120313E70000
:101E720083160313280883120313E6000230EA00D4
:101E82000030EB00C6300A128A11FB230A128A15AF
:101E920083160313300883120313A4008039031D31
:101EA200FF30A500A600A70001300A168A114427B8
:101EB2000A128A1583120313270883160313A70035
:101EC20083120313260883160313A6008312031337
:101ED200250883160313A50083120313240883160F
:101EE2000313A400270883120313E90083160313C4
:101EF200260883120313E8008316031325088312AE
:101F02000313E70083160313240883120313E60066
:101F12000230EA000030EB00BC300A128A11FB23C7
:101F22000A128A15831603132F08DF00E001E1016C
:101F3200E201620883120313A700831603136108E8
:101F420083120313A600831603136008831203137C
:101F5200A500831603135F0883120313A400003045
:101F62000A168A1144270A128A15831203132708B4
:101F720083160313E6008312031326088316031342
:101F8200E50083120313250883160313E40083126A
:101F92000313240883160313E30066088312031352
:101FA200E90083160313650883120313E8008316FE
:101FB2000313640883120313E700831603136308F1
:101FC20083120313E6000230EA000030EB00B23065
:101FD2000A128A11FB230A128A150630831603138A
:101FE200E1001330E000AD30DF00DF0BF62FE00B35
:101FF200F62FE10BF62F342D0A128A110028FF1B4F
:102002000A2883137F1883170008840A0319FF0A1A
:10201200080010308A000408840A82070034413420
:10202200443443340034533445344E34003443345E
:102032004F344E3400342534643400345634003482
:10290C00F000700883120313860008006400800135
:10291C00840A04060319003404068D2C0A168A1145
:10292C00B0240A168A1183160313111408000A1610
:10293C008A11B0240A168A11831603131115080084
:10294C000A168A11B0240A168A117008831203130E
:10295C0093000800831603131419B52CB62CB02C55
:10296C0011081F39031DBB2CBC2CB02C0800F20025
:10297C0083120313071472080A168A1186240A1686
:10298C008A118312031387140330F100F10BCC2C42
:10299C00831203138710080083160317880189011B
:1029AC008316031307108710860188018312031303
:1029BC00860188010030A3000130A2008630A100FE
:1029CC00A030A0000A168A11B8250A168A1183169F
:1029DC0003130F178F160F160F140800F60076034B
:1029EC00031DF92CFA2C062D74087F3EF500750892
:1029FC00F70077080A128A1106200A168A11172D79
:102A0C0002307606031D0B2D0C2D172D7408BF3EBE
:102A1C00F5007508F70077080A128A1106200A16C5
:102A2C008A110800803083120313B5063908F300AD
:102A3C003808F2003708F1003608F0003508F700C6
:102A4C003408F6003308F5003208F4000A128A152F
:102A5C008D220A168A11730883120313B5007208AB
:102A6C00B4007108B3007008B2000800F800F4015B
:102A7C00F5017008F200F3017208F6007308F70014
:102A8C00781C492D4A2D502D7608F4070318F50AA9
:102A9C007708F50701300310F60DF70DFF3E031D07
:102AAC00512D0310F80C7808031D5D2D5E2D462D5D
:102ABC007508F1007408F0000800FB01FC0183129A
:102ACC000313201C6A2D6B2D712D2208FB07031894
:102ADC00FC0A2308FC0701300310A20DA30DFF3ED6
:102AEC00031D722D01300310A10CA00CFF3E031D21
:102AFC00792D20082104031D842D852D652D7C083E
:102B0C00A1007B08A00008000A168A11B0240A163E
:102B1C008A118316031391150A168A11B0240A160A
:102B2C008A11831203131308F200F3017208F400E4
:102B3C007308F5000A168A11B0240A168A1170035C
:102B4C007104031DAA2DAB2DAF2D83160313911207
:102B5C00B22D83160313911611167508F100740823
:102B6C00F00008002830831203139400831603131B
:102B7C009101831203132008A4002108A500220848
:102B8C00A6002308A70002300310A40DA50DA60D66
:102B9C00A70DFF3E031DCA2D2708F3002608F200DF
:102BAC002508F1002408F0000030F7003D30F60055
:102BBC000930F5000030F4000A168A1177260A163F
:102BCC008A117008FF3E8316031393009401871536
:102BDC0007160800F801F901152E78087307F6009E
:102BEC007408F5000318F50AF81FFD2DF503750898
:102BFC00F700770883120313FF00760884000A1687
:102C0C008A1100200A168A110A168A11BD240A1686
:102C1C008A110130F8070318F90A0030F90778080F
:102C2C007307F6007408F5000318F50AF81F1F2E39
:102C3C00F5037508F700770883120313FF00760875
:102C4C0084000A168A1100200A168A11003A031D04
:102C5C00302E312EF32D080000300A168A118624EE
:102C6C000A168A111A30F500F830F400F40B3C2ED9
:102C7C00F50B3C2E000030300A128A1106200A1681
:102C8C008A110730F5007D30F400F40B4B2EF50B58
:102C9C004B2E30300A128A1106200A168A110F3078
:102CAC00F5004730F400F40B592EF50B592E5E2E1F
:102CBC0030300A128A1106200A168A1138300A128C
:102CCC008A1106200A168A110C300A128A11062063
:102CDC000A168A1106300A128A1106200A168A115F
:102CEC0008000030FC000030FB000030FA0000301F
:102CFC00F90073087204710470040319862E872E70
:102D0C00D42EFD01FD0A972E0130F8000310F00DB2
:102D1C00F10DF20DF30DF80B8C2E0130F800780844
:102D2C00FD07F31F9A2E9B2E8A2E0130F8000310FC
:102D3C00F90DFA0DFB0DFC0DF80B9D2E73087702A7
:102D4C00031DB22E72087602031DB22E7108750295
:102D5C00031DB22E70087402031CB52EB62EC52EA0
:102D6C007008F4027108031C710FF5027208031C41
:102D7C00720FF6027308031C730FF70279140130FB
:102D8C000310F30CF20CF10CF00CFF3E031DC62EDD
:102D9C000130FD02031DD32ED42E9B2E7C08F30094
:102DAC007B08F2007A08F1007908F0000800F601BF
:102DBC00F11FE12EE22EE92EF009F109F00A0319B8
:102DCC00F10AF601F60AF31FEC2EED2EF62EF2099F
:102DDC00F309F20A0319F30A0130F4007408F60639
:102DEC00F701F801700871040319FD2EFE2E352F22
:102DFC00F501F50A0C2F01300310F00DF10DFF3E1B
:102E0C00031D022F0130F4007408F507F11F0F2F7A
:102E1C00102F012F01300310F70DF80DFF3E031D8D
:102E2C00112F71087302031D1D2F70087202031CF1
:102E3C00202F212F282F7008F2027108031CF30396
:102E4C00F302771401300310F10CF00CFF3E031D5C
:102E5C00292F0130F502031D342F352F102F760842
:102E6C000319392F3A2F3F2FF709F809F70A0319DD
:102E7C00F80A7808F1007708F000080083120313B1
:102E8C00AC002C0803194B2F4C2F602FA71F4F2F72
:102E9C00502F602F2409AE002509AF002609B00081
:102EAC002709B100AE0A0319AF0A0319B00A0319B6
:102EBC00B10A682F2708B1002608B0002508AF001A
:102ECC002408AE002708260425042404031D6F2FB4
:102EDC00702F792F0030A7000030A6000030A5001D
:102EEC000030A400FF2F9630A8002808AD008B2FCF
:102EFC000130A8002808AD0701300310B10CB00C4C
:102F0C00AF0CAE0CFF3E031D832FFE303105031DAD
:102F1C00902F912F7E2FAD2F0130A8002808AD07E0
:102F2C000130AE07003003180130AF070030031832
:102F3C000130B007003003180130B1070130031025
:102F4C00B10CB00CAF0CAE0CFF3E031DA52FFF3027
:102F5C003105031DB22FB32F922FBF2F0130AD02BD
:102F6C000130A8000310AE0DAF0DB00DB10DA80BC4
:102F7C00B82FB01BC22FC32FC92F02302D0203183C
:102F8C00C82FC92FB42F2D18CC2FCD2FD52FFF30F4
:102F9C00AE05FF30AF057F30B005FF30B105031033
:102FAC00AD0C2D08A800A901AA01AB011830031023
:102FBC00A80DA90DAA0DAB0DFF3E031DDD2F280892
:102FCC00AE042908AF042A08B0042B08B1042C085D
:102FDC000319F12FF22FF72FA71FF52FF62FF72F2D
:102FEC00B1173108A7003008A6002F08A5002E083D
:042FFC00A400080025
:04400E00D420FF3F7C
:00000001FF
