:020000040000FA
:100000000A128A11F32FFF1B0D2883137F18831701
:100010000008840A0319FF0A080000308A00040857
:10002000840A820700344134443443340034533466
:1000300045344E34003443344F344E340034563457
:0200400000348A
:100048000310720D730DF4007408FA007A08031D8A
:100058002E282F2838280030F3000030F200003016
:10006800F1000030F0009D287008F4007108F500D8
:100078007208F6007308F7001F300310F70CF60C2F
:10008800F50CF40CFF3E031D41287408F8007808AD
:10009800F900F217FF30F005FF30F105FF30F205E7
:1000A8000030F3059630FA02FA1F5B285C287628A0
:1000B8007A08803A973E03186228632864282F2814
:1000C80001300310F30CF20CF10CF00CFF3E031D91
:1000D80065280130F4007408FA07031D7428752890
:1000E80064288D2820307A02031C7B287C288828E5
:1000F8002F280130F4000310F00DF10DF20DF30D6F
:10010800F40B7F280130FA027A08031D8C288D2809
:100118007D2879080319912892289D28F009F1096A
:10012800F209F309F00A0319F10A0319F20A03198B
:10013800F30A0800831203134F088039D4005408C7
:10014800D9004F08D4005407D5005508DF00CE1F4A
:10015800AE28AF28B0285F145F080319B428B52863
:10016800C4285F0A031DB928BA28C2280030CF0066
:100178000030CE000030CD000030CC00CE17CC28A7
:100188000030CF000030CE000030CD000030CC0071
:1001980053088039D4005408D9065308D4005407AA
:1001A800D5005508DE00D21FDA28DB28DC285E14CB
:1001B8005E080319E028E128F0285E0A031DE528F7
:1001C800E628EE280030D3000030D2000030D100FD
:1001D8000030D000D217F8280030D3000030D20009
:1001E8000030D1000030D0005E080319FC28FD283B
:1001F80002295F08031D012902290B290030CF00BD
:100208000030CE000030CD000030CC00FE2B4C0872
:10021800D4005408F00052080A168A1168250A12F8
:100228008A11710883120313E5007008E40064085A
:10023800D400D501D601D7015708DD005608DC00E7
:100248005508DB005408DA006508D400D501D6014A
:10025800D7015708E3005608E2005508E1005408A2
:10026800E0004D08D4005408F00051080A168A111D
:1002780068250A128A11710883120313E5007008B1
:10028800E4006408D400D501D601D7015408DA0780
:10029800550803110318013E03195329DB075608B3
:1002A80003110318013E03195A29DC0757080311E3
:1002B8000318013E03196129DD076508D400D5013B
:1002C800D601D7015408E007550803110318013E69
:1002D80003196F29E107560803110318013E031992
:1002E8007629E207570803110318013E03197D29EF
:1002F800E3074E08D4005408F00050080A168A1183
:1003080068250A128A11710883120313E500700820
:10031800E4006408D400D501D601D7015408DA07EF
:10032800550803110318013E03199B29DB075608DA
:1003380003110318013E0319A229DC07570803110A
:100348000318013E0319A929DD076508D400D50162
:10035800D601D7015408E007550803110318013ED8
:100368000319B729E107560803110318013E0319B9
:10037800BE29E207570803110318013E0319C529CE
:10038800E3070830D4000310DA0DDB0DDC0DDD0DBA
:10039800D40BC7294D08D4005408F00050080A1699
:1003A8008A1168250A128A11710883120313E5005D
:1003B8007008E4006408D4006508D500D601D701A8
:1003C8005408DA07550803110318013E0319ED29EB
:1003D800DB07560803110318013E0319F429DC074B
:1003E800570803110318013E0319FB29DD074C08C0
:1003F800D4005408F00051080A168A1168250A1218
:100408008A11710883120313E5007008E400640878
:10041800D4006508D500D601D7015408DA07550875
:1004280003110318013E03191A2ADB0756080311A2
:100438000318013E0319212ADC0757080311031882
:10044800013E0319282ADD070830D4000310DA0D0D
:10045800DB0DDC0DDD0DD40B2A2A4C08D400540822
:10046800F00050080A168A1168250A128A117108C4
:1004780083120313E5007008E4006408D4006508DB
:10048800D500D601D7015408DA0755080311031817
:10049800013E0319502ADB07560803110318013ED1
:1004A8000319572ADC07570803110318013E0319DB
:1004B8005E2ADD074D08D4005408F00052080A16D9
:1004C8008A1168250A128A11710883120313E5003C
:1004D8007008E4006408D4006508D500D601D70187
:1004E8005408E007550803110318013E03197D2A33
:1004F800E107560803110318013E0319842AE2078D
:10050800570803110318013E03198B2AE3074E0805
:10051800D4005408F00051080A168A1168250A12F6
:100528008A11710883120313E5007008E400640857
:10053800D4006508D500D601D7015408E00755084E
:1005480003110318013E0319AA2AE10756080311EB
:100558000318013E0319B12AE207570803110318CB
:10056800013E0319B82AE3074E08D4005408F000E6
:1005780052080A168A1168250A128A11710883120C
:100588000313E5007008E4006408D4006508D5008A
:10059800D601D70108300310D40DD50DD60DD70DCF
:1005A800FF3E031DCF2A5408E0075508031103181E
:1005B800013E0319E02AE107560803110318013E1A
:1005C8000319E72AE207570803110318013E031924
:1005D800EE2AE3075A08D4005B08D5005C08D60069
:1005E8005D08D70018300310D70CD60CD50CD40CE6
:1005F800FF3E031DF72A5408E007550803110318A6
:10060800013E0319082BE107560803110318013EA0
:1006180003190F2BE207570803110318013E0319AA
:10062800162BE3070830D4000310DA0DDB0DDC0DC0
:10063800DD0DD40B182B5F085E07D400D501D50D4E
:100648005408823EE40055080318013EFF3EE500C9
:100658004A2B0130D4000310E00DE10DE20DE30D4B
:10066800D40B2F2BDD1F392B3A2B3B2B6014013079
:10067800D4000310DA0DDB0DDC0DDD0DD40B3D2BA2
:10068800FF30E4070318E50AFF30E507E21F4D2BAA
:100698004E2B2D2BDE01DD1F522B532B6F2BFF30E2
:1006A8005A05D400FF305B05D500FF305C05D60045
:1006B8007F305D05D70057085604550454040319C4
:1006C800662B672B6A2BDE01DE0A6F2B601C6D2BF5
:1006D8006E2B6F2B672B5E080319732B742BA52BBE
:1006E8000130E007003003180130E107003003183B
:1006F8000130E207003003180130E307631C852B43
:10070800862BA52B6008D4006108D5006208D600A6
:100718006308D7000130D800570DD70CD60CD50C7C
:10072800D40CD80B902B5708E3005608E200550864
:10073800E1005408E0000130E4070318E50A00303E
:10074800E5076508803AFF0080307F02031DAE2B65
:10075800FF306402031CB12BB22BBD2B7F308312F8
:100768000313E3008030E2000030E1000030E000D5
:10077800F22B831203136508803AFF0080307F0252
:10078800031DC82B013064020318CB2BCC2BD82BAC
:10079800003083120313E3000030E2000030E10070
:1007A8000030E000D901F22B831203136408D4004F
:1007B8005408DF00FF30E005FF30E1057F30E20537
:1007C8000030E3055F1CE92BEA2BEB2BE2175F08EF
:1007D800D4000310540CD5005508E3005908D40080
:1007E8005408E3046308CF006208CE006108CD0016
:1007F8006008CC00080083160313D8008312031383
:100808006908F3006808F2006708F1006608F0005C
:100818000A128A1124200A128A11710883160313F6
:10082800CF007008CE00D901DA01D601D701013016
:10083800DB000030DC00831203136908F30068084A
:10084800F2006708F1006608F0000030F700003099
:10085800F6000030F5000030F4000A168A115E2711
:100868000A128A110318392C3A2C882CBF308312AB
:100878000313CF008030CE000030CD000030CC0014
:100888006908D3006808D2006708D1006608D0005C
:100898000A128A119E200A128A11831203134F0822
:1008A800E9004E08E8004D08E7004C08E6002D3046
:1008B800EC008316031358088400831203136C0892
:1008C80083138000013083160313D6070318D70A51
:1008D8000030D707882C0A30F0000030F1004F08AC
:1008E800F3004E08F2000A168A11F7260A128A1136
:1008F800710883160313CF007008CE000130D907A2
:100908000318DA0A0030DA07831603134E084F0477
:10091800031D8F2C902C6F2CAC2D59035A04031DEA
:10092800962C972C9C2C0130DB000030DC00DE2C50
:100938000230D0000030D100C82C831603135C08A5
:1009480083120313A100831603135B088312031396
:10095800A0000A30A2000030A3000A168A118F25D1
:100968000A128A1183120313210883160313DC0069
:1009780083120313200883160313DB000130D0070A
:100988000318D10A0030D1075A08803A831203139A
:10099800EC00831603135108803A831203136C0288
:1009A800031DDA2C83160313500859020318DD2C93
:1009B800DE2CA12C831603135B0883120313A400F7
:1009C800831603135C0883120313A5000030A51BCC
:1009D800FF30A600A70001300A128A1505200A1266
:1009E8008A11831203132708B5002608B4002508C6
:1009F800B3002408B2006908B9006808B80067089D
:100A0800B7006608B6000A128A15C1200A128A11B0
:100A180083120313350883160313D50083120313B7
:100A2800340883160313D400831203133308831680
:100A38000313D30083120313320883160313D2005F
:100A48005C0883120313A300831603135B08831245
:100A58000313A200831603135508F3005408F20089
:100A68005308F1005208F0000A128A1124200A12D1
:100A78008A11710883120313A1007008A0000A16D6
:100A88008A118F250A128A11831203132008A400E1
:100A98002108A5000030A51BFF30A600A7000130E3
:100AA8000A128A1505200A128A11831203132708CD
:100AB800B5002608B4002508B3002408B200690868
:100AC800B9006808B8006708B7006608B6000A16D3
:100AD8008A1144250A128A11831203133508E90082
:100AE8003408E8003308E7003208E60083160313E9
:100AF8005508F3005408F2005308F1005208F000BA
:100B08000A128A1124200A128A117008303E8312B0
:100B18000313EC00831603135608580783120313B4
:100B2800ED006D0884006C08831380000130831683
:100B38000313D6070318D70A0030D707FF30D907A1
:100B48000318DA0AFF30DA070130DB000030DC0076
:100B580059085A04031DB12DB22D912C2E30831241
:100B68000313EC0083160313560858078312031364
:100B7800ED006D0884006C08831380000130831633
:100B88000313D6070318D70A0030D7070130D0005F
:100B98000030D100F62D831603135C08831203136B
:100BA800A100831603135B0883120313A0000A3005
:100BB800A2000030A3000A168A118F250A128A1192
:100BC80083120313210883160313DC008312031313
:100BD800200883160313DB000130D0070318D10A5D
:100BE8000030D107831203136B08803AEC00831698
:100BF80003135108803A831203136C02031D0A2E53
:100C0800831603135008831203136A0203180D2E68
:100C18000E2ECF2D831603135B0883120313A40033
:100C2800831603135C0883120313A5000030A51B69
:100C3800FF30A600A70001300A128A1505200A1203
:100C48008A11831203132708CF002608CE0025082F
:100C5800CD002408CC006908F3006808F200670892
:100C6800F1006608F0000A128A1124200A128A117B
:100C7800700883120313A4007108A5000030A51B97
:100C8800FF30A600A70001300A128A1505200A12B3
:100C98008A11831203132708B5002608B400250813
:100CA800B3002408B2006908B9006808B8006708EA
:100CB800B7006608B6000A168A1144250A128A1176
:100CC800831203133508D3003408D2003308D10047
:100CD8003208D0000A128A119E200A128A11831241
:100CE80003134F0883160313D500831203134E080A
:100CF80083160313D400831203134D0883160313BA
:100D0800D300831203134C0883160313D20055082B
:100D180083120313E9008316031354088312031381
:100D2800E80083160313530883120313E70083169E
:100D38000313520883120313E6006908F3006808D6
:100D4800F2006708F1006608F0000A128A112420F0
:100D58000A128A11013083160313DB000030DC000D
:100D6800831203136B0883160313DA008312031329
:100D78006A0883160313D900DC2F59035A04031D8C
:100D8800C62EC72ECC2E0130DB000030DC000E2F23
:100D98000230D0000030D100F82E831603135C080F
:100DA80083120313A100831603135B088312031332
:100DB800A0000A30A2000030A3000A168A118F256D
:100DC8000A128A1183120313210883160313DC0005
:100DD80083120313200883160313DB000130D007A6
:100DE8000318D10A0030D1075A08803A8312031336
:100DF800EC00831603135108803A831203136C0224
:100E0800031D0A2F831603135008590203180D2FC8
:100E18000E2FD12E831603135B0883120313A4002D
:100E2800831603135C0883120313A5000030A51B67
:100E3800FF30A600A70001300A128A1505200A1201
:100E48008A11831203132708B5002608B400250861
:100E5800B3002408B2006908B9006808B800670838
:100E6800B7006608B6000A128A15C1200A128A114C
:100E780083120313350883160313D5008312031353
:100E8800340883160313D40083120313330883161C
:100E98000313D30083120313320883160313D200FB
:100EA8005C0883120313A300831603135B088312E1
:100EB8000313A200831603135508F3005408F20025
:100EC8005308F1005208F0000A128A1124200A126D
:100ED8008A11710883120313A1007008A0000A1672
:100EE8008A118F250A128A11831203132008A4007D
:100EF8002108A5000030A51BFF30A600A70001307F
:100F08000A128A1505200A128A1183120313270868
:100F1800B5002608B4002508B3002408B200690803
:100F2800B9006808B8006708B7006608B6000A166E
:100F38008A1144250A128A11831203133508E9001D
:100F48003408E8003308E7003208E6008316031384
:100F58005508F3005408F2005308F1005208F00055
:100F68000A128A1124200A128A117008303E83124C
:100F78000313EC0083160313560858078312031350
:100F8800ED006D0884006C0883138000013083161F
:100F98000313D6070318D70A0030D707FF30D9073D
:100FA8000318DA0AFF30DA070130DB000030DC0012
:100FB80059085A04031DE12FE22FC12E0A3083126B
:100FC8000313EC0083160313560858078312031300
:100FD800ED006D0884006C088313800008008313FB
:100FE800A0308400CE300A168A1191240A128A1180
:080FF80083010A128A15362D4F
:10100A0083120313AC002C0803190C280D2821287D
:10101A00A71F1028112821282409AE002509AF008E
:10102A002609B0002709B100AE0A0319AF0A03194D
:10103A00B00A0319B10A29282708B1002608B00006
:10104A002508AF002408AE00270826042504240436
:10105A00031D302831283A280030A7000030A600A6
:10106A000030A5000030A400C0289630A800280847
:10107A00AD004C280130A8002808AD070130031044
:10108A00B10CB00CAF0CAE0CFF3E031D4428FE3071
:10109A003105031D512852283F286E280130A80027
:1010AA002808AD070130AE07003003180130AF073A
:1010BA00003003180130B007003003180130B107BF
:1010CA0001300310B10CB00CAF0CAE0CFF3E031D87
:1010DA006628FF303105031D732874285328802899
:1010EA000130AD020130A8000310AE0DAF0DB00DF6
:1010FA00B10DA80B7928B01B832884288A280230CE
:10110A002D02031889288A2875282D188D288E28DB
:10111A009628FF30AE05FF30AF057F30B005FF30AF
:10112A00B1050310AD0C2D08A800A901AA01AB0155
:10113A0018300310A80DA90DAA0DAB0DFF3E031D13
:10114A009E282808AE042908AF042A08B0042B08F0
:10115A00B1042C080319B228B328B828A71FB62847
:10116A00B728B828B1173108A7003008A6002F08F9
:10117A00A5002E08A4000800831203133908803939
:10118A00BA003A08C3003908BA003A07BB003B085C
:10119A00CA00B81FD128D228D3284A144A080319EA
:1011AA00D728D828E8284A0A031DDC28DD28E5289C
:1011BA000030B9000030B8000030B7000030B60087
:1011CA00B817B901F0280030B9000030B800003073
:1011DA00B7000030B60035088039BA003A08C306AD
:1011EA003508BA003A07BB003B08CB00B41FFE28FB
:1011FA00FF2800294B144B0803190429052915292E
:10120A004B0A031D09290A2912290030B5000030AA
:10121A00B4000030B3000030B200B417B5011D2984
:10122A000030B5000030B4000030B3000030B20026
:10123A003508340433043204031D242925293E29A0
:10124A000030B9000030B8000030B7000030B600F6
:10125A008030B8047F30B9044308BA003A08B904A8
:10126A003908B5003808B4003708B3003608B200A8
:10127A009D2A4A08031D422943294C290030B500FA
:10128A000030B4000030B3000030B2009D2A4A0892
:10129A00BA00BB013B08BD004B083A02BC00031C64
:1012AA00BD033C087F3EC4003D080318013E003ED2
:1012BA00C5003908C2003808C1003708C00036081E
:1012CA00BF000030B9000030B8000030B70000306D
:1012DA00B6000030C9000030C8000030C700003036
:1012EA00C600CB01C2294B0803197C297D299D29F7
:1012FA000130BA000310BF0DC00DC10DC20DBA0BEB
:10130A007F290130BA000310B60DB70DB80DB90D1B
:10131A00BA0B8829C91F92299329942936140130B6
:10132A00BA000310C60DC70DC80DC90DBA0B962910
:10133A0035084202031DAB2934084102031DAB29BB
:10134A0033084002031DAB2932083F02031CAE29B1
:10135A00AF29BE2949173208BF023308031C330FCD
:10136A00C0023408031C340FC1023508031C350FB0
:10137A00C2020130BA003A08CB071A304B02031CEA
:10138A00C729C82978294208410440043F0403199F
:10139A00CF29D029EF294614EF290130BA000310CA
:1013AA00B60DB70DB80DB90DBA0BD429C91FDE2970
:1013BA00DF29E02936140130BA000310C60DC70D23
:1013CA00C80DC90DBA0BE229FF30C4070318C50AB4
:1013DA00FF30C507B81FF229F329D229CB01C91F4B
:1013EA00F729F829142AFF304605BA00FF304705C5
:1013FA00BB00FF304805BC007F304905BD003D08F1
:10140A003C043B043A0403190B2A0C2A0F2ACB0189
:10141A00CB0A142A361C122A132A142A0C2A4B081D
:10142A000319182A192A4A2A0130B6070030031864
:10143A000130B707003003180130B807003003182D
:10144A000130B907391C2A2A2B2A4A2A3608BA0037
:10145A003708BB003808BC003908BD000130BE009F
:10146A003D0DBD0CBC0CBB0CBA0CBE0B352A3D089D
:10147A00B9003C08B8003B08B7003A08B60001308A
:10148A00C4070318C50A0030C5074508803AFF009B
:10149A0080307F02031D532AFF304402031C562A60
:1014AA00572A652AFF3083120313C4000030C5008F
:1014BA000030B9000030B8000030B7000030B60084
:1014CA00831203134508803AFF0080307F02031D10
:1014DA00702A013044020318732A742A812A83125B
:1014EA000313C401C5010030B9000030B800003050
:1014FA00B7000030B600C301831203134408BA00D0
:10150A003A08CA004A1C8A2A8B2A8D2AB817912AB5
:10151A007F30BA003A08B8054A08BA0003103A0CF4
:10152A00BB003B08B9004308BA003A08B904352998
:10153A0008007308803983120313A0002008F800FA
:10154A007308A0002007A1002108FA00F21FAE2AA2
:10155A00AF2AB02A7A147A080319B42AB52AC52AF6
:10156A007A0A031DB92ABA2AC22A0030F3000030C7
:10157A00F2000030F1000030F000F217F301CD2A3A
:10158A000030F3000030F2000030F1000030F000CB
:10159A0077088039A0002008F9007908780603192D
:1015AA00D72AD82AD92A78177708A0002007A100B5
:1015BA002108F900F61FE22AE32AE42A79147908B5
:1015CA000319E82AE92AF92A790A031DED2AEE2ADB
:1015DA00F62A0030F7000030F6000030F50000303F
:1015EA00F400F617F701012B0030F7000030F6007F
:1015FA000030F5000030F4007A0879020318062B4F
:10160A00072B4B2B781F0A2B0B2B0F2B8030A0009C
:10161A002008F8067A08A0002008FB007908A00034
:10162A002008FA007B08A0002008F9007008A00032
:10163A002008FB007408A0002008F0007B08A00026
:10164A002008F4007108A0002008FB007508A0001B
:10165A002008F1007B08A0002008F5007208A0000D
:10166A002008FB007608A0002008F2007B08A000F2
:10167A002008F6007308A0002008FB007708A000E5
:10168A002008F3007B08A0002008F700FB01790876
:10169A00A000A1012108A3007A082002A200031CCD
:1016AA00A3032308803AFF0080307F02031D5F2BCB
:1016BA001A302202031C622B632BA42B73087204B8
:1016CA0071047004031D6A2B6C2B01306D2B0030E2
:1016DA0083120313A0002008FB000030F30000303F
:1016EA00F2000030F1000030F0007908A000200874
:1016FA00FA00AA2B7B1C822B832B8E2B7B0883124E
:10170A000313A0000310200C0138A1002108FB00DC
:10171A00902B0310FB0C701C932B942B952BFB170F
:10172A00013083120313A000730DF30CF20CF10CB9
:10173A00F00CA00B992B0130A0002008FA077908B9
:10174A007A02031CA92BAA2B7F2B781BAD2BAE2B5D
:10175A00FD2B7A08031DB22BB32BBC2B0030F300F0
:10176A000030F2000030F1000030F000352D74082E
:10177A00F007750803110318013E0319C52BF10779
:10178A00760803110318013E0319CC2BF2077708D8
:10179A0003110318013E0319D32BF307731CD62B2D
:1017AA00D72BB52C7B1CDA2BDB2BE62B7B08831281
:1017BA000313A0000310200C0138A1002108FB002C
:1017CA00E82B0310FB0C701CEB2BEC2BED2BFB17FF
:1017DA00013083120313A000730DF30CF20CF10C09
:1017EA00F00CA00BF12B0130A0002008FA07B52C51
:1017FA007308803AFF007708803A7F02031D0F2C96
:10180A0076087202031D0F2C75087102031D0F2C36
:10181A00740870020318122C132C6D2CFF308312DB
:10182A000313A000FF30A100FF30A200FF30A30085
:10183A007408A4007508A5007608A6007708A70012
:10184A007008A4027108031C710F2C2C2D2CA50200
:10185A007208031C720F322C332CA6027308031C65
:10186A00730F382C392CA7022408A007250803185F
:10187A00250F402C412CA10726080318260F462CB9
:10188A00472CA20727080318270AA3072308F300EF
:10189A002208F2002108F1002008F0008030A000A0
:1018AA002008F806FB09FB0A7B08031D5D2C5E2C49
:1018BA007B2C0130F007003003180130F1070030AB
:1018CA0003180130F207003003180130F3077B2CAC
:1018DA007408F0027508031C750FF1027608031CE0
:1018EA00760FF2027708031C770FF302730872046B
:1018FA0071047004031D822C832CB12C7B08031DF8
:10190A00872C882CB12C0030F3000030F200003014
:10191A00F1000030F000352D013083120313A000CE
:10192A000310F00DF10DF20DF30DA00B952CFB1F1A
:10193A009F2CA02CA12C70147B1CA42CA52CA82CA9
:10194A000314FB0DAA2C0310FB0D7A080319AE2C05
:10195A00AF2CB12C0130FA02F21FB42CB52C912C09
:10196A00F901FB1FB92CBA2CC82C7B087F39031943
:10197A00BF2CC02CC32CF901F90AC82C701CC62C28
:10198A00C72CC82CC02C79080319CC2CCD2C032DBC
:10199A000130F007003003180130F1070030031856
:1019AA000130F207003003180130F307731CDE2CF4
:1019BA00DF2C032D700883120313A0007108A10005
:1019CA007208A2007308A3000130A400230DA30C1F
:1019DA00A20CA10CA00CA40BEB2C2308F3002208E8
:1019EA00F2002108F1002008F0007A0A0319FE2CFF
:1019FA00FF2C032D0130A0002008FA077A0A0319E8
:101A0A00072D082D0D2D7A08031D0C2D0D2D1B2DCC
:101A1A000030F3000030F2000030F1000030F00036
:101A2A007A08031D192D1A2D1B2DF8017A1C1E2D5B
:101A3A001F2D212DF217272D7F3083120313A000AB
:101A4A002008F2057A0883120313A0000310200C61
:101A5A00A1002108F300F81F332D342D352DF3177B
:101A6A0008000A168A11FE240A128A150A168A1111
:101A7A004C260A128A150A168A11C2240A128A15D3
:101A8A00F401F40A01300A168A1120250A128A156D
:101A9A000130F3008030F4000A168A11E4250A1294
:101AAA008A15083083160313DD005D08F40001303F
:101ABA000A168A1120250A128A150530F300803089
:101ACA00F4000A168A11E4250A128A150E308316C2
:101ADA000313DD005D08F40001300A168A1120257F
:101AEA000A128A150930F3008030F4000A168A11A6
:101AFA00E4250A128A150A168A1199240A128A15E5
:101B0A005130F0000030F1000A168A11AB240A1293
:101B1A008A150030F000F1000A168A11B6250A1259
:101B2A008A15700883160313DD005D08AF000A16D4
:101B3A008A11A2240A128A15033083160313DF00BE
:101B4A000830DE007630DD00DD0BA92DDE0BA92D75
:101B5A00DF0BA92D00000A168A1199240A128A1588
:101B6A008130F0000030F1000A168A11AB240A1203
:101B7A008A150030F000F1000A168A11B6250A12F9
:101B8A008A15710883160313AD007008AC000A1693
:101B9A008A11A2240A128A15033083160313DF005E
:101BAA000830DE007630DD00DD0BD92DDE0BD92DB5
:101BBA00DF0BD92D00000A168A1199240A128A15F8
:101BCA006130F0000030F1000A168A11AB240A12C3
:101BDA008A150030F000F1000A168A11B6250A1299
:101BEA008A15700883160313DD005D08AE000A1615
:101BFA008A11A2240A128A15033083160313DF00FE
:101C0A000830DE007630DD00DD0B092EDE0B092EF2
:101C1A00DF0B092E0000F401F40A02300A168A11B9
:101C2A0020250A128A15C430F3000030F4000A167F
:101C3A008A11E4250A128A15053083160313DD007A
:101C4A005D08F40002300A168A1120250A128A1544
:101C5A000D30F3008030F4000A168A11E4250A12C6
:101C6A008A15073083160313DD005D08F40002307D
:101C7A000A168A1120250A128A15831603132C08BC
:101C8A00F3002D08F4000A168A11E4250A128A15AF
:101C9A000B3083160313DD005D08F40002300A16C8
:101CAA008A1120250A128A150330F3008030F400C5
:101CBA000A168A11E4250A128A150E3083160313AE
:101CCA00DD005D08F40002300A168A1120250A1286
:101CDA008A15B030F3000030F4000A168A11E425A0
:101CEA000A128A15003083160313AB000030AA00CB
:101CFA000030A9000030A8000030A7000030A6007C
:101D0A000030A5000030A400403083120313CF0036
:101D1A00A030CE000030CD000030CC004330B500FA
:101D2A007F30B4000030B3000030B20083160313D2
:101D3A002F08DD00DE01DF01E001600883120313D2
:101D4A00A700831603135F0883120313A6008316E2
:101D5A0003135E0883120313A500831603135D0899
:101D6A0083120313A40001300A128A1505200A12ED
:101D7A008A15831203132708B9002608B800250814
:101D8A00B7002408B6000A128A15C1200A128A1559
:101D9A00831203133508D3003408D2003308D10064
:101DAA003208D0000A128A119E200A128A1583125A
:101DBA0003134F0883160313AB00831203134E0851
:101DCA0083160313AA00831203134D088316031301
:101DDA00A900831203134C0883160313A8002B08C7
:101DEA0083120313E900831603132A0883120313C9
:101DFA00E80083160313290883120313E7008316E6
:101E0A000313280883120313E6000230EA000030A5
:101E1A00EB00C4300A128A11FF230A128A154030D5
:101E2A0083120313CF00A030CE000030CD00003063
:101E3A00CC004330B5007F30B4000030B30000302E
:101E4A00B200831603132C0883120313A40083160B
:101E5A0003132D0883120313A5000030A51BFF30BE
:101E6A00A600A70001300A128A1505200A128A154F
:101E7A00831203132708B9002608B8002508B700FB
:101E8A002408B6000A128A15C1200A128A1583127A
:101E9A0003133508D3003408D2003308D1003208BE
:101EAA00D0000A128A119E200A128A15831203137D
:101EBA004F0883160313A700831203134E088316D1
:101ECA000313A600831203134D0883160313A500F8
:101EDA00831203134C0883160313A40027088312E2
:101EEA000313E90083160313260883120313E80079
:101EFA0083160313250883120313E70083160313BB
:101F0A00240883120313E6000230EA000030EB00D3
:101F1A00BA300A128A11FF230A128A15831603138A
:101F2A002E08DD00DE01DF01E001600883120313E1
:101F3A00A700831603135F0883120313A6008316F0
:101F4A0003135E0883120313A500831603135D08A7
:101F5A0083120313A40000300A128A1505200A12FC
:101F6A008A1583120313270883160313E4008312C6
:101F7A000313260883160313E300831203132508A9
:101F8A0083160313E2008312031324088316031330
:101F9A00E100640883120313E9008316031363083C
:101FAA0083120313E80083160313620883120313D0
:101FBA00E70083160313610883120313E600023055
:101FCA00EA000030EB00B0300A128A11FF230A122D
:101FDA008A15063083160313DF001330DE00AD3096
:101FEA00DD00DD0BF62FDE0BF62FDF0BF62F452D6E
:061FFA000A128A11002802
:10291600F00070088312031386000800640080012B
:10292600840A0406031900340406922C0A168A1136
:10293600B5240A168A1183160313111408000A1601
:102946008A11B5240A168A11831603131115080075
:102956000A168A11B5240A168A11700883120313FF
:1029660093000800831603131419BA2CBB2CB52C3C
:1029760011081F39031DC02CC12CB52C08000030CE
:102986000A168A11E4240A168A1101300A168A11D7
:10299600E4240A168A110800F200831203130714AE
:1029A60072080A168A118B240A168A1183120313D7
:1029B60087140330F100F10BDE2C8312031387100A
:1029C6000800F30083120313071073080A168A110E
:1029D6008B240A168A118312031387140630F20019
:1029E6003030F100F10BF52CF20BF52C00008312C0
:1029F60003138710080083160317880189018316BD
:102A060003130710871086018801831203138601BA
:102A160088010030A3000130A2008630A100A0305A
:102A2600A0000A168A1114260A168A1183160313A1
:102A36000F178F160F160F140800F6007603031DE6
:102A4600252D262D322D74087F3EF5007508F700DA
:102A560077080A168A11E4240A168A11432D0230D1
:102A66007606031D372D382D432D7408BF3EF5001D
:102A76007508F70077080A168A11E4240A168A11DF
:102A86000800803083120313B5063908F3003808AE
:102A9600F2003708F1003608F0003508F700340870
:102AA600F6003308F5003208F4000A128A159E2251
:102AB6000A168A11730883120313B5007208B4004C
:102AC6007108B3007008B2000800F800F401F501BF
:102AD6007008F200F3017208F6007308F700781C1C
:102AE600752D762D7C2D7608F4070318F50A7708E0
:102AF600F50701300310F60DF70DFF3E031D7D2D82
:102B06000310F80C7808031D892D8A2D722D75087F
:102B1600F1007408F0000800FB01FC0183120313A6
:102B2600201C962D972D9D2D2208FB070318FC0AC5
:102B36002308FC0701300310A20DA30DFF3E031D61
:102B46009E2D01300310A10CA00CFF3E031DA52DE8
:102B560020082104031DB02DB12D912D7C08A10064
:102B66007B08A00008000A168A11B5240A168A11E5
:102B76008316031391150A168A11B5240A168A11AB
:102B8600831203131308F200F3017208F4007308AA
:102B9600F5000A168A11B5240A168A117003710403
:102BA600031DD62DD72DDB2D831603139112DE2D93
:102BB60083160313911611167508F1007408F000B8
:102BC6000800F501F601FF2D7508730784007608E5
:102BD6000318760A7407FF000A128A1103200A16E0
:102BE6008A110A168A11CF240A168A110130F507AE
:102BF6000318F60A0030F60775087307840076088E
:102C06000318760A740783120313FF000A128A1147
:102C160003200A168A11003A031D122E132EE72DE1
:102C260008002830831203139400831603139101BE
:102C3600831203132008A4002108A5002208A60079
:102C46002308A70002300310A40DA50DA60DA70D9D
:102C5600FF3E031D262E2708F3002608F20025084E
:102C6600F1002408F0000030F7003D30F60009308E
:102C7600F5000030F4000A168A1191260A168A1108
:102C86007008FF3E831603139300940187150716F9
:102C9600080000300A168A118B240A168A111A3087
:102CA600F500F830F400F40B562EF50B562E000006
:102CB60030300A168A11E4240A168A110730F50004
:102CC6007D30F400F40B652EF50B652E30300A16B8
:102CD6008A11E4240A168A110F30F5004730F400F1
:102CE600F40B732EF50B732E782E30300A168A11DC
:102CF600E4240A168A1138300A168A11E4240A16C0
:102D06008A110C300A168A11E4240A168A11063032
:102D16000A168A11E4240A168A1108000030FC00FB
:102D26000030FB000030FA000030F900730872042E
:102D3600710470040319A02EA12EEE2EFD01FD0ACA
:102D4600B12E0130F8000310F00DF10DF20DF30D68
:102D5600F80BA62E0130F8007808FD07F31FB42EF5
:102D6600B52EA42E0130F8000310F90DFA0DFB0D57
:102D7600FC0DF80BB72E73087702031DCC2E7208D4
:102D86007602031DCC2E71087502031DCC2E700829
:102D96007402031CCF2ED02EDF2E7008F4027108A9
:102DA600031C710FF5027208031C720FF6027308FA
:102DB600031C730FF702791401300310F30CF20CA5
:102DC600F10CF00CFF3E031DE02E0130FD02031D49
:102DD600ED2EEE2EB52E7C08F3007B08F2007A0865
:102DE600F1007908F0000800F601F11FFB2EFC2E19
:102DF600032FF009F109F00A0319F10AF601F60AA0
:102E0600F31F062F072F102FF209F309F20A0319F1
:102E1600F30A0130F4007408F606F701F8017008A9
:102E260071040319172F182F4F2FF501F50A262FB6
:102E360001300310F00DF10DFF3E031D1C2F013074
:102E4600F4007408F507F11F292F2A2F1B2F0130D4
:102E56000310F70DF80DFF3E031D2B2F71087302AB
:102E6600031D372F70087202031C3A2F3B2F422F87
:102E76007008F2027108031CF303F30277140130A1
:102E86000310F10CF00CFF3E031D432F0130F50239
:102E9600031D4E2F4F2F2A2F76080319532F542F19
:102EA600592FF709F809F70A0319F80A7808F10003
:102EB6007708F000080000307005F8000030710552
:102EC600F90080307205FA007F307305FB007B083D
:102ED6007A0479047804031D712F722F7A2F00303B
:102EE600F3000030F2000030F1000030F000003056
:102EF6007405F80000307505F90080307605FA0093
:102F06007F307705FB007B087A0479047804031D7B
:102F16008D2F8E2F962F0030F7000030F6000030F0
:102F2600F5000030F400F31F992F9A2FBE2F0030C2
:102F3600F8000030F9000030FA008030FB0070081D
:102F4600F8027108031C710FA92FAA2FF902720843
:102F5600031C720FAF2FB02FFA027308031C730FF6
:102F6600B52FB62FFB027B08F3007A08F20079082A
:102F7600F1007808F000F71FC12FC22FE62F0030AE
:102F8600F8000030F9000030FA008030FB007408C9
:102F9600F8027508031C750FD12FD22FF902760897
:102FA600031C760FD72FD82FFA027708031C770F4A
:102FB600DD2FDE2FFB027B08F7007A08F600790882
:102FC600F5007808F4008030F3068030F7067708BD
:102FD6007302031DF82F76087202031DF82F750879
:102FE6007102031DF82F740870020318FB2FFC2FC3
:0A2FF600FE2F0310FF2F0314080044
:04400E00D620FF3F7A
:00000001FF
