:020000040000FA
:060000000A128A11EF2F25
:10000C00F30083120313071073080A168A1147258D
:10001C000A128A118312031387140630F20030304F
:10002C00F100F10B1728F20B1728000083120313B1
:10003C00871008000310720D730DF4007408FA0099
:10004C007A08031D2A282B2834280030F3000030AE
:10005C00F2000030F1000030F00099287008F40034
:10006C007108F5007208F6007308F7001F300310D2
:10007C00F70CF60CF50CF40CFF3E031D3D28740830
:10008C00F8007808F900F217FF30F005FF30F105A1
:10009C00FF30F2050030F3059630FA02FA1F5728AC
:1000AC00582872287A08803A973E03185E285F28F1
:1000BC0060282B2801300310F30CF20CF10CF00C1F
:1000CC00FF3E031D61280130F4007408FA07031D7C
:1000DC00702871286028892820307A02031C772820
:1000EC00782884282B280130F4000310F00DF10D32
:1000FC00F20DF30DF40B7B280130FA027A08031D84
:10010C00882889287928790803198D288E28992818
:10011C00F009F109F209F309F00A0319F10A0319BC
:10012C00F20A0319F30A0800831203134F088039EB
:10013C00D4005408D9004F08D4005407D5005508F2
:10014C00DF00CE1FAA28AB28AC285F145F08031968
:10015C00B028B128C0285F0A031DB528B628BE28D0
:10016C000030CF000030CE000030CD000030CC008D
:10017C00CE17C8280030CF000030CE000030CD00A4
:10018C000030CC0053088039D4005408D9065308E9
:10019C00D4005407D5005508DE00D21FD628D72826
:1001AC00D8285E145E080319DC28DD28EC285E0ACA
:1001BC00031DE128E228EA280030D3000030D200E9
:1001CC000030D1000030D000D217F4280030D3001A
:1001DC000030D2000030D1000030D0005E0803198E
:1001EC00F828F928FE285F08031DFD28FE2807299A
:1001FC000030CF000030CE000030CD000030CC00FD
:10020C00FA2B4C08D4005408F00052080A168A1134
:10021C000A260A128A11710883120313E50070086A
:10022C00E4006408D400D501D601D7015708DD00DD
:10023C005608DC005508DB005408DA006508D400C9
:10024C00D501D601D7015708E3005608E20055083E
:10025C00E1005408E0004D08D4005408F0005108A7
:10026C000A168A110A260A128A11710883120313BC
:10027C00E5007008E4006408D400D501D601D7016C
:10028C005408DA07550803110318013E03194F29C6
:10029C00DB07560803110318013E03195629DC0726
:1002AC00570803110318013E03195D29DD07650882
:1002BC00D400D501D601D7015408E0075508031125
:1002CC000318013E03196B29E107560803110318A3
:1002DC00013E03197229E207570803110318013E66
:1002EC0003197929E3074E08D4005408F00050088C
:1002FC000A168A110A260A128A117108831203132C
:10030C00E5007008E4006408D400D501D601D701DB
:10031C005408DA07550803110318013E03199729ED
:10032C00DB07560803110318013E03199E29DC074D
:10033C00570803110318013E0319A529DD076508A9
:10034C00D400D501D601D7015408E0075508031194
:10035C000318013E0319B329E107560803110318CA
:10036C00013E0319BA29E207570803110318013E8D
:10037C000319C129E3070830D4000310DA0DDB0D93
:10038C00DC0DDD0DD40BC3294D08D4005408F0004E
:10039C0050080A168A110A260A128A117108831249
:1003AC000313E5007008E4006408D4006508D50068
:1003BC00D601D7015408DA07550803110318013E7A
:1003CC000319E929DB07560803110318013E031929
:1003DC00F029DC07570803110318013E0319F7290C
:1003EC00DD074C08D4005408F00051080A168A1195
:1003FC000A260A128A11710883120313E500700889
:10040C00E4006408D4006508D500D601D70154086F
:10041C00DA07550803110318013E0319162ADB07E6
:10042C00560803110318013E03191D2ADC0757084F
:10043C0003110318013E0319242ADD070830D400E8
:10044C000310DA0DDB0DDC0DDD0DD40B262A4C0868
:10045C00D4005408F00050080A168A110A260A1211
:10046C008A11710883120313E5007008E400640814
:10047C00D4006508D500D601D7015408DA07550811
:10048C0003110318013E03194C2ADB07560803110C
:10049C000318013E0319532ADC07570803110318EC
:1004AC00013E03195A2ADD074D08D4005408F00008
:1004BC0052080A168A110A260A128A117108831226
:1004CC000313E5007008E4006408D4006508D50047
:1004DC00D601D7015408E007550803110318013E53
:1004EC000319792AE107560803110318013E031971
:1004FC00802AE207570803110318013E0319872AC3
:10050C00E3074E08D4005408F00051080A168A116B
:10051C000A260A128A11710883120313E500700867
:10052C00E4006408D4006508D500D601D70154084E
:10053C00E007550803110318013E0319A62AE10729
:10054C00560803110318013E0319AD2AE207570898
:10055C0003110318013E0319B42AE3074E08D40013
:10056C005408F00052080A168A110A260A128A1137
:10057C00710883120313E5007008E4006408D400CA
:10058C006508D500D601D70108300310D40DD50D60
:10059C00D60DD70DFF3E031DCB2A5408E007550896
:1005AC0003110318013E0319DC2AE1075608031155
:1005BC000318013E0319E32AE20757080311031835
:1005CC00013E0319EA2AE3075A08D4005B08D50058
:1005DC005C08D6005D08D70018300310D70CD60C79
:1005EC00D50CD40CFF3E031DF32A5408E007550824
:1005FC0003110318013E0319042BE10756080311DC
:10060C000318013E03190B2BE207570803110318BB
:10061C00013E0319122BE3070830D4000310DA0D46
:10062C00DB0DDC0DDD0DD40B142B5F085E07D40045
:10063C00D501D50D5408823EE40055080318013E3F
:10064C00FF3EE500462B0130D4000310E00DE10D18
:10065C00E20DE30DD40B2B2BDD1F352B362B372B5B
:10066C0060140130D4000310DA0DDB0DDC0DDD0D50
:10067C00D40B392BFF30E4070318E50AFF30E507EC
:10068C00E21F492B4A2B292BDE01DD1F4E2B4F2B52
:10069C006B2BFF305A05D400FF305B05D500FF30C3
:1006AC005C05D6007F305D05D7005708560455040D
:1006BC0054040319622B632B662BDE01DE0A6B2BB1
:1006CC00601C692B6A2B6B2B632B5E0803196F2B39
:1006DC00702BA12B0130E007003003180130E1072B
:1006EC00003003180130E207003003180130E30733
:1006FC00631C812B822BA12B6008D4006108D500D0
:10070C006208D6006308D7000130D800570DD70C0B
:10071C00D60CD50CD40CD80B8C2B5708E3005608F0
:10072C00E2005508E1005408E0000130E40703182A
:10073C00E50A0030E5076508803AFF0080307F024B
:10074C00031DAA2BFF306402031CAD2BAE2BB92B5F
:10075C007F3083120313E3008030E2000030E100AD
:10076C000030E000EE2B831203136508803AFF0083
:10077C0080307F02031DC42B013064020318C72B89
:10078C00C82BD42B003083120313E3000030E2009B
:10079C000030E1000030E000D901EE2B831203138E
:1007AC006408D4005408DF00FF30E005FF30E10599
:1007BC007F30E2050030E3055F1CE52BE62BE72BD1
:1007CC00E2175F08D4000310540CD5005508E30061
:1007DC005908D4005408E3046308CF006208CE0023
:1007EC006108CD006008CC00080083160313D0000C
:1007FC00831203136908F3006808F2006708F1001C
:10080C006608F0000A128A1120200A128A11710857
:10081C0083160313CD007008CC00D701D801D50185
:10082C00D6010130D9000030DA00831203136908B5
:10083C00F3006808F2006708F1006608F000003069
:10084C00F7000030F6000030F5000030F4000A121A
:10085C008A1501200A128A110318352C362C842C87
:10086C00BF3083120313CF008030CE000030CD0098
:10087C000030CC006908D3006808D2006708D100AA
:10088C006608D0000A128A119A200A128A11831261
:10089C0003134F08E9004E08E8004D08E7004C0828
:1008AC00E6002D30EC0083160313500884008312ED
:1008BC0003136C0883138000013083160313D507D0
:1008CC000318D60A0030D607842C0A30F00000300A
:1008DC00F1004D08F3004C08F2000A168A11992712
:1008EC000A128A11710883160313CD007008CC000C
:1008FC000130D7070318D80A0030D8078316031322
:10090C004C084D04031D8B2C8C2C6B2CA82D5703E1
:10091C005804031D922C932C982C0130D9000030D4
:10092C00DA00DA2C0230CE000030CF00C42C831653
:10093C0003135A0883120313A100831603135908D7
:10094C0083120313A0000A30A2000030A3000A1681
:10095C008A1131260A128A11831203132108831675
:10096C000313DA0083120313200883160313D90030
:10097C000130CE070318CF0A0030CF075808803A51
:10098C0083120313EC00831603134F08803A83126F
:10099C0003136C02031DD62C831603134E08570247
:1009AC000318D92CDA2C9D2C8316031359088312A7
:1009BC000313A400831603135A0883120313A50010
:1009CC000030A51BFF30A600A70001300A128A15C3
:1009DC00A3200A128A11831203132708B5002608D4
:1009EC00B4002508B3002408B2006908B9006808EF
:1009FC00B8006708B7006608B6000A128A155F21AE
:100A0C000A128A1183120313350883160313D400B8
:100A1C0083120313340883160313D30083120313B6
:100A2C00330883160313D200831203133208831680
:100A3C000313D1005A0883120313A3008316031364
:100A4C00590883120313A200831603135408F300EE
:100A5C005308F2005208F1005108F0000A128A11F2
:100A6C0020200A128A11710883120313A100700846
:100A7C00A0000A168A1131260A128A118312031356
:100A8C002008A4002108A5000030A51BFF30A600FB
:100A9C00A70001300A128A15A3200A128A118312A8
:100AAC0003132708B5002608B4002508B300240852
:100ABC00B2006908B9006808B8006708B700660892
:100ACC00B6000A168A11E6250A128A11831203133C
:100ADC003508E9003408E8003308E7003208E6007E
:100AEC00831603135408F3005308F2005208F10064
:100AFC005108F0000A128A1120200A128A1170087B
:100B0C00303E83120313EC00831603135508500771
:100B1C0083120313ED006D0884006C0883138000AE
:100B2C00013083160313D5070318D60A0030D607F5
:100B3C00FF30D7070318D80AFF30D8070130D90087
:100B4C000030DA0057085804031DAD2DAE2D8D2C46
:100B5C002E3083120313EC00831603135508500731
:100B6C0083120313ED006D0884006C08831380005E
:100B7C00013083160313D5070318D60A0030D607A5
:100B8C000130CE000030CF00F22D831603135A082B
:100B9C0083120313A1008316031359088312031342
:100BAC00A0000A30A2000030A3000A168A113126D8
:100BBC000A128A1183120313210883160313DA0015
:100BCC0083120313200883160313D9000130CE07B8
:100BDC000318CF0A0030CF07831203136B08803A37
:100BEC00EC00831603134F08803A831203136C0234
:100BFC00031D062E831603134E08831203136A0279
:100C0C000318092E0A2ECB2D8316031359088312B1
:100C1C000313A400831603135A0883120313A500AD
:100C2C000030A51BFF30A600A70001300A128A1560
:100C3C00A3200A128A11831203132708CF00260857
:100C4C00CE002508CD002408CC006908F300680804
:100C5C00F2006708F1006608F0000A128A112020E1
:100C6C000A128A11700883120313A4007108A500DC
:100C7C000030A51BFF30A600A70001300A128A1510
:100C8C00A3200A128A11831203132708B500260821
:100C9C00B4002508B3002408B2006908B90068083C
:100CAC00B8006708B7006608B6000A168A11E62570
:100CBC000A128A11831203133508D3003408D200A8
:100CCC003308D1003208D0000A128A119A200A1275
:100CDC008A11831203134F0883160313D400831253
:100CEC0003134E0883160313D300831203134D080A
:100CFC0083160313D200831203134C0883160313B9
:100D0C00D100540883120313E9008316031353080C
:100D1C0083120313E8008316031352088312031380
:100D2C00E70083160313510883120313E6006908C6
:100D3C00F3006808F2006708F1006608F0000A1278
:100D4C008A1120200A128A11013083160313D9004C
:100D5C000030DA00831203136B0883160313D800D8
:100D6C00831203136A0883160313D700D82F570373
:100D7C005804031DC22EC32EC82E0130D9000030DA
:100D8C00DA000A2F0230CE000030CF00F42E83168A
:100D9C0003135A0883120313A10083160313590873
:100DAC0083120313A0000A30A2000030A3000A161D
:100DBC008A1131260A128A11831203132108831611
:100DCC000313DA0083120313200883160313D900CC
:100DDC000130CE070318CF0A0030CF075808803AED
:100DEC0083120313EC00831603134F08803A83120B
:100DFC0003136C02031D062F831603134E085702B0
:100E0C000318092F0A2FCD2E8316031359088312AA
:100E1C000313A400831603135A0883120313A500AB
:100E2C000030A51BFF30A600A70001300A128A155E
:100E3C00A3200A128A11831203132708B50026086F
:100E4C00B4002508B3002408B2006908B90068088A
:100E5C00B8006708B7006608B6000A128A155F2149
:100E6C000A128A1183120313350883160313D40054
:100E7C0083120313340883160313D3008312031352
:100E8C00330883160313D20083120313320883161C
:100E9C000313D1005A0883120313A3008316031300
:100EAC00590883120313A200831603135408F3008A
:100EBC005308F2005208F1005108F0000A128A118E
:100ECC0020200A128A11710883120313A1007008E2
:100EDC00A0000A168A1131260A128A1183120313F2
:100EEC002008A4002108A5000030A51BFF30A60097
:100EFC00A70001300A128A15A3200A128A11831244
:100F0C0003132708B5002608B4002508B3002408ED
:100F1C00B2006908B9006808B8006708B70066082D
:100F2C00B6000A168A11E6250A128A1183120313D7
:100F3C003508E9003408E8003308E7003208E60019
:100F4C00831603135408F3005308F2005208F100FF
:100F5C005108F0000A128A1120200A128A11700816
:100F6C00303E83120313EC0083160313550850070D
:100F7C0083120313ED006D0884006C08831380004A
:100F8C00013083160313D5070318D60A0030D60791
:100F9C00FF30D7070318D80AFF30D8070130D90023
:100FAC000030DA0057085804031DDD2FDE2FBD2E4C
:100FBC000A3083120313EC008316031355085007F1
:100FCC0083120313ED006D0884006C0883138000FA
:100FDC00080083120313EE01EF018313A030840089
:100FEC00CC300A168A114D250A128A1183010A1275
:040FFC008A153C2BEB
:1010020000307005F80000307105F900803072057B
:10101200FA007F307305FB007B087A0479047804B8
:10102200031D142815281D280030F3000030F2009B
:101032000030F1000030F00000307405F80000309C
:101042007505F90080307605FA007F307705FB00E0
:101052007B087A0479047804031D30283128392862
:101062000030F7000030F6000030F5000030F400E8
:10107200F31F3C283D2861280030F8000030F900B9
:101082000030FA008030FB007008F8027108031C7F
:10109200710F4C284D28F9027208031C720F522856
:1010A2005328FA027308031C730F58285928FB02AD
:1010B2007B08F3007A08F2007908F1007808F00062
:1010C200F71F6428652889280030F8000030F900ED
:1010D2000030FA008030FB007408F8027508031C27
:1010E200750F74287528F9027608031C760F7A2882
:1010F2007B28FA027708031C770F80288128FB02DD
:101102007B08F7007A08F6007908F5007808F40001
:101112008030F3068030F70677087302031D9B28A0
:1011220076087202031D9B2875087102031D9B2815
:101132007408700203189E289F28A1280310A22871
:101142000314080083120313AC002C080319AA2805
:10115200AB28BF28A71FAE28AF28BF282409AE009E
:101162002509AF002609B0002709B100AE0A03190C
:10117200AF0A0319B00A0319B10AC7282708B10038
:101182002608B0002508AF002408AE002708260470
:1011920025042404031DCE28CF28D8280030A70018
:1011A2000030A6000030A5000030A4005E29963071
:1011B200A8002808AD00EA280130A8002808AD07D9
:1011C20001300310B10CB00CAF0CAE0CFF3E031D8E
:1011D200E228FE303105031DEF28F028DD280C2916
:1011E2000130A8002808AD070130AE07003003180F
:1011F2000130AF07003003180130B0070030031888
:101202000130B10701300310B10CB00CAF0CAE0CC1
:10121200FF3E031D0429FF303105031D1129122948
:10122200F1281E290130AD020130A8000310AE0DD5
:10123200AF0DB00DB10DA80B1729B01B2129222922
:10124200282902302D0203182729282913292D18AD
:101252002B292C293429FF30AE05FF30AF057F3012
:10126200B005FF30B1050310AD0C2D08A800A9018F
:10127200AA01AB0118300310A80DA90DAA0DAB0DE0
:10128200FF3E031D3C292808AE042908AF042A08A2
:10129200B0042B08B1042C080319502951295629EE
:1012A200A71F542955295629B1173108A70030081C
:1012B200A6002F08A5002E08A4000800831203131D
:1012C20039088039BA003A08C3003908BA003A0727
:1012D200BB003B08CA00B81F6F29702971294A1444
:1012E2004A0803197529762986294A0A031D7A298B
:1012F2007B2983290030B9000030B8000030B700E4
:101302000030B600B817B9018E290030B90000309C
:10131200B8000030B7000030B60035088039BA0096
:101322003A08C3063508BA003A07BB003B08CB00AF
:10133200B41F9C299D299E294B144B080319A229ED
:10134200A329B3294B0A031DA729A829B0290030D4
:10135200B5000030B4000030B3000030B200B41762
:10136200B501BB290030B5000030B4000030B30035
:101372000030B2003508340433043204031DC2299C
:10138200C329DC290030B9000030B8000030B700B2
:101392000030B6008030B8047F30B9044308BA0088
:1013A2003A08B9043908B5003808B4003708B30060
:1013B2003608B2003B2B4A08031DE029E129EA293D
:1013C2000030B5000030B4000030B3000030B2008D
:1013D2003B2B4A08BA00BB013B08BD004B083A024E
:1013E200BC00031CBD033C087F3EC4003D0803183B
:1013F200013E003EC5003908C2003808C100370866
:10140200C0003608BF000030B9000030B80000301C
:10141200B7000030B6000030C9000030C80000300C
:10142200C7000030C600CB01602A4B0803191A2AF4
:101432001B2A3B2A0130BA000310BF0DC00DC10D9B
:10144200C20DBA0B1D2A0130BA000310B60DB70D3A
:10145200B80DB90DBA0B262AC91F302A312A322AF1
:1014620036140130BA000310C60DC70DC80DC90DE0
:10147200BA0B342A35084202031D492A34084102B4
:10148200031D492A33084002031D492A32083F023C
:10149200031C4C2A4D2A5C2A49173208BF02330822
:1014A200031C330FC0023408031C340FC102350879
:1014B200031C350FC2020130BA003A08CB071A30BA
:1014C2004B02031C652A662A162A4208410440047C
:1014D2003F0403196D2A6E2A8D2A46148D2A013083
:1014E200BA000310B60DB70DB80DB90DBA0B722ABA
:1014F200C91F7C2A7D2A7E2A36140130BA000310C5
:10150200C60DC70DC80DC90DBA0B802AFF30C4071E
:101512000318C50AFF30C507B81F902A912A702AFE
:10152200CB01C91F952A962AB22AFF304605BA0076
:10153200FF304705BB00FF304805BC007F3049053E
:10154200BD003D083C043B043A040319A92AAA2A17
:10155200AD2ACB01CB0AB22A361CB02AB12AB22A52
:10156200AA2A4B080319B62AB72AE82A0130B60775
:10157200003003180130B707003003180130B807F4
:10158200003003180130B907391CC82AC92AE82AD1
:101592003608BA003708BB003808BC003908BD005D
:1015A2000130BE003D0DBD0CBC0CBB0CBA0CBE0B19
:1015B200D32A3D08B9003C08B8003B08B7003A08F6
:1015C200B6000130C4070318C50A0030C507450834
:1015D200803AFF0080307F02031DF12AFF3044026F
:1015E200031CF42AF52A032BFF3083120313C400D1
:1015F2000030C5000030B9000030B8000030B7003C
:101602000030B600831203134508803AFF00803091
:101612007F02031D0E2B013044020318112B122BE3
:101622001F2B83120313C401C5010030B90000301F
:10163200B8000030B7000030B600C30183120313B4
:101642004408BA003A08CA004A1C282B292B2B2B23
:10165200B8172F2B7F30BA003A08B8054A08BA00EB
:1016620003103A0CBB003B08B9004308BA003A0821
:10167200B904D32908000A168A11A0250A128A156C
:101682000A168A11EE260A128A150A168A117E2570
:101692000A128A15F401F40A01300A168A11C225C7
:1016A2000A128A150130F3008030F4000A168A11FA
:1016B20086260A128A15083083160313DB005B089C
:1016C200F40001300A168A11C2250A128A15053061
:1016D200F3008030F4000A168A1186260A128A154F
:1016E2000E3083160313DB005B08F40001300A1688
:1016F2008A11C2250A128A150930F3008030F400DB
:101702000A168A1186260A128A150A168A11552580
:101712000A128A155130F0000030F1000A168A11BF
:1017220067250A128A150030F000F1000A168A11A4
:1017320058260A128A15700883160313DB005B0809
:1017420083120313EF000A168A115E250A128A1504
:10175200033083160313DD000830DC007630DB0033
:10176200DB0BB12BDC0BB12BDD0BB12B00000A160E
:101772008A1155250A128A158130F0000030F100D5
:101782000A168A1167250A128A150030F000F10044
:101792000A168A1158260A128A157108831603132B
:1017A200B7007008B6000A168A115E250A128A1559
:1017B200033083160313DD000830DC007630DB00D3
:1017C200DB0BE12BDC0BE12BDD0BE12B0000F40149
:1017D200F40A02300A168A11C2250A128A15C23088
:1017E200F3000030F4000A168A1186260A128A15BE
:1017F200053083160313DB005B08F40002300A167F
:101802008A11C2250A128A150D30F3008030F400C5
:101812000A168A1186260A128A15073083160313BE
:10182200DB005B08F40002300A168A11C2250A1294
:101832008A15831603133608F3003708F4000A16D4
:101842008A1186260A128A150B3083160313DB00CF
:101852005B08F40002300A168A11C2250A128A15A0
:101862000330F3008030F4000A168A1186260A1229
:101872008A15003083160313B5000030B40000301F
:10188200B3000030B2000030B1000030B0000030D0
:10189200AF000030AE00403083120313CF00A030FF
:1018A200CE000030CD000030CC004330B5007F3098
:1018B200B4000030B3000030B2006F088316031387
:1018C200DB00DC01DD01DE015E0883120313A700E9
:1018D200831603135D0883120313A60083160313F2
:1018E2005C0883120313A500831603135B0883129B
:1018F2000313A40001300A128A15A3200A128A15C2
:10190200831203132708B9002608B8002508B70078
:101912002408B6000A128A155F210A128A15831258
:1019220003133508D3003408D2003308D10032083B
:10193200D0000A128A119A200A128A1583120313FE
:101942004F0883160313B500831203134E08831640
:101952000313B400831203134D0883160313B30059
:10196200831203134C0883160313B2003508831243
:101972000313E90083160313340883120313E800E8
:1019820083160313330883120313E700831603132A
:10199200320883120313E6000230EA000030EB0043
:1019A200C2300A128A11FB230A128A1540308312AE
:1019B2000313CF00A030CE000030CD000030CC00A9
:1019C2004330B5007F30B4000030B3000030B200C5
:1019D20083160313360883120313A400831603131A
:1019E200370883120313A5000030A51BFF30A600A1
:1019F200A70001300A128A15A3200A128A1583123F
:101A020003132708B9002608B8002508B7002408E0
:101A1200B6000A128A155F210A128A15831203136D
:101A22003508D3003408D2003308D1003208D00080
:101A32000A128A119A200A128A15831203134F0876
:101A420083160313B100831203134E088316031384
:101A5200B000831203134D0883160313AF008312E1
:101A620003134C0883160313AE00310883120313C9
:101A7200E90083160313300883120313E800831668
:101A820003132F0883120313E700831603132E0890
:101A920083120313E6000230EA000030EB00B83094
:101AA2000A128A11FB230A128A15063083160313BF
:101AB200DD001330DC00AD30DB00DB0B5E2DDC0B18
:101AC2005E2DDD0B5E2D4B2B0A128A110028730846
:101AD200803983120313A0002008F8007308A000C5
:101AE2002007A1002108FA00F21F782D792D7A2D06
:101AF2007A147A0803197E2D7F2D8F2D7A0A031D01
:101B0200832D842D8C2D0030F3000030F200003044
:101B1200F1000030F000F217F301972D0030F300CE
:101B22000030F2000030F1000030F0007708803918
:101B3200A0002008F900790878060319A12DA22D2A
:101B4200A32D78177708A0002007A1002108F9002B
:101B5200F61FAC2DAD2DAE2D791479080319B22DD7
:101B6200B32DC32D790A031DB72DB82DC02D00301A
:101B7200F7000030F6000030F5000030F400F617F0
:101B8200F701CB2D0030F7000030F6000030F500F1
:101B92000030F4007A0879020318D02DD12D152EC9
:101BA200781FD42DD52DD92D8030A0002008F8061D
:101BB2007A08A0002008FB007908A0002008FA009B
:101BC2007B08A0002008F9007008A0002008FB0094
:101BD2007408A0002008F0007B08A0002008F40090
:101BE2007108A0002008FB007508A0002008F10081
:101BF2007B08A0002008F5007208A0002008FB0066
:101C02007608A0002008F2007B08A0002008F60059
:101C12007308A0002008FB007708A0002008F3004A
:101C22007B08A0002008F700FB017908A000A101B1
:101C32002108A3007A082002A200031CA3032308A0
:101C4200803AFF0080307F02031D292E1A302202C3
:101C5200031C2C2E2D2E6E2E730872047104700438
:101C6200031D342E362E0130372E0030831203131B
:101C7200A0002008FB000030F3000030F20000302A
:101C8200F1000030F0007908A0002008FA00742E5C
:101C92007B1C4C2E4D2E582E7B0883120313A00062
:101CA2000310200C0138A1002108FB005A2E03105A
:101CB200FB0C701C5D2E5E2E5F2EFB170130831213
:101CC2000313A000730DF30CF20CF10CF00CA00B3B
:101CD200632E0130A0002008FA0779087A02031C5B
:101CE200732E742E492E781B772E782EC72E7A08E3
:101CF200031D7C2E7D2E862E0030F3000030F20074
:101D02000030F1000030F000FF2F7408F007750872
:101D120003110318013E03198F2EF10776080311F0
:101D22000318013E0319962EF207770803110318D0
:101D3200013E03199D2EF307731CA02EA12E7F2FA7
:101D42007B1CA42EA52EB02E7B0883120313A000A9
:101D52000310200C0138A1002108FB00B22E031051
:101D6200FB0C701CB52EB62EB72EFB17013083125A
:101D72000313A000730DF30CF20CF10CF00CA00B8A
:101D8200BB2E0130A0002008FA077F2F7308803A8B
:101D9200FF007708803A7F02031DD92E760872026F
:101DA200031DD92E75087102031DD92E7408700205
:101DB2000318DC2EDD2E372FFF3083120313A00011
:101DC200FF30A100FF30A200FF30A3007408A4007E
:101DD2007508A5007608A6007708A7007008A40277
:101DE2007108031C710FF62EF72EA5027208031C50
:101DF200720FFC2EFD2EA6027308031C730F022F16
:101E0200032FA7022408A00725080318250F0A2F6D
:101E12000B2FA10726080318260F102F112FA20738
:101E220027080318270AA3072308F3002208F20051
:101E32002108F1002008F0008030A0002008F806F8
:101E4200FB09FB0A7B08031D272F282F452F013092
:101E5200F007003003180130F10700300318013099
:101E6200F207003003180130F307452F7408F0021F
:101E72007508031C750FF1027608031C760FF20237
:101E82007708031C770FF30273087204710470045D
:101E9200031D4C2F4D2F7B2F7B08031D512F522FDB
:101EA2007B2F0030F3000030F2000030F1000030F0
:101EB200F000FF2F013083120313A0000310F00D76
:101EC200F10DF20DF30DA00B5F2FFB1F692F6A2F8F
:101ED2006B2F70147B1C6E2F6F2F722F0314FB0D50
:101EE200742F0310FB0D7A080319782F792F7B2F9B
:101EF2000130FA02F21F7E2F7F2F5B2FF901FB1FA9
:101F0200832F842F922F7B087F390319892F8A2FE1
:101F12008D2FF901F90A922F701C902F912F922F79
:101F22008A2F79080319962F972FCD2F0130F007AA
:101F3200003003180130F107003003180130F207B6
:101F4200003003180130F307731CA82FA92FCD2FDF
:101F5200700883120313A0007108A1007208A20086
:101F62007308A3000130A400230DA30CA20CA10C42
:101F7200A00CA40BB52F2308F3002208F2002108BD
:101F8200F1002008F0007A0A0319C82FC92FCD2FBB
:101F92000130A0002008FA077A0A0319D12FD22FA4
:101FA200D72F7A08031DD62FD72FE52F0030F30045
:101FB2000030F2000030F1000030F0007A08031D1A
:101FC200E32FE42FE52FF8017A1CE82FE92FEB2FFE
:101FD200F217F12F7F3083120313A0002008F205BD
:101FE2007A0883120313A0000310200CA100210819
:101FF200F300F81FFD2FFE2FFF2FF3170800FF1B22
:102002000A2883137F1883170008840A0319FF0A1A
:10201200080010308A000408840A82070034413420
:10202200443443340034533445344E34003443345E
:0A2032004F344E34003456340034AD
:102A8E00F0007008831203138600080064008001B2
:102A9E00840A04060319003404064E2D0A168A1100
:102AAE0071250A168A1183160313111408000A16CB
:102ABE008A1171250A168A1183160313111508003F
:102ACE000A168A1171250A168A11700883120313C9
:102ADE0093000800831603131419762D772D712D8C
:102AEE0011081F39031D7C2D7D2D712D080000301E
:102AFE000A128A1106200A168A1101300A128A1148
:102B0E0006200A168A110800F20083120313071416
:102B1E0072080A168A1147250A168A1183120313A0
:102B2E0087140330F100F10B9A2D831203138710D3
:102B3E0008008316031788018901831603130710F3
:102B4E0087108601880183120313860188010030E5
:102B5E00A3000130A2008630A100A030A0000A160A
:102B6E008A11B6260A168A11831603130F178F16AB
:102B7E000F160F140800F6007603031DC72DC82D7F
:102B8E00D42D74087F3EF5007508F70077080A12F9
:102B9E008A1106200A168A11E52D02307606031DCB
:102BAE00D92DDA2DE52D7408BF3EF5007508F70016
:102BBE0077080A128A1106200A168A110800803038
:102BCE0083120313B5063908F3003808F2003708EC
:102BDE00F1003608F0003508F7003408F600330827
:102BEE00F5003208F4000A128A1568250A168A11B1
:102BFE00730883120313B5007208B4007108B30092
:102C0E007008B2000800F800F401F5017008F20037
:102C1E00F3017208F6007308F700781C172E182EB1
:102C2E001E2E7608F4070318F50A7708F50701300B
:102C3E000310F60DF70DFF3E031D1F2E0310F80CAB
:102C4E007808031D2B2E2C2E142E7508F1007408F7
:102C5E00F0000800FB01FC0183120313201C382E28
:102C6E00392E3F2E2208FB070318FC0A2308FC0707
:102C7E0001300310A20DA30DFF3E031D402E0130A7
:102C8E000310A10CA00CFF3E031D472E20082104AB
:102C9E00031D522E532E332E7C08A1007B08A0005C
:102CAE0008000A168A1171250A168A118316031353
:102CBE0091150A168A1171250A168A1183120313A9
:102CCE001308F200F3017208F4007308F5000A16F7
:102CDE008A1171250A168A1170037104031D782E4C
:102CEE00792E7D2E831603139112802E83160313D5
:102CFE00911611167508F1007408F0000800F50120
:102D0E00F601A12E75087307840076080318760A5B
:102D1E007407FF000A168A1100200A168A110A1675
:102D2E008A118B250A168A110130F5070318F60A47
:102D3E000030F60775087307840076080318760AC4
:102D4E00740783120313FF000A168A1100200A1655
:102D5E008A11003A031DB42EB52E892E0800283094
:102D6E00831203139400831603139101831203132A
:102D7E002008A4002108A5002208A6002308A70009
:102D8E0002300310A40DA50DA60DA70DFF3E031DC9
:102D9E00C82E2708F3002608F2002508F1002408A3
:102DAE00F0000030F7003D30F6000930F50000303D
:102DBE00F4000A168A1133270A168A117008FF3E8C
:102DCE00831603139300940187150716080000302D
:102DDE000A168A1147250A168A111A30F500F8309C
:102DEE00F400F40BF82EF50BF82E000030300A121A
:102DFE008A1106200A168A110730F5007D30F4007C
:102E0E00F40B072FF50B072F30300A128A1106200C
:102E1E000A168A110F30F5004730F400F40B152F07
:102E2E00F50B152F1A2F30300A128A1106200A16AA
:102E3E008A1138300A128A1106200A168A110C30AD
:102E4E000A128A1106200A168A1106300A128A11EF
:102E5E0006200A168A1108000030FC000030FB0024
:102E6E000030FA000030F900730872047104700427
:102E7E000319422F432F902FFD01FD0A532F0130CE
:102E8E00F8000310F00DF10DF20DF30DF80B482FB5
:102E9E000130F8007808FD07F31F562F572F462FE5
:102EAE000130F8000310F90DFA0DFB0DFC0DF80BB7
:102EBE00592F73087702031D6E2F72087602031DB9
:102ECE006E2F71087502031D6E2F70087402031C9D
:102EDE00712F722F812F7008F4027108031C710F6D
:102EEE00F5027208031C720FF6027308031C730FAF
:102EFE00F702791401300310F30CF20CF10CF00C04
:102F0E00FF3E031D822F0130FD02031D8F2F902FD8
:102F1E00572F7C08F3007B08F2007A08F10079083D
:102F2E00F0000800F601F11F9D2F9E2FA52FF0092E
:102F3E00F109F00A0319F10AF601F60AF31FA82F98
:102F4E00A92FB22FF209F309F20A0319F30A01307D
:102F5E00F4007408F606F701F801700871040319FD
:102F6E00B92FBA2FF12FF501F50AC82F0130031032
:102F7E00F00DF10DFF3E031DBE2F0130F40074085D
:102F8E00F507F11FCB2FCC2FBD2F01300310F70DFE
:102F9E00F80DFF3E031DCD2F71087302031DD92FAF
:102FAE0070087202031CDC2FDD2FE42F7008F20272
:102FBE007108031CF303F302771401300310F10CB4
:102FCE00F00CFF3E031DE52F0130F502031DF02F1F
:102FDE00F12FCC2F76080319F52FF62FFB2FF709BB
:102FEE00F809F70A0319F80A7808F1007708F000D3
:022FFE000800C9
:04400E00D620FF3F7A
:00000001FF
