:020000040000FA
:060000000A128A110E280D
:10000800FE00030EF3000408F4000A08F5000A12C3
:100018008A1119280A128A111128F701F801F90121
:10002800FA0183010A128A11BC28831203138C1D5A
:100038001E281F2855280A128A1103210A128A111C
:10004800F1007108F60042280130F10071088312AE
:100058000313860779080A128A1113210A128A11D2
:1000680052280130F10071088312031388077808B9
:100078000A128A1113210A128A1152287608F100ED
:10008800F2017208003A03194A2852287108013A05
:1000980003192828033A0319352852288312031311
:1000A8008C110C1F582859286C281F0CF100710C52
:1000B8000F39003A031D6128622867281E08F100DD
:1000C8007108F9006B281E08F1007108F8000C137C
:1000D80075088A0074088400730E8300FE0E7E0E75
:1000E800090003308316031788008901033083163B
:1000F8000313850086018801831203138601880192
:1001080083160313851683120313A001A101A2010C
:1001180024300A128A11E5200A128A118316031361
:100128000F178F160F160F148B170B170C178C152C
:10013800831203130C138C11831603139F131F12BE
:100148009F12831203139F17C3309F0584308312B5
:100158000313A400A40BAE280000831203131F147A
:10016800843083120313A400A40BB82800000800ED
:100178000A128A1175200A128A11831203139F1812
:10018800C628C728C1281F0CA500250C0F39003A1E
:10019800031DCF28D028D5281F08C33904389F004D
:1001A800D728C3309F05843083120313A500A50BFD
:1001B800DB280000831203139F14C1280A128A1136
:1001C8000E2883120313A3008316031387128312C6
:1001D8000313231DF028F128F72822088316031398
:1001E80094008715FD282008220483160313940021
:1001F80087118312031323082104940008000A12AC
:100208008A110C210A128A11831203131308080099
:1002180083160313141C112912290C290800F00055
:0A022800700883120313930008000E
:04400E00D420FF3F7C
:00000001FF
