:020000040000FA
:060000000A128A110C280F
:10000800FE00030EF5000A08F6000A128A111728E6
:100018000A128A110F28F001F101F201F30183019C
:100028000A128A11D528831203138C1D1C281D2837
:1000380075281412141B212822282628941F2528E5
:1000480026282D281308F4007408F30014139413B9
:10005800141683160313941A3228332851281419B6
:10006800362837285128831203131308F40074081C
:10007800F3008C11141683160313141C4428452806
:100088003F28831203131308F4007408F000A63005
:10009800F400F40B4D2800007228941A54285528AF
:1000A8007228141D5828592872288312031313081C
:1000B800F4007408F30083160313141071088312F4
:1000C800031393001416A630F400F40B69280000FB
:1000D800831603131418712872286C2883120313CB
:1000E8008C110B1C782879289228061C7C287D28DE
:1000F80086280130F4007408F10771080F39F400FC
:100108007408F100861C89288A2891280130F10298
:1001180071080F39F4007408F1000B1076088A0092
:10012800750E8300FE0E7E0E0900831603178801E4
:100138008901831603138501033086008801831221
:10014800031385018601880160300A128A11BB20D9
:100158000A128A11831603130F178F160F160F141E
:100168008B170B178B150B10161496140800F70035
:100178007708831603139300363083120313940011
:1001880080308316031394000130910087150716F9
:100198008B170B17831203138C11831603138C15FB
:1001A80008000A128A1199200A128A11DA280A12FA
:0401B8008A110C2874
:04400E00D620FF3F7A
:00000001FF
